S01700004763634170706C69636174696F6E312E737265635B
S11300000C9434000C943E000C943E000C943E007E
S11300100C943E000C943E000C943E000C943E0064
S11300200C943E000C943E000C943E000C943E0054
S11300300C943E000C943E000C943E000C943E0044
S11300400C943E000C943E000C943E000C943E0034
S11300500C943E000C943E000C943E000C943E0024
S11300600C943E000C943E0011241FBECFEFD8E048
S1130070DEBFCDBF0E9440000C94DC020C94000053
S11300800E94CE000E946600FDCF806480937C00B5
S113009087EC80937A0080917A0084FFFCCF80E122
S11300A080937A008091780090917900089520E0FF
S11300B030E008C0EFE9FFE03197F1F700C000003D
S11300C02F5F3F4F28173907A8F30895CF9380E097
S11300D00E944500803921E0920738F485B18B7F76
S11300E085B985B1886085B916C09C012059314015
S11300F0293C310538F485B18B7F85B985B1877F7B
S113010085B909C08935924030F085B1846085B9DC
S113011085B1877F85B981E00E944500BC0180E0FC
S113012090E00E94E10120E038ED4FE955E40E949F
S1130130400120E030E040E251E40E946F0220E000
S113014030E040E05FE30E94D4000E94B201CAE0C4
S1130150C61B9BB190629BB9862F90E00E9457000A
S11301608BB18F7D8BB98C2F90E00E945700CF917B
S1130170089584E084B988E084B980E28AB9089556
S113018080E480937C0087EC80937A0080917A00ED
S113019084FFFCCF80E180937A0008950E94B90027
S11301A00E94C00008955058BB27AA270E94EB0064
S11301B00C9435020E94270238F00E942E0220F08F
S11301C039F49F3F19F426F40C9424020EF4E095BC
S11301D0E7FB0C941E02E92F0E94460258F3BA175B
S11301E0620773078407950720F079F4A6F50C9449
S11301F068020EF4E0950B2EBA2FA02D0B01B90165
S113020090010C01CA01A0011124FF27591B99F088
S1130210593F50F4503E68F11A16F040A22F232F94
S1130220342F4427585FF3CF469537952795A795E4
S1130230F0405395C9F77EF41F16BA0B620B730B8B
S1130240840BBAF09150A1F0FF0FBB1F661F771FFC
S1130250881FC2F70EC0BA0F621F731F841F48F4B1
S1130260879577956795B795F7959E3F08F0B0CF3A
S11302709395880F08F09927EE0F97958795089521
S11302800E9454010C9435020E942E0258F00E94E0
S1130290270240F029F45F3F29F00C941E0251110B
S11302A00C9469020C9424020E94460268F3992378
S11302B0B1F3552391F3951B550BBB27AA2762175E
S11302C07307840738F09F5F5F4F220F331F441F6B
S11302D0AA1FA9F335D00E2E3AF0E0E832D091509F
S11302E05040E695001CCAF72BD0FE2F29D0660F8C
S11302F0771F881FBB1F261737074807AB07B0E8CF
S113030009F0BB0B802DBF01FF2793585F4F3AF0D4
S11303109E3F510578F00C941E020C9469025F3FD5
S1130320E4F3983ED4F3869577956795B795F7955A
S11303309F5FC9F7880F911D9695879597F9089542
S1130340E1E0660F771F881FBB1F621773078407DE
S1130350BA0720F0621B730B840BBA0BEE1F88F7ED
S1130360E09508950E944E0288F09F5798F0B92FA7
S11303709927B751B0F0E1F0660F771F881F991FD6
S11303801AF0BA95C9F714C0B13091F00E9468020E
S1130390B1E008950C946802672F782F8827B85F1E
S11303A039F0B93FCCF3869577956795B395D9F72E
S11303B03EF490958095709561957F4F8F4F9F4F38
S11303C00895E89409C097FB3EF490958095709544
S11303D061957F4F8F4F9F4F9923A9F0F92F96E98D
S11303E0BB279395F695879577956795B795F11102
S11303F0F8CFFAF4BB0F11F460FF1BC06F5F7F4F9F
S11304008F4F9F4F16C0882311F096E911C07723B0
S113041021F09EE8872F762F05C0662371F096E8B9
S1130420862F70E060E02AF09A95660F771F881F88
S1130430DAF7880F9695879597F9089597F99F6746
S113044080E870E060E008959FEF80EC0895002458
S11304500A941616170618060906089500240A9425
S113046012161306140605060895092E0394000CAB
S113047011F4882352F0BB0F40F4BF2B11F460FF3A
S113048004C06F5F7F4F8F4F9F4F089557FD905863
S1130490440F551F59F05F3F71F04795880F97FB44
S11304A0991F61F09F3F79F08795089512161306FE
S11304B01406551FF2CF4695F1DF08C0161617062D
S11304C01806991FF1CF8695710561050894089562
S11304D0E894BB2766277727CB0197F908950E94F4
S11304E082020C9435020E94270238F00E942E02E8
S11304F020F0952311F00C941E020C942402112474
S11305000C9469020E94460270F3959FC1F3950F03
S113051050E0551F629FF001729FBB27F00DB11D83
S1130520639FAA27F00DB11DAA1F649F6627B00D13
S1130530A11D661F829F2227B00DA11D621F739FFC
S1130540B00DA11D621F839FA00D611D221F749F0A
S11305503327A00D611D231F849F600D211D822F51
S1130560762F6A2F11249F5750409AF0F1F0882378
S11305704AF0EE0FFF1FBB1F661F771F881F9150A5
S11305805040A9F79E3F510580F00C941E020C9434
S113059069025F3FE4F3983ED4F3869577956795B7
S11305A0B795F795E7959F5FC1F7FE2B880F911DCF
S10F05B09695879597F90895F894FFCF6D
S9030000FC
