S010000043617220636F64652E7372656343
S11300000C9479000C94A1000C94A1000C94C501EB
S11300100C94A1000C94A1000C94A1000C94A100D8
S11300200C94A1000C943F020C94A1000C940302C4
S11300300C94A1000C94A1000C94A1000C94A100B8
S11300400C94F9010C94A1000C94A1000C94A1004F
S11300500C94A1000C94A1000C94A1000C94A10098
S11300600C94A1000C94A10007634236B79BD8A757
S11300701A39685618AEBAAB558C1D3CB7CC5763C9
S1130080BD6DEDFD753EF6177231BF000000803F77
S113009008000000BE922449123EABAAAA2ABECD93
S11300A0CCCC4C3E00000080BEABAAAAAA3E000005
S11300B00000BF000000803F0000000000084178FD
S11300C0D3BB4387D1133D190E3CC3BD4282AD2B34
S11300D03E68EC8276BED98FE1A93E4C80EFFFBE2C
S11300E001C4FF7F3F00000000006F02C4037602DA
S11300F0CB0311241FBECFEFD8E0DEBFCDBF14E089
S1130100A0E0B1E0E6E2F5E202C005900D92A63669
S1130110B107D9F725E0A6E6B4E001C01D92AF37D8
S1130120B207E1F710E0C7E7D0E004C02197FE0171
S11301300E94960FC537D107C9F70E94BD030C94DE
S113014086120C940000FC01108283E090E09283FC
S113015081831382683080F482E090E0928381830B
S113016060832BB181E090E002C0880F991F6A95EB
S1130170E2F7822B8BB9089588EF860F863080F4DE
S113018012821182808345B121E030E0B90102C0BE
S1130190660F771F8A95E2F7CB01842B85B9089502
S11301A06E50663068F481E090E0928381836083CE
S11301B028B102C0880F991F6A95E2F7822B88B98B
S11301C00895FC01218132812115310561F423B1A7
S11301D030E0A901008002C0559547950A94E2F7E2
S11301E0CA01817008952130310569F426B130E0E7
S11301F0A901FC01008002C0559547950A94E2F7D5
S1130200CA01817008952230310569F429B130E0C2
S1130210A901FC01008002C0559547950A94E2F7B4
S1130220CA018170089580E00895FC017894818169
S11302309281892B91F4A8E6B0E08C9181608C9333
S1130240ABE6B0E02C9181E090E0008002C0880F22
S1130250991F0A94E2F7822B8C93818192818130D9
S1130260910599F4A8E6B0E08C9182608C93ACE699
S1130270B0E02C9181E090E0008002C0880F991FCB
S11302800A94E2F7822B8C9314C0029791F4A8E6A7
S1130290B0E08C9184608C93ADE6B0E02C9181E069
S11302A090E0008002C0880F991F0A94E2F7822B25
S11302B08C9381E0838308958F929F92AF92CF9223
S11302C0DF92EF92FF920F931F93CF93DF93EC0192
S11302D04B01019789F56F3F7F4F71F564E08EEE16
S11302E094E00E947D0265E08AEE94E00E94A300FF
S11302F0AA24A3940F2EC12CD12CF0E2EF2EF1E40A
S1130300FF2EF02D02E010E025E048E067E082ECEB
S113031094E00E94D2030F2EC12CD12CF0EAEF2ED0
S1130320F1E4FF2EF02D01E010E020E042E066E071
S113033086E694E00E94E509CD2BD9F489208094C7
S1130340C1F486E694E00E94240B8EEC94E00E94B3
S1130350720B8AEC94E00E941D0386EC94E00E94E8
S11303601D0382EC94E00E941D038EEE94E00E9433
S11303701D03DF91CF911F910F91FF90EF90DF90BC
S1130380CF90AF909F908F9008951F920F920FB6C9
S11303900F9211242F933F934F935F936F937F9307
S11303A08F939F93AF93BF93EF93FF938AEE94E061
S11303B00E94E100882361F080E091E00E949409AA
S11303C082EC94E00E94C00486E694E00E94120B42
S11303D0FF91EF91BF91AF919F918F917F916F9119
S11303E05F914F913F912F910F900FBE0F901F90EF
S11303F018951F920F920FB60F9211240F900FBEF3
S11304000F901F9018951F920F920FB60F92112400
S11304102F933F934F935F936F937F938F939F9308
S1130420AF93BF93EF93FF938AE694E00E94B30BDC
S11304308823A1F086E694E00E94390B409184045D
S11304405091850460918604709187048AE694E053
S11304500E94C20786E694E00E94F30AFF91EF919E
S1130460BF91AF919F918F917F916F915F914F91C8
S11304703F912F910F900FBE0F901F9018951F92D0
S11304800F920FB60F9211242F933F934F935F93C4
S11304906F937F938F939F93AF93BF93EF93FF9348
S11304A08EEC94E00E94B30B882341F08EEC94E030
S11304B00E94720782EC94E00E948704FF91EF91FE
S11304C0BF91AF919F918F917F916F915F914F9168
S11304D03F912F910F900FBE0F901F9018956FEFC3
S11304E07FEF81E090E00E945C0108956FEF7FEF61
S11304F080E090E00E945C010895FC01108283E09A
S113050090E0928381831382683080F482E090E0EB
S11305109283818360832AB181E090E002C0880FD6
S1130520991F6A95E2F7822B8AB9089588EF860F9E
S1130530863080F412821182808344B121E030E05D
S1130540B90102C0660F771F8A95E2F7CB01842BAD
S113055084B908956E50663068F481E090E0928327
S11305608183608327B102C0880F991F6A95E2F7DF
S1130570822B87B90895FC0181819281009761F4EF
S113058025B181E090E0008002C0880F991F0A9491
S1130590E2F7822B85B91CC08130910561F428B142
S11305A081E090E0008002C0880F991F0A94E2F76E
S11305B0822B88B90DC0029759F42BB181E090E0E9
S11305C0008002C0880F991F0A94E2F7822B8BB92E
S11305D081E083830895FC0181819281009769F40D
S11305E025B181E090E0008002C0880F991F0A9431
S11305F0E2F78095822385B91EC08130910569F4A4
S113060028B181E090E0008002C0880F991F0A940D
S1130610E2F78095822388B90EC0029761F42BB16A
S113062081E090E0008002C0880F991F0A94E2F7ED
S1130630809582238BB913820895CF93DF93EC01C5
S11306400E94EB0289819A81009769F424B181E0C8
S113065090E0088002C0880F991F0A94E2F7809501
S1130660822384B91EC08130910569F427B181E0E9
S113067090E0088002C0880F991F0A94E2F78095E1
S1130680822387B90EC0029761F42AB181E090E019
S1130690088002C0880F991F0A94E2F7809582238C
S11306A08AB9DF91CF9108958F929F92AF92CF92A2
S11306B0DF92EF92FF920F931F93CF93DF93EC019E
S11306C04B01019789F56F3F7F4F71F564E08AE72D
S11306D095E00E947D0265E086E795E00E94A30014
S11306E0AA24A3940F2EC12CD12CF0E2EF2EF1E416
S11306F0FF2EF02D02E010E025E048E067E08EE4F4
S113070095E00E94D2030F2EC12CD12CF0EAEF2EDB
S1130710F1E4FF2EF02D01E010E020E042E066E07D
S113072082EF94E00E94E509CD2BD9F489208094CE
S1130730C1F482EF94E00E94240B8AE595E00E94C4
S1130740720B86E595E00E941D0382E595E00E9408
S11307501D038EE495E00E941D038AE795E00E9444
S11307601D03DF91CF911F910F91FF90EF90DF90C8
S1130770CF90AF909F908F9008950E94760986E75E
S113078095E00E941501FFCF6FEF7FEF81E090E0CD
S11307900E94540308956FEF7FEF80E090E00E9481
S11307A0540308955F926F927F928F929F92AF92BB
S11307B0BF92CF92DF92EF92FF920F931F93CF934A
S11307C0DF93CDB7DEB7A4970FB6F894DEBF0FBEA4
S11307D0CDBF4C01542EB22E38010A2DFC011082DB
S11307E083E090E0928381831382148296838583CD
S11307F01782108692878187138614869687858749
S11308001786108A118A128A138A148A158A168AFC
S1130810178A108E118E128E138E148E158E168ECC
S113082081E090E090A3878F92A381A313A215A2E5
S113083014A216A217A2CE0181960E947D0289A15C
S11308409AA1F401918380838BA19CA193838283D9
S1130850CE0181960E941D03652DCE014D960E9406
S11308607D028D8D9E8DF401958384838F8D98A157
S113087097838683CE014D960E941D036B2DCE0176
S113088049960E947D02898D9A8DF4019187808713
S11308908B8D9C8D93878287CE0149960E941D0380
S11308A0A7019601B301CE0101960E94670688E173
S11308B0FE013196D4011C9601900D928A95E1F7C0
S11308C0CE0101960E94720BA4960FB6F894DEBF77
S11308D00FBECDBFDF91CF911F910F91FF90EF908D
S11308E0DF90CF90BF90AF909F908F907F906F904C
S11308F05F90089521E0FC0127A308960E94BB02A3
S11309000895FC0117A208960E94EB020895FC01C9
S113091027A1222319F00E94810408950E947A04D9
S11309200895FC0116A20C960E94970B86E191E0B3
S11309300E9494090895CF93DF93FC0126A12223FA
S113094049F0EC010E94BB02CE0104960E94EB0226
S11309501DA21CA2DF91CF910895CF93DF93EC01E8
S113096081E08EA3CE010C960E94770BCE010E94EB
S11309709B048CE291E00E949409DF91CF91089549
S1130980FC0126A1222339F00E94910481E491E024
S11309900E94940908950E94AD048DE591E00E949F
S11309A0940908954F925F926F927F928F929F92D3
S11309B0AF92BF92CF92DF92EF92FF92CF93DF93E9
S11309C0EC0188A099A0AAA0BBA0CCA0DDA0EEA0B9
S11309D0FFA0A7019601C501B4010E94470C88231A
S11309E0E9F0488059806A807B80A3019201C701A5
S11309F0B6010E94470C88232CF4C882D982EA826B
S1130A00FB820CC0A3019201C501B4010E949F0D99
S1130A10181624F488829982AA82BB82DF91CF912E
S1130A20FF90EF90DF90CF90BF90AF909F908F900A
S1130A307F906F905F904F9008950F931F93FC01E8
S1130A4040A351A362A373A304A315A326A337A3AE
S1130A501F910F910895CF92DF92EF92FF920F931F
S1130A601F93FC014487558766877787008B118B1A
S1130A70228B338BC48AD58AE68AF78A1F910F9119
S1130A80FF90EF90DF90CF9008954F925F926F9216
S1130A907F928F929F92AF92BF92CF92DF92EF920A
S1130AA0FF92CF93DF9300D000D000D0CDB7DEB754
S1130AB09E838D83FC0144805580668077802085E9
S1130AC0318542855385C301B2010E94DA0B6B0163
S1130AD07C01ED81FE81248D358D468D578D0E94DC
S1130AE0DB0B4B015C01ED81FE81648F758F868F7A
S1130AF0978F208D318D428D538DC701B6010E9491
S1130B00DA0B69837A838B839C83ED81FE81248550
S1130B10358546855785C701B6010E94A40D9B0102
S1130B20AC01C301B2010E94DB0B2B013C01ED813E
S1130B30FE812089318942895389C501B4010E940B
S1130B40A40D9B01AC01C301B2010E94DB0B4B015C
S1130B505C01ED81FE812489358946895789698143
S1130B607A818B819C810E94A40D9B01AC01C501FB
S1130B70B4010E94DB0BED81FE816083718382836B
S1130B809383CF010E94D204ED81FE81C08ED18E69
S1130B90E28EF38E26960FB6F894DEBF0FBECDBF5D
S1130BA0DF91CF91FF90EF90DF90CF90BF90AF9007
S1130BB09F908F907F906F905F904F90089580E406
S1130BC080937C0083EC80937A0080917A0084FF88
S1130BD0FCCF80E180937A008CE891E00E94940934
S1130BE00895FC011082663010F4608303C02FEF77
S1130BF0FC0120830E94DF050895FC01808180644C
S1130C0080937C0083EC80937A0080917A0084FF47
S1130C10FCCF80E180937A008091780090917900F4
S1130C200895CF92DF92EF92FF920E94FD05BC01DE
S1130C3080E090E00E94ED0C20E030E040EA5BE3CD
S1130C400E94A40D2DED34E246E95FEB0E94110EE3
S1130C502DE637EE4FEE51E40E94A40D6B017C01AA
S1130C6020E030E040EA52E40E949F0D18165CF048
S1130C7020E030E040E251E4C701B6010E94470C95
S1130C80882354F011C00F2EC12CD12CF0EAEF2E82
S1130C90F2E4FF2EF02D08C00F2EC12CD12CF0E26F
S1130CA0EF2EF1E4FF2EF02D23E333E34BE451E484
S1130CB0C701B6010E94A40D20E030EC4FE754E4D4
S1130CC00E944C0CFF90EF90DF90CF9008954F92CC
S1130CD05F926F927F928F929F92AF92BF92EF92A8
S1130CE0FF920F93CF93DF931F92CDB7DEB77C01B2
S1130CF05B0129013A01FC01108283E090E09283B8
S1130D0081831382148215821682178210861186BB
S1130D10128613861486158616861786108A118AFB
S1130D20128A81E090E0948B838B968B858B178A53
S1130D300E947609F701B282A1822FE632E143E8EC
S1130D405CE3C301B2010E944C0C20E030E040E0BF
S1130D505FE30E94DB0B0E94BE0CF701638774877C
S1130D6085879687602FCE0101960E94F1058981BF
S1130D70F701878B818192810E94460BF7011082D3
S1130D801382148215821682438454846584768483
S1130D90C70147960E9411064B015C01C301B201D1
S1130DA00E94ED0CA50194010E94A40D20E030E006
S1130DB040E05FE30E94DB0B0E94BE0CF7016783F7
S1130DC070878187928789E991E00E949409F701ED
S1130DD067817085818592850E94B6090F90DF91A5
S1130DE0CF910F91FF90EF90BF90AF909F908F9015
S1130DF07F906F905F904F900895CF92DF92EF9223
S1130E00FF920F931F93CF93DF93EC018B01690142
S1130E107A01188283E090E09A8389831B821C8282
S1130E201D821E821F82188619861A861B861C86BE
S1130E301D861E861F86188A198A1A8A81E090E008
S1130E409C8B8B8B9E8B8D8B1F8A0E9476091A83B9
S1130E5009832FE632E143E85CE3C701B6010E944F
S1130E604C0C20E030E040E05FE30E94DB0B0E948A
S1130E70BE0C6B877C878D879E878CEB91E00E94EC
S1130E8094096B857C858D859E850E94B60983E4D3
S1130E9093E00E94940989819A810E94460B1B82E7
S1130EA01C821D821E828AE590E0A0E0B0E08F8360
S1130EB09887A987BA8789ED91E00E9494096F8188
S1130EC0788589859A850E94B60983E493E00E9417
S1130ED09409DF91CF911F910F91FF90EF90DF90D4
S1130EE0CF9008958F929F92AF92BF92CF92DF924C
S1130EF0EF92FF92CF93DF93FC0183899489892B2E
S1130F00A9F483859485A585B6854381548165813B
S1130F107681841B950BA60BB70B87839087A187DB
S1130F20B28781E090E0948B838B21C0EF018384AE
S1130F309484A584B684CF0147960E9411066B0160
S1130F407C01C501B4010E94ED0CA70196010E9429
S1130F50A40D20E030E040E05FE30E94DB0B0E9440
S1130F60BE0C6F83788789879A871C8A1B8ADF91D6
S1130F70CF91FF90EF90DF90CF90BF90AF909F9074
S1130F808F900895CF93DF93FC0185899689892BEF
S1130F9069F483859485A585B68587839087A18721
S1130FA0B28781E090E0968B858B0BC0CB01BA01B0
S1130FB0EF010E94BE0C6F83788789879A871E8A07
S1130FC01D8ADF91CF9108950F931F93CF93DF93E1
S1130FD0042F152FD62FC72F20E030EC4FE754E411
S1130FE0602F712F8D2F9C2F0E949F0D181684F057
S1130FF020E030E0A901602F712F8D2F9C2F0E94DB
S1131000470C88234CF400E010E0D0E0C0E004C0BA
S113101000E010ECDFE7C4E4602F712F8D2F9C2FCC
S1131020DF91CF911F910F9108958F929F92AF926C
S1131030BF92CF92DF92EF92FF92CF93DF93EC01B6
S11310408AA49BA4ACA4BDA46AAD7BAD8CAD9DADBC
S113105020E030EC4FE754E40E944C0C6B017C011F
S11310609B01AC01C501B4010E94A40D6AAB7BAB2A
S11310708CAB9DAB2EA53FA548A959A9C701B601C4
S11310800E94A40D6EAB7FAB88AF99AFDF91CF9177
S1131090FF90EF90DF90CF90BF90AF909F908F9094
S11310A008952F923F924F925F926F927F928F9208
S11310B09F92AF92BF92CF92DF92EF92FF920F93E3
S11310C01F93CF93DF93CDB7DEB727970FB6F8946E
S11310D0DEBF0FBECDBF1C014B8328013901CC827A
S11310E0DD82EE82FF82FC01108211821282138261
S11310F01482158216821782108611861286138630
S11311001486158616861786108A118A128A138AFF
S1131110148A158A168A178A108E118E128E138ECF
S1131120148E158E168E178E10A211A212A213A25F
S113113014A215A216A217A210A611A612A613A6EF
S113114014A615A616A617A610AA11AA12AA13AABF
S113115014AA15AA16AA17AA10AE11AE12AE13AE8F
S113116014AE15AECE0102960E94F1058A81F101FA
S113117080A76B81CE0101960E94F1058981F1015E
S113118081A74482558266827782CC8CDD8CEE8C7A
S1131190FF8C950184014C815D816E817F81C10149
S11311A00E942B050CA11DA12EA13FA148A159A16C
S11311B06AA17BA1C1010E941D0528A139A14AA1F0
S11311C05BA16CA17DA18EA19FA10E94DA0B20E0FE
S11311D030E040E05FE30E94A40DF10162AF73AF21
S11311E084AF95AF27960FB6F894DEBF0FBECDBF80
S11311F0DF91CF911F910F91FF90EF90DF90CF90EF
S1131200BF90AF909F908F907F906F905F904F9022
S11312103F902F900895CF92DF92EF92FF920F9319
S11312201F93CF93DF93EC01680179010E94E407D7
S11312306AA77BA78CA79DA7B701A601CE010E9430
S1131240E4076EA77FA788AB99ABCE010E9415086F
S11312506C817D818E819F812AA93BA94CA95DA9BE
S11312600E94DB0B2EA93FA948AD59AD0E94DA0BB1
S1131270688779878A879B87DF91CF911F910F9128
S1131280FF90EF90DF90CF900895CF92DF92EF928E
S1131290FF920F931F93CF93DF93EC0189960E94E3
S11312A0FD05BC0180E090E00E94ED0C6B017C0127
S11312B0CE0188960E94FD05BC0180E090E00E946A
S11312C0ED0CAB01BC0197018601CE010E940B0914
S11312D0DF91CF911F910F91FF90EF90DF90CF900E
S11312E0089585E493E00E949409089580917E0511
S11312F0811112C088E08093C10086E08093C2000F
S113130087E690E09093C5008093C4008DE08093BD
S1131310C60081E080937E0508959091C00095FFFA
S1131320FCCF8093C6000895EF92FF920F931F9312
S1131330CF93DF937C01C0E0D0E087010C0F1D1F29
S1131340F8018081882359F00E948D09F801808179
S11313508A3019F48DE00E948D092196EECFDF9139
S1131360CF911F910F91FF90EF9008950F931F93CA
S1131370CF93DF93CDB7DEB7E2970FB6F894DEBF15
S11313800FBECDBF19829F938F937F936F9382E695
S113139093E09F938F938E010F5F1F4F1F930F93C3
S11313A00E949C0FC8010E9494090FB6F894DEBFF6
S11313B00FBECDBFE2960FB6F894DEBF0FBECDBF11
S11313C0DF91CF911F910F9108954F925F926F9289
S11313D07F928F929F92AF92BF92CF92DF92EF92C1
S11313E0FF920F931F93CF93DF93CDB7DEB7CA5508
S11313F0D1090FB6F894DEBF0FBECDBF3C01542E09
S1131400422EFC01108283E090E092838183138258
S1131410148296838583178210861186128613861A
S11314201486158616861786108A118A128A138ADC
S1131430148A158A168A81E090E0908F878B928FA8
S1131440818F138E148E158E168E178E10A211A2F4
S113145012A213A214A215A216A217A210A611A6D4
S113146012A613A614A615A616A617A610AA11AAA4
S113147012AA13AA14AA15AA16AA17AA10AE11AE74
S113148012AE13AE14AE15AEFE9610821182128205
S1131490138234961082118212821382349610823F
S11314A03196108231961082118212821382349600
S11314B01082118212821382349610821182128257
S11314C0138234961082118212821382349610820F
S11314D0118212821382CE0149960E947D02898D67
S11314E09A8DF301918380838B8D9C8D938382836A
S11314F0CE0149960E941D03A7019601B801CE01B1
S113150001960E94FD0688E1FE013196D3011496EE
S113151001900D928A95E1F7CE0101960E94720B1B
S113152083E48F938CE08F931F921F9282E48F93B6
S113153080E28F931F921F928FE38F9380E88F93A3
S11315401F921F920F2EFAE08F2EF7ED9F2EF3E2DB
S1131550AF2EFCE3BF2EF02D0F2EC12CD12CF0ECBE
S1131560EF2EFFE3FF2EF02D00E010E024EB32E439
S1131570442D652DCE014D960E9451088EE3FE0147
S11315807D96D3015E9601900D928A95E1F7CE0186
S11315904D960E9471090FB6F894DEBF0FBECDBF01
S11315A0C65ADF4F0FB6F894DEBF0FBECDBFDF9132
S11315B0CF911F910F91FF90EF90DF90CF90BF904C
S11315C0AF909F908F907F906F905F904F90089511
S11315D021E0FC01258F0E94BB020895FC01158EB9
S11315E00E94EB020895FC01258D222319F00E942C
S11315F0EE0A08950E94E80A089521E0FC01248F70
S113160004960E94770B8EE693E00E949409089555
S1131610FC01148E04960E94970B83E893E00E94C9
S113162094090895FC01248D222339F00E94080BAB
S113163089E993E00E94940908950E94FD0A85EBCC
S113164093E00E9494090895CF93DF93EC0180ED19
S113165093E00E949409CE014E960E947109CE0136
S113166004960E94720BCE010E941D03DF91CF915C
S11316700895CF93DF93EC016E96CE010E94450945
S1131680CE010E944505DF91CF910895CF93DF935A
S1131690EC0178940E947609209739F481E085BDA5
S11316A08CEE93E00E9494091AC0C130D10571F404
S11316B089E0809381008DE491E090938900809388
S11316C0880081E094E00E94940909C0229739F4CB
S11316D081E08093B10086E194E00E949409DF9157
S11316E0CF9108958BE294E00E9494090895CF93DA
S11316F0DF93EC0189819A81009721F481E0809342
S11317006E0010C08130910521F482E080936F0057
S113171009C0029739F481E08093700086E494E074
S11317200E94940981E08883DF91CF910895CF933B
S1131730DF93EC0189819A81009719F410926E006D
S11317400EC08130910519F410926F0008C0029701
S113175031F41092700085E594E00E949409188297
S1131760DF91CF910895FC0187819085A185B28591
S1131770892B8A2B8B2BD1F083819481A581B6810F
S11317800196A11DB11D83839483A583B6834781EC
S113179050856185728584179507A607B70740F0C1
S11317A0138214821582168281E0089580E00895E0
S11317B080E008955058BB27AA270E94F20B0C948E
S11317C0650D0E94570D38F00E945E0D20F039F42B
S11317D09F3F19F426F40C94540D0EF4E095E7FBA6
S11317E00C944E0DE92F0E94760D58F3BA17620738
S11317F073078407950720F079F4A6F50C94980DE7
S11318000EF4E0950B2EBA2FA02D0B01B901900117
S11318100C01CA01A0011124FF27591B99F0593F5B
S113182050F4503E68F11A16F040A22F232F342FA3
S11318304427585FF3CF469537952795A795F040F1
S11318405395C9F77EF41F16BA0B620B730B840B06
S1131850BAF09150A1F0FF0FBB1F661F771F881FBE
S1131860C2F70EC0BA0F621F731F841F48F4879516
S113187077956795B795F7959E3F08F0B0CF939508
S1131880880F08F09927EE0F9795879508950E9481
S11318902A0D08F481E008950E94600C0C94650DF3
S11318A00E945E0D58F00E94570D40F029F45F3FEE
S11318B029F00C944E0D51110C94990D0C94540D67
S11318C00E94760D68F39923B1F3552391F3951B88
S11318D0550BBB27AA2762177307840738F09F5F4D
S11318E05F4F220F331F441FAA1FA9F335D00E2EBA
S11318F03AF0E0E832D091505040E695001CCAF727
S11319002BD0FE2F29D0660F771F881FBB1F2617E9
S113191037074807AB07B0E809F0BB0B802DBF01C0
S1131920FF2793585F4F3AF09E3F510578F00C948F
S11319304E0D0C94990D5F3FE4F3983ED4F38695D5
S113194077956795B795F7959F5FC9F7880F911DB0
S11319509695879597F90895E1E0660F771F881F9C
S1131960BB1F621773078407BA0720F0621B730B4F
S1131970840BBA0BEE1F88F7E09508950E947E0D44
S113198088F09F5798F0B92F9927B751B0F0E1F03C
S1131990660F771F881F991F1AF0BA95C9F714C0EC
S11319A0B13091F00E94980DB1E008950C94980D17
S11319B0672F782F8827B85F39F0B93FCCF3869525
S11319C077956795B395D9F73EF490958095709582
S11319D061957F4F8F4F9F4F0895E89409C097FBFF
S11319E03EF490958095709561957F4F8F4F9F4FF2
S11319F09923A9F0F92F96E9BB279395F695879536
S1131A0077956795B795F111F8CFFAF4BB0F11F4F8
S1131A1060FF1BC06F5F7F4F8F4F9F4F16C088239F
S1131A2011F096E911C0772321F09EE8872F762FD5
S1131A3005C0662371F096E8862F70E060E02AF016
S1131A409A95660F771F881FDAF7880F9695879502
S1131A5097F90895990F0008550FAA0BE0E8FEEFD7
S1131A6016161706E807F907C0F012161306E4075E
S1131A70F50798F0621B730B840B950B39F40A2657
S1131A8061F0232B242B252B21F408950A2609F435
S1131A90A140A6958FEF811D811D089597F99F6739
S1131AA080E870E060E008959FEF80EC08950024E2
S1131AB00A941616170618060906089500240A94AF
S1131AC012161306140605060895092E0394000C35
S1131AD011F4882352F0BB0F40F4BF2B11F460FFC4
S1131AE004C06F5F7F4F8F4F9F4F089557FD9058ED
S1131AF0440F551F59F05F3F71F04795880F97FBCE
S1131B00991F61F09F3F79F0879508951216130687
S1131B101406551FF2CF4695F1DF08C016161706B6
S1131B201806991FF1CF86957105610508940895EB
S1131B30E894BB2766277727CB0197F908950E947D
S1131B402A0D08F48FEF08950E94B70D0C94650DCB
S1131B500E94570D38F00E945E0D20F0952311F07D
S1131B600C944E0D0C94540D11240C94990D0E9458
S1131B70760D70F3959FC1F3950F50E0551F629F4A
S1131B80F001729FBB27F00DB11D639FAA27F00DD2
S1131B90B11DAA1F649F6627B00DA11D661F829FF9
S1131BA02227B00DA11D621F739FB00DA11D621FDE
S1131BB0839FA00D611D221F749F3327A00D611DFB
S1131BC0231F849F600D211D822F762F6A2F1124DD
S1131BD09F5750409AF0F1F088234AF0EE0FFF1F10
S1131BE0BB1F661F771F881F91505040A9F79E3F67
S1131BF0510580F00C944E0D0C94990D5F3FE4F365
S1131C00983ED4F3869577956795B795F795E795BC
S1131C109F5FC1F7FE2B880F911D9695879597F9C5
S1131C200895FA01EE0FFF1F309621053105A1F149
S1131C306115710561F48038BFE39B0749F168942D
S1131C409038810561F08038BFEF9B0741F09923FC
S1131C504AF5FF3FE1053105210519F1E89408949F
S1131C60E795D901AA2329F4AB2FBE2FF85FD0F34F
S1131C7010C0FF5F70F4A695E0F7F73950F019F043
S1131C80FF3A38F49F779F930DD00F9007FC90583C
S1131C90089546F00C94540D60E070E080E89FE3F2
S1131CA008954FE79F775F934F933F932F930E943D
S1131CB00C0F2F913F914F915F910E94A40D0C94B2
S1131CC0690E29F416F00C944E0D0C94980D0C9496
S1131CD0540D0E947E0DA8F39638A0F707F80F92D2
S1131CE0E8942BE33AEA48EB5FE70E94BA0D0F92BF
S1131CF00F920F924DB75EB70F920E94540FE8E611
S1131D00F0E00E949B0E4F915F91EF91FF91E5955A
S1131D10EE1FFF1F49F0FE57E0684427EE0F441FF3
S1131D20FA95E1F74195550B0E94CE0E0F9007FEF0
S1131D300C94C20E0895DF93CF931F930F93FF92D9
S1131D40EF92DF927B018C01689406C0DA2EEF01DA
S1131D500E94B70DFE01E894A59125913591459116
S1131D605591A6F3EF010E94F20BFE019701A80121
S1131D70DA9469F7DF90EF90FF900F911F91CF9164
S1131D80DF9108959B01AC0160E070E080E89FE37F
S1131D900C944C0C0C944E0D0C94880F0E947E0DE8
S1131DA0D8F39923C9F3940F511DA3F391505040D4
S1131DB094F059F0882332F0660F771F881F9150F2
S1131DC05040C1F79E3F51052CF7880F911D969501
S1131DD0879597F908955F3FACF0983E9CF0BB2738
S1131DE0869577956795B79508F4B1609395C1F793
S1131DF0BB0F58F711F460FFE8CF6F5F7F4F8F4F31
S1131E009F4FE3CF0C94990D16F00C94880F0C940B
S1131E10540D68940C944E0D0E947E0DA8F39923E2
S1131E20C1F3AEF3DF93CF931F930F93FF92C92FA8
S1131E30DD2788232AF02197660F771F881FDAF79A
S1131E4020E030E040E85FEB9FE3883920F0803EFB
S1131E5038F021968F770E94DB0BE0E9F0E004C0B4
S1131E600E94DB0BEDEBF0E00E949B0E8B01BE01A8
S1131E70EC01FB2E6F5771097595771F880B990B31
S1131E800E94EF0C28E132E741E35FE30E94B70DC3
S1131E90AF2D9801AE01FF900F911F91CF91DF916B
S1131EA00E94F20B0C94650DFA01DC01AA0FBB1F12
S1131EB09B01AC01BF5728F42227332744275078CD
S1131EC020C0B75190F4AB2F002446953795279541
S1131ED0011CA395D2F3002071F0220F331F441F7D
S1131EE0B395DAF30ED00C94DA0B61307105A0E8E7
S1131EF08A07B94630F49B01AC0166277727882707
S1131F009078309621F0208331834283538308955F
S1131F109F3F31F0915020F4879577956795B79559
S1131F20880F911D9695879597F90895EE0FFF1FD9
S1131F300590F491E02D0994AEE0B0E0E2EAFFE010
S1131F400C945D120D891E8986E08C831A830983A3
S1131F508FEF9FE79E838D83AE01475E5F4F6F894E
S1131F60788DCE0101960E94BE0FEF81F885E00FB7
S1131F70F11F10822E96E4E00C947912ABE0B0E0ED
S1131F80E4ECFFE00C944F126C017B018A01FC012C
S1131F9017821682838181FFCCC1CE0101963C0158
S1131FA0F6019381F70193FD859193FF81917F0160
S1131FB0882309F4BAC1853239F493FD859193FFDE
S1131FC081917F01853229F4B60190E00E94B51118
S1131FD0E7CF912C212C312CFFE1F315D8F08B3273
S1131FE079F038F4803279F08332A1F4232D206122
S1131FF01DC08D3261F0803369F4232D216016C039
S1132000832D8260382EE32DE4603E2E2AC0F32D0A
S1132010F8601DC037FC2DC020ED280F2A3040F099
S11320208E32B9F436FC81C1232D2064322E19C0BE
S113203036FE06C08AE0989E200D1124922E11C00F
S1132040EAE02E9E200D1124222EF32DF0623F2E65
S113205008C08C3621F4832D8068382E02C088365F
S113206041F4F70193FD859193FF81917F018111E3
S1132070B3CF982F9F7D9554933028F40C5F1F4F56
S11320809FE399830DC0833631F0833771F0833534
S113209009F059C021C0F801808189830E5F1F4F68
S11320A088248394912C530113C02801F2E04F0E2D
S11320B0511CF801A080B18036FE03C0692D70E088
S11320C002C06FEF7FEFC5010E94AA114C0182018B
S11320D0F32DFF773F2E16C0280122E0420E511C3B
S11320E0F801A080B18036FE03C0692D70E002C003
S11320F06FEF7FEFC5010E949F114C01F32DF06833
S11321003F2E820133FC1BC0822D90E08816990675
S1132110B0F4B60180E290E00E94B5112A94F4CFA5
S1132120F50137FC859137FE81915F01B60190E09E
S11321300E94B51121102A9421E0821A9108811479
S1132140910471F7E8C0843611F0893641F5F8013D
S113215037FE07C060817181828193810C5F1F4FBC
S113216008C060817181072E000C880B990B0E5FEB
S11321701F4FF32DFF763F2E97FF09C09095809552
S1132180709561957F4F8F4F9F4FF0683F2E2AE0E7
S113219030E0A3010E94F111882E861845C08537CE
S11321A031F4232D2F7EB22E2AE030E025C0932D6A
S11321B0997FB92E8F36C1F018F4883579F0B5C0FF
S11321C0803719F0883721F0B0C0E92FE061BE2EC6
S11321D0B4FE0DC0FB2DF460BF2E09C034FE0AC04E
S11321E0292F2660B22E06C028E030E005C020E189
S11321F030E002C020E132E0F801B7FE07C06081A0
S11322007181828193810C5F1F4F06C0608171814F
S113221080E090E00E5F1F4FA3010E94F111882E11
S11322208618FB2DFF773F2E36FE0DC0232D2E7F03
S1132230A22E891458F434FE0BC032FC09C0832D3D
S11322408E7EA82E05C0B82CA32C03C0B82C01C0C8
S1132250B92CA4FE0FC0FE01E80DF11D808180336E
S113226021F49A2D997EA92E09C0A2FE06C0B3942A
S1132270B39404C08A2D867809F0B394A3FC11C0EA
S1132280A0FE06C0B21488F4280C922C9B180EC031
S1132290B21460F4B60180E290E00E94B511B394E8
S11322A0F7CFB21418F42B1802C0982C212CA4FEDA
S11322B010C0B60180E390E00E94B511A2FE17C0E1
S11322C0A1FC03C088E790E002C088E590E0B60175
S11322D00CC08A2D867859F0A1FE02C08BE201C0A1
S11322E080E2A7FC8DE2B60190E00E94B51189144A
S11322F038F4B60180E390E00E94B5119A94F7CFC8
S11323008A94F301E80DF11D8081B60190E00E94EA
S1132310B5118110F5CF222009F442CEB60180E236
S113232090E00E94B5112A94F6CFF6018681978138
S113233002C08FEF9FEF2B96E2E10C946B12FC012D
S11323400590615070400110D8F7809590958E0FDC
S11323509F1F0895FC016150704001900110D8F74F
S1132360809590958E0F9F1F08950F931F93CF9381
S1132370DF93FB01238121FD03C08FEF9FEF2CC06E
S113238022FF16C0468157812481358142175307A5
S113239044F4A081B1819D012F5F3F4F318320839D
S11323A08C93268137812F5F3F4F3783268314C058
S11323B08B01EC01FB010084F185E02D0995892B4B
S11323C0E1F6D80116968D919C9117970196179670
S11323D09C938E931697CE01DF91CF911F910F910D
S11323E00895FA01AA27283051F1203181F1E894A7
S11323F06F936E7F6E5F7F4F8F4F9F4FAF4FB1E0F4
S11324003ED0B4E03CD0670F781F891F9A1FA11DEE
S1132410680F791F8A1F911DA11D6A0F711D811DEF
S1132420911DA11D20D009F468943F912AE0269FB4
S113243011243019305D3193DEF6CF010895462F13
S11324404770405D4193B3E00FD0C9F7F6CF462FF4
S11324504F70405D4A3318F0495D31FD405241935D
S113246002D0A9F7EACFB4E0A6959795879577951A
S11324706795BA95C9F700976105710508959B01A1
S1132480AC010A2E06945795479537952795BA952A
S1132490C9F7620F731F841F951FA01D08952F9203
S11324A03F924F925F926F927F928F929F92AF92E0
S11324B0BF92CF92DF92EF92FF920F931F93CF932D
S11324C0DF93CDB7DEB7CA1BDB0B0FB6F894DEBFC4
S11324D00FBECDBF09942A88398848885F846E84EA
S11324E07D848C849B84AA84B984C884DF80EE8034
S11324F0FD800C811B81AA81B981CE0FD11D0FB63D
S1132500F894DEBF0FBECDBFED01089510E0C7E71C
S1132510D0E004C0FE010E94960F2196C937D1076E
S1092520C9F7F894FFCF97
S11325260A20427574746F6E206973207072657325
S11325367365643A20004D6F746F722074696D651B
S113254672206E6F77206F6666210A004D6F746F76
S1132556722074696D6572206E6F77206F6E210A22
S113256600546865206D6F746F72206973206E6FF6
S1132576772064697361626C6564210A0054686536
S1132586206D6F746F72206973206E6F7720656E8D
S113259661626C6564210A000A2072756E5F505789
S11325A64D20656C61707365643A20000A20696E7B
S11325B66974204144433A20000A52657175697270
S11325C6656420696E74657272757470732028630D
S11325D66F6E737472756374293A2000546F746154
S11325E66C20616D6F756E74206F6620696E7465FC
S11325F67272757074733A200052657175697265EA
S11326066420696E746572727570747320696E20C5
S113261650574D5F54696D657220636F6E737472A3
S11326267563746F723A20002D2D2D2D2D2D2D2DB1
S11326362D2D2D2D2D2D2D2D2D2D2D2D2D2D2D2DC0
S11326462D2D2D2D2D2D2D2D2D2D2D2D2D2D2D2DB0
S11326562D2D2D2D2D2D2D2D2D2D2D2D2D2D2D2DA0
S11326662D2D2D2D2D2D2D2D2D2D2D2D2D2D2D2D90
S11326762D2D2D2D2D2D2D2D2D2D2D2D2D2D0A00D0
S11326865461726765743A20000A41637475616C1B
S11326962076616C75653A20000A4F7574707574FE
S11326A63A20000A4572726F723A20000A2D2D2DC7
S11326B62D2D2D2D2D2D2D2D2D2D2D2D2D2D2D2D40
S11326C62D2D2D2D2D2D2D2D2D2D2D2D2D2D2D2D30
S11326D62D2D2D2D2D2D2D2D2D2D2D2D2D2D2D2D20
S11326E62D2D2D2D2D2D2D2D2D2D2D2D2D2D2D2D10
S11326F62D2D2D2D2D2D2D2D2D2D2D2D2D2D2D2D00
S11327062D2D2D0A0A00556E697420647269766946
S11327166E672000206465677265657320746F2098
S1132726746865207269676874210A0A0020646502
S1132736677265657320746F20746865206C6566BE
S113274674210A0A004361722064726976696E67AD
S113275620737472616967687420666F7277617238
S113276664210A0A000A2053656E736F7220646539
S11327767374727563746F722063616C6C65642123
S11327860A00256C7500256C642E256C640053655F
S113279672766F2074696D6572206E6F77206F6E26
S11327A6210A00536572766F2074696D6572206E16
S11327B66F77206F6666210A005468652053657238
S11327C6766F206973206E6F772064697361626C1B
S11327D66564210A0054686520536572766F206922
S11327E673206E6F7720656E61626C6564210A00E2
S11327F60A2054696D657220646573747275637416
S11328066F722063616C6C6564210A000A20546946
S11328166D6572203020696E69746961746564201F
S1132826000A2054696D6572203120696E697469E5
S11328366174656420000A2054696D657220322033
S1132846696E6974696174656420000A54696D650A
S1132856722064657374727563746F722063616C3D
S11328666C6564210A000A2054696D657220322061
S11328766F6E3A20000A2054696D65722032206F0B
S109288666663A20000022
S9030000FC
