S00F00004B6F642062696C2E73726563A0
S11300000C9435000C9452000C9452000C94520041
S11300100C9452000C9452000C9452000C94520014
S11300200C9452000C9452000C9452000C94520004
S11300300C9452000C9452000C9452000C945200F4
S11300400C9452000C9452000C9452000C945200E4
S11300500C9452000C9452000C9452000C945200D4
S11300600C9452000C945200E80011241FBECFEFF0
S1130070D8E0DEBFCDBF21E0A0E0B1E001C01D9219
S1130080AA30B207E1F710E0C5E3D0E004C021973D
S1130090FE010E941C01C433D107C9F70E94EF007E
S11300A00C9422010C940000FC0110821282118233
S11300B01382683080F483E090E0928381836083CC
S11300C02BB181E090E0062E02C0880F991F0A949C
S11300D0E2F7822B8BB981E090E0928381836850B0
S11300E0608325B102C0880F991F6A95E2F7822BBD
S11300F085B90895019789F46F3F7F4F71F4E6E065
S1130100F1E01082128211821382E0E0F1E01082A9
S1130110128211821382148215820895CF93DF9381
S113012000D000D0CDB7DEB7682FCE0101960E9473
S1130130540069817A818B819C810F900F900F907C
S11301400F90DF91CF910895CF93DF93CDB7DEB7B2
S11301502C970FB6F894DEBF0FBECDBF682FCE012B
S113016007960E94F20086E0FE013796DE011196A2
S113017001900D928A95E1F729813A814B815C8146
S11301806D817E8180E090E02C960FB6F894DEBFFE
S11301900FBECDBFDF91CF9108958DE00E948E00F8
S11301A060930601709307018093080190930901FD
S11301B085E00E94A4002093000130930101409344
S11301C002015093030160930401709305010895A3
S11301D06FEF7FEF81E090E00E947A0008950E9423
S11301E0CD00FFCFFC01108212821182138214828F
S11301F01582683080F483E090E092838183608389
S11302002AB181E090E002C0880F991F6A95E2F755
S1130210822B8AB908956850663068F481E090E0D2
S113022092838183608324B102C0880F991F6A95E9
S1130230E2F7822B84B90895EE0FFF1F0590F49125
S10B0240E02D0994F894FFCFAE
S9030000FC
