S00F00004B6F642062696C2E73726563A0
S11300000C9435000C9452000C9452000C94520041
S11300100C9452000C9452000C9452000C94520014
S11300200C9452000C9452000C9452000C94520004
S11300300C9452000C9452000C9452000C945200F4
S11300400C9428010C9452000C9452000C9452000D
S11300500C9452000C9452000C9452000C945200D4
S11300600C9452000C945200210111241FBECFEFB6
S1130070D8E0DEBFCDBF21E0A0E0B1E001C01D9219
S1130080A231B207E1F710E0C5E3D0E004C0219744
S1130090FE010E94DF01C433D107C9F70E94320177
S11300A00C94E5010C940000FC0110821282118270
S11300B01382683080F483E090E0928381836083CC
S11300C02BB181E090E0062E02C0880F991F0A949C
S11300D0E2F7822B8BB981E090E0928381836850B0
S11300E0608325B102C0880F991F6A95E2F7822BBD
S11300F085B90895FC01218132812130310561F4F3
S113010023B130E0A901008002C0559547950A94B7
S1130110E2F7CA01817008952330310569F429B1E9
S113012030E0A901FC01008002C0559547950A946E
S1130130E2F7CA018170089580E008950197A9F457
S11301406F3F7F4F91F4EEE0F1E010821282118252
S11301501382E3E0F1E0108212821182138214828E
S1130160158281E08287109202010895CF93DF9374
S113017000D000D0CDB7DEB7682FCE0101960E9423
S1130180540069817A818B819C810F900F900F902C
S11301900F90DF91CF910895CF93DF93EC010E94EC
S11301A04401CE01DF91CF910895CF93DF9300D026
S11301B01F92CDB7DEB7682FCE0101960E94DC01F5
S11301C069817A818B810F900F900F90DF91CF918D
S11301D00895CF93DF93CDB7DEB72B970FB6F8947E
S11301E0DEBF0FBECDBF8DE00E94B60060930E014E
S11301F070930F01809310019093110165E0CE017B
S113020001960E94CC008BE0FE013196A3E0B1E0A0
S113021001900D928A95E1F781E00E94D5006093E8
S1130220000170930101809302018AB180688AB948
S11302302B960FB6F894DEBF0FBECDBFDF91CF91E2
S113024008956FEF7FEF81E090E00E949E00089593
S11302501F920F920FB60F9211240F900FBE0F90A2
S11302601F9018950E94E9008EE091E00E947A00A8
S1130270882329F083E091E00E947801F5CF83E0A0
S113028091E00E94B301F0CFFC011082128211822E
S113029013821482158281E08287683080F483E0BF
S11302A090E09283818360832AB181E090E002C070
S11302B0880F991F6A95E2F7822B8AB910C068509B
S11302C0663068F481E090E092838183608324B196
S11302D002C0880F991F6A95E2F7822B84B981E0E6
S11302E0868389E0878382E090E091878087089500
S11302F0FC01818192818130910581F495B121E0E5
S113030030E0008002C0220F331F0A94E2F781E03C
S1130310232B09F080E0892385B911C0039779F470
S11303209BB121E030E0008002C0220F331F0A9409
S1130330E2F781E0232B09F080E089238BB9148252
S11303400895FC018285882331F08BB180688BB9D4
S11303508BB18BB90895811105C08BB18BB98BB169
S11303608F778BB90895CF93DF93EC0189819A81BC
S11303708130910561F425B181E090E0088002C0EC
S1130380880F991F0A94E2F7822B85B90DC0039751
S113039059F42BB181E090E0088002C0880F991FC6
S11303A00A94E2F7822B8BB9CE010E94A10181E06D
S11303B08C83DF91CF910895FC0162830895EE0F41
S11103C0FF1F0590F491E02D0994F894FFCFEF
S9030000FC
