S010000043617220636F64652E7372656343
S11300000C9438000C9460000C9460000C946F0104
S11300100C9460000C9460000C9460000C946000DC
S11300200C9460000C94B3010C9460000C94A9012E
S11300300C9460000C9460000C9460000C946000BC
S11300400C949F010C9460000C9460000C9460006C
S11300500C9460000C9460000C9460000C9460009C
S11300600C9460000C946000E3012303EA012A036A
S113007011241FBECFEFD8E0DEBFCDBF12E0A0E059
S1130080B1E0E0EDF6E102C005900D92AC35B107A8
S1130090D9F722E0ACE5B2E001C01D92A93BB2075A
S11300A0E1F710E0C6E3D0E004C02197FE010E940E
S11300B06B08C433D107C9F70E941C030C945B0B73
S11300C00C940000FC01108283E090E09283818311
S11300D01382683080F482E090E0928381836083AD
S11300E02BB181E090E002C0880F991F6A95E2F776
S11300F0822B8BB9089588EF860F863080F41282A4
S11301001182808345B121E030E0B90102C0660F5D
S1130110771F8A95E2F7CB01842B85B908956E5039
S1130120663068F481E090E092838183608328B133
S113013002C0880F991F6A95E2F7822B88B9089547
S1130140FC01218132812115310561F423B130E0B4
S1130150A901008002C0559547950A94E2F7CA01A7
S1130160817008952130310569F426B130E0A90188
S1130170FC01008002C0559547950A94E2F7CA0134
S1130180817008952230310569F429B130E0A90164
S1130190FC01008002C0559547950A94E2F7CA0114
S11301A08170089580E00895FC01789481819281A2
S11301B0892B91F4A8E6B0E08C9181608C93ABE636
S11301C0B0E02C9181E090E0008002C0880F991F7C
S11301D00A94E2F7822B8C9381819281813091057C
S11301E099F4A8E6B0E08C9182608C93ACE6B0E020
S11301F02C9181E090E0008002C0880F991F0A943E
S1130200E2F7822B8C9314C0029791F4A8E6B0E035
S11302108C9184608C93ADE6B0E02C9181E090E009
S1130220008002C0880F991F0A94E2F7822B8C93F6
S113023081E0838308958F929F92AF92CF92DF9251
S1130240EF92FF920F931F93CF93DF93EC014B0137
S1130250019701F56F3F7F4FE9F464E086E892E08F
S11302600E94F10169E082E892E00E946200AA24FF
S1130270A3940F2EC12CD12CF0E2EF2EF1E4FF2E2B
S1130280F02D02E010E025E048E067E08CE592E024
S11302900E943103CD2BB9F489208094A1F488E61F
S11302A092E00E94F60584E692E00E94910280E6C4
S11302B092E00E9491028CE592E00E94910286E80D
S11302C092E00E949102DF91CF911F910F91FF90D4
S11302D0EF90DF90CF90AF909F908F9008951F92F2
S11302E00F920FB60F9211242F933F934F935F9366
S11302F06F937F938F939F93AF93BF93EF93FF93EA
S113030082E892E00E94A000882341F080E091E01E
S11303100E9479058CE592E00E941D04FF91EF9103
S1130320BF91AF919F918F917F916F915F914F9109
S11303303F912F910F900FBE0F901F9018951F9211
S11303400F920FB60F9211240F900FBE0F901F90B3
S113035018951F920F920FB60F9211240F900FBE93
S11303600F901F9018951F920F920FB60F921124A1
S11303702F933F934F935F936F937F938F939F93A9
S1130380AF93BF93EF93FF9388E692E00E94370602
S1130390882341F088E692E00E9400058CE592E013
S11303A00E94E403FF91EF91BF91AF919F918F91D0
S11303B07F916F915F914F913F912F910F900FBE5D
S11303C00F901F9018956FEF7FEF81E090E00E94EF
S11303D01B0108956FEF7FEF80E090E00E941B0106
S11303E00895FC01108283E090E09283818313825C
S11303F0683080F482E090E09283818360832AB144
S113040081E090E002C0880F991F6A95E2F7822B81
S11304108AB9089588EF860F863080F4128211829B
S1130420808344B121E030E0B90102C0660F771F38
S11304308A95E2F7CB01842B84B908956E50663017
S113044068F481E090E092838183608327B102C0E5
S1130450880F991F6A95E2F7822B87B90895FC01EA
S113046081819281009761F425B181E090E0008060
S113047002C0880F991F0A94E2F7822B85B91CC029
S11304808130910561F428B181E090E0008002C0E0
S1130490880F991F0A94E2F7822B88B90DC002973E
S11304A059F42BB181E090E0008002C0880F991FBD
S11304B00A94E2F7822B8BB981E083830895FC01CF
S11304C081819281009769F425B181E090E00080F8
S11304D002C0880F991F0A94E2F78095822385B998
S11304E01EC08130910569F428B181E090E000805C
S11304F002C0880F991F0A94E2F78095822388B975
S11305000EC0029761F42BB181E090E0008002C03C
S1130510880F991F0A94E2F7809582238BB913827E
S11305200895CF93DF93EC010E945F0289819A8141
S1130530009769F424B181E090E0088002C0880F3C
S1130540991F0A94E2F78095822384B91EC08130F2
S1130550910569F427B181E090E0088002C0880F1A
S1130560991F0A94E2F78095822387B90EC00297F7
S113057061F42AB181E090E0088002C0880F991FDD
S11305800A94E2F7809582238AB9DF91CF91089586
S11305908F929F92AF92CF92DF92EF92FF920F933E
S11305A01F93CF93DF93EC014B01019701F56F3F4C
S11305B07F4FE9F464E084EB92E00E94F10169E08A
S11305C080EB92E00E946200AA24A3940F2EC12C17
S11305D0D12CF0E2EF2EF1E4FF2EF02D02E010E03A
S11305E025E048E067E08AE892E00E943103CD2BE1
S11305F0B9F489208094A1F486E992E00E94F6057A
S113060082E992E00E9491028EE892E00E949102B7
S11306108AE892E00E94910284EB92E00E949102A7
S1130620DF91CF911F910F91FF90EF90DF90CF90CA
S1130630AF909F908F9008950E945B0580EB92E0AD
S11306400E94D400FFCF6FEF7FEF81E090E00E9423
S1130650C80208956FEF7FEF80E090E00E94C80227
S113066008955F926F927F928F929F92AF92BF9202
S1130670CF92DF92EF92FF920F931F93CF93DF936A
S1130680CDB7DEB7A2970FB6F894DEBF0FBECDBFCD
S11306904C01542EB22E38010A2DFC01108283E045
S11306A090E09283818313821482968385831782D8
S11306B01086928781871386148696878587178686
S11306C0108A118A128A138A148A158A168A178A3A
S11306D0108E118E128E138E148E158E168E81E04E
S11306E090E090A3878F11A213A212A214A215A2C4
S11306F0CE014F960E94F1018F8D98A1F401918350
S1130700808389A19AA193838283CE014F960E940C
S11307109102652DCE014B960E94F1018B8D9C8D2B
S1130720F401958384838D8D9E8D97838683CE017A
S11307304B960E9491026B2DCE0147960E94F101C7
S11307408F89988DF40191878087898D9A8D9387FD
S11307508287CE0147960E949102A7019601B301B8
S1130760CE0101960E94610486E1FE013196D40116
S11307701C9601900D928A95E1F7CE0101960E9494
S1130780F605A2960FB6F894DEBF0FBECDBFDF917B
S1130790CF911F910F91FF90EF90DF90CF90BF907A
S11307A0AF909F908F907F906F905F90089521E01D
S11307B0FC0125A308960E942F020895FC0115A2AE
S11307C008960E945F020895FC0125A1222319F0D6
S11307D00E94DE0308950E94D7030895FC0114A229
S11307E00C960E941B0686E191E00E94790508950B
S11307F0CF93DF93FC0124A1222349F0EC010E9452
S11308002F02CE0104960E945F021BA21AA2DF915E
S1130810CF910895CF93DF93EC0181E08CA3CE01B7
S11308200C960E94FB05CE010E94F8038AE291E037
S11308300E947905DF91CF910895FC0124A1222320
S113084039F00E94EE038DE391E00E94790508954A
S11308500E940A0489E591E00E947905089580E4E4
S113086080937C0083EC80937A0080917A0084FFEB
S1130870FCCF80E180937A0088E891E00E947905BA
S11308800895FC011082663010F4608303C02FEFDA
S1130890FC0120830E942F040895FC018081806460
S11308A080937C0083EC80937A0080917A0084FFAB
S11308B0FCCF80E180937A00809178009091790058
S11308C008954F925F926F927F928F929F92AF9210
S11308D0BF92EF92FF920F93CF93DF931F92CDB706
S11308E0DEB77C013B0149015A01FC01108283E01F
S11308F090E0928381831382148215821682178278
S11309001086118612861386148615861686178617
S1130910108A118A128A81E090E0948B838B158A65
S11309200E945B05F701728261822FE632E143E89F
S11309305CE3C501B4010E94CF0620E030E040E052
S11309405FE30E9463060E944107F701638774878F
S113095085879687602FCE0101960E944104898184
S1130960F701858B818192810E94CA05F70110826B
S1130970138214821582168283849484A584B68497
S1130980C70145960E944D04BC0180E090E00E949E
S1130990700720E030EC4FE754E40E94CF062B01AF
S11309A03C01C501B4010E947007A30192010E9499
S11309B0FE0720E030E040E05FE30E9463060E940F
S11309C04107F701678370878187928785E991E002
S11309D00E947905F70167817085818592850E945F
S11309E09B050F90DF91CF910F91FF90EF90BF90F7
S11309F0AF909F908F907F906F905F904F900895ED
S1130A008F929F92AF92BF92CF92DF92EF92FF921A
S1130A10CF93DF93FC0183899489892BA9F483857F
S1130A209485A585B6854381548165817681841B2F
S1130A30950BA60BB70B87839087A187B28781E0BC
S1130A4090E0948B838B2CC0EF01C384D484E58421
S1130A50F684CF0145960E944D04BC0180E090E0ED
S1130A600E94700720E030EC4FE754E40E94CF0668
S1130A704B015C01C701B6010E947007A5019401F6
S1130A800E94FE0720E030E040E05FE30E9463063E
S1130A900E9441076F83788789879A871C8A1B8AFB
S1130AA0DF91CF91FF90EF90DF90CF90BF90AF9008
S1130AB09F908F9008958091B802811112C088E0B0
S1130AC08093C10086E08093C20087E690E0909313
S1130AD0C5008093C4008DE08093C60081E08093BC
S1130AE0B80208959091C00095FFFCCF8093C60092
S1130AF00895EF92FF920F931F93CF93DF937C019E
S1130B00C0E0D0E087010C0F1D1FF801808188230D
S1130B1059F00E947205F80180818A3019F48DE041
S1130B200E9472052196EECFDF91CF911F910F9114
S1130B30FF90EF9008950F931F93CF93DF93CDB75A
S1130B40DEB7E2970FB6F894DEBF0FBECDBF1982B1
S1130B509F938F937F936F9388EB91E09F938F93F1
S1130B608E010F5F1F4F1F930F930E947108C801DE
S1130B700E9479050FB6F894DEBF0FBECDBFE29692
S1130B800FB6F894DEBF0FBECDBFDF91CF911F919A
S1130B900F910895CF93DF93EC0178940E945B0545
S1130BA0209739F481E085BD84EC91E00E947905B9
S1130BB01AC0C130D10571F489E08093810080E0CE
S1130BC091E0909389008093880089ED91E00E94E0
S1130BD0790509C0229739F481E08093B1008EEE43
S1130BE091E00E947905DF91CF91089583E092E02E
S1130BF00E9479050895CF93DF93EC0189819A814E
S1130C00009721F481E080936E0010C0813091053B
S1130C1021F482E080936F0009C0029739F481E0E7
S1130C20809370008EE192E00E94790581E08883D0
S1130C30DF91CF910895CF93DF93EC0189819A815D
S1130C40009719F410926E000EC08130910519F4CA
S1130C5010926F0008C0029731F4109270008DE278
S1130C6092E00E9479051882DF91CF910895FC01EA
S1130C7087819085A185B285892B8A2B8B2B31F4B2
S1130C808DE392E00E94790580E008958381948148
S1130C90A581B6810196A11DB11D83839483A5838B
S1130CA0B683478150856185728584179507A607A9
S1130CB0B70730F0138214821582168281E00895FA
S1130CC080E008955058BB27AA270E947A060C9406
S1130CD0C4070E94B60738F00E94BD0720F039F41B
S1130CE09F3F19F426F40C94B3070EF4E095E7FB48
S1130CF00C94AD07E92F0E94D50758F3BA17620781
S1130D0073078407950720F079F4A6F50C94F70788
S1130D100EF4E0950B2EBA2FA02D0B01B901900112
S1130D200C01CA01A0011124FF27591B99F0593F56
S1130D3050F4503E68F11A16F040A22F232F342F9E
S1130D404427585FF3CF469537952795A795F040EC
S1130D505395C9F77EF41F16BA0B620B730B840B01
S1130D60BAF09150A1F0FF0FBB1F661F771F881FB9
S1130D70C2F70EC0BA0F621F731F841F48F4879511
S1130D8077956795B795F7959E3F08F0B0CF939503
S1130D90880F08F09927EE0F9795879508950E947C
S1130DA0E3060C94C4070E94BD0758F00E94B607DE
S1130DB040F029F45F3F29F00C94AD0751110C94D5
S1130DC0F8070C94B3070E94D50768F39923B1F38D
S1130DD0552391F3951B550BBB27AA27621773075D
S1130DE0840738F09F5F5F4F220F331F441FAA1FF1
S1130DF0A9F335D00E2E3AF0E0E832D091505040AD
S1130E00E695001CCAF72BD0FE2F29D0660F771F5A
S1130E10881FBB1F261737074807AB07B0E809F040
S1130E20BB0B802DBF01FF2793585F4F3AF09E3FC5
S1130E30510578F00C94AD070C94F8075F3FE4F388
S1130E40983ED4F3869577956795B795F7959F5F08
S1130E50C9F7880F911D9695879597F90895E1E054
S1130E60660F771F881FBB1F621773078407BA07B3
S1130E7020F0621B730B840BBA0BEE1F88F7E0950E
S1130E8008950E94DD0788F09F5798F0B92F99279D
S1130E90B751B0F0E1F0660F771F881F991F1AF061
S1130EA0BA95C9F714C0B13091F00E94F707B1E0C8
S1130EB008950C94F707672F782F8827B85F39F0C7
S1130EC0B93FCCF3869577956795B395D9F73EF4FA
S1130ED090958095709561957F4F8F4F9F4F0895A2
S1130EE0E89409C097FB3EF49095809570956195C0
S1130EF07F4F8F4F9F4F9923A9F0F92F96E9BB2776
S1130F009395F695879577956795B795F111F8CFF1
S1130F10FAF4BB0F11F460FF1BC06F5F7F4F8F4F5C
S1130F209F4F16C0882311F096E911C0772321F052
S1130F309EE8872F762F05C0662371F096E8862FEA
S1130F4070E060E02AF09A95660F771F881FDAF741
S1130F50880F9695879597F9089597F99F6780E884
S1130F6070E060E008959FEF80EC089500240A94F7
S1130F701616170618060906089500240A94121670
S1130F801306140605060895092E0394000C11F4A3
S1130F90882352F0BB0F40F4BF2B11F460FF04C050
S1130FA06F5F7F4F8F4F9F4F089557FD9058440FA9
S1130FB0551F59F05F3F71F04795880F97FB991FB4
S1130FC061F09F3F79F08795089512161306140671
S1130FD0551FF2CF4695F1DF08C0161617061806FE
S1130FE0991FF1CF86957105610508940895E894D9
S1130FF0BB2766277727CB0197F908950E9411082C
S11310000C94C4070E94B60738F00E94BD0720F074
S1131010952311F00C94AD070C94B30711240C9490
S1131020F8070E94D50770F3959FC1F3950F50E020
S1131030551F629FF001729FBB27F00DB11D639F86
S1131040AA27F00DB11DAA1F649F6627B00DA11D2C
S1131050661F829F2227B00DA11D621F739FB00DD2
S1131060A11D621F839FA00D611D221F749F332742
S1131070A00D611D231F849F600D211D822F762FDB
S11310806A2F11249F5750409AF0F1F088234AF0B8
S1131090EE0FFF1FBB1F661F771F881F9150504024
S11310A0A9F79E3F510580F00C94AD070C94F80706
S11310B05F3FE4F3983ED4F3869577956795B795AB
S11310C0F795E7959F5FC1F7FE2B880F911D9695C5
S11310D0879597F90895EE0FFF1F0590F491E02D81
S11310E00994AEE0B0E0E7E7F8E00C94320B0D8928
S11310F01E8986E08C831A8309838FEF9FE79E8382
S11311008D83AE01475E5F4F6F89788DCE01019666
S11311100E949308EF81F885E00FF11F10822E964C
S1131120E4E00C944E0BABE0B0E0E9E9F8E00C9499
S1131130240B6C017B018A01FC01178216828381D6
S113114081FFCCC1CE0101963C01F6019381F701E8
S113115093FD859193FF81917F01882309F4BAC19E
S1131160853239F493FD859193FF81917F01853216
S113117029F4B60190E00E948A0AE7CF912C212C31
S1131180312CFFE1F315D8F08B3279F038F480324A
S113119079F08332A1F4232D20611DC08D3261F0DA
S11311A0803369F4232D216016C0832D8260382E8C
S11311B0E32DE4603E2E2AC0F32DF8601DC037FCF9
S11311C02DC020ED280F2A3040F08E32B9F436FCC1
S11311D081C1232D2064322E19C036FE06C08AE058
S11311E0989E200D1124922E11C0EAE02E9E200D0F
S11311F01124222EF32DF0623F2E08C08C3621F4E8
S1131200832D8068382E02C0883641F4F70193FD9F
S1131210859193FF81917F018111B3CF982F9F7D99
S11312209554933028F40C5F1F4F9FE399830DC0AE
S1131230833631F0833771F0833509F059C021C00A
S1131240F801808189830E5F1F4F88248394912C39
S1131250530113C02801F2E04F0E511CF801A08085
S1131260B18036FE03C0692D70E002C06FEF7FEFDE
S1131270C5010E947F0A4C018201F32DFF773F2EA6
S113128016C0280122E0420E511CF801A080B18052
S113129036FE03C0692D70E002C06FEF7FEFC50119
S11312A00E94740A4C01F32DF0683F2E820133FC36
S11312B01BC0822D90E088169906B0F4B60180E236
S11312C090E00E948A0A2A94F4CFF50137FC8591B4
S11312D037FE81915F01B60190E00E948A0A2110D5
S11312E02A9421E0821A91088114910471F7E8C0CC
S11312F0843611F0893641F5F80137FE07C0608164
S11313007181828193810C5F1F4F08C0608171815C
S1131310072E000C880B990B0E5F1F4FF32DFF76E1
S11313203F2E97FF09C090958095709561957F4FEA
S11313308F4F9F4FF0683F2E2AE030E0A3010E94B8
S1131340C60A882E861845C0853731F4232D2F7E92
S1131350B22E2AE030E025C0932D997FB92E8F3626
S1131360C1F018F4883579F0B5C0803719F08837A2
S113137021F0B0C0E92FE061BE2EB4FE0DC0FB2DFC
S1131380F460BF2E09C034FE0AC0292F2660B22E95
S113139006C028E030E005C020E130E002C020E1D2
S11313A032E0F801B7FE07C06081718182819381C8
S11313B00C5F1F4F06C06081718180E090E00E5F7A
S11313C01F4FA3010E94C60A882E8618FB2DFF77A3
S11313D03F2E36FE0DC0232D2E7FA22E891458F4E5
S11313E034FE0BC032FC09C0832D8E7EA82E05C0AE
S11313F0B82CA32C03C0B82C01C0B92CA4FE0FC078
S1131400FE01E80DF11D8081803321F49A2D997E2F
S1131410A92E09C0A2FE06C0B394B39404C08A2DB9
S1131420867809F0B394A3FC11C0A0FE06C0B214E0
S113143088F4280C922C9B180EC0B21460F4B601E8
S113144080E290E00E948A0AB394F7CFB21418F4B1
S11314502B1802C0982C212CA4FE10C0B60180E3E6
S113146090E00E948A0AA2FE17C0A1FC03C088E78C
S113147090E002C088E590E0B6010CC08A2D867821
S113148059F0A1FE02C08BE201C080E2A7FC8DE20C
S1131490B60190E00E948A0A891438F4B60180E308
S11314A090E00E948A0A9A94F7CF8A94F301E80D97
S11314B0F11D8081B60190E00E948A0A8110F5CF67
S11314C0222009F442CEB60180E290E00E948A0A0A
S11314D02A94F6CFF6018681978102C08FEF9FEFA1
S11314E02B96E2E10C94400BFC0105906150704096
S11314F00110D8F7809590958E0F9F1F0895FC01D9
S11315006150704001900110D8F7809590958E0F2E
S11315109F1F08950F931F93CF93DF93FB012381A4
S113152021FD03C08FEF9FEF2CC022FF16C0468120
S11315305781248135814217530744F4A081B18136
S11315409D012F5F3F4F318320838C932681378108
S11315502F5F3F4F3783268314C08B01EC01FB01BF
S11315600084F185E02D0995892BE1F6D8011696C2
S11315708D919C911797019617969C938E9316972D
S1131580CE01DF91CF911F910F910895FA01AA27FF
S1131590283051F1203181F1E8946F936E7F6E5FB2
S11315A07F4F8F4F9F4FAF4FB1E03ED0B4E03CD060
S11315B0670F781F891F9A1FA11D680F791F8A1F43
S11315C0911DA11D6A0F711D811D911DA11D20D0AA
S11315D009F468943F912AE0269F11243019305D64
S11315E03193DEF6CF010895462F4770405D419355
S11315F0B3E00FD0C9F7F6CF462F4F70405D4A33A2
S113160018F0495D31FD4052419302D0A9F7EACF69
S1131610B4E0A6959795879577956795BA95C9F798
S113162000976105710508959B01AC010A2E06948B
S11316305795479537952795BA95C9F7620F731F44
S1131640841F951FA01D08952F923F924F925F9281
S11316506F927F928F929F92AF92BF92CF92DF92BE
S1131660EF92FF920F931F93CF93DF93CDB7DEB723
S1131670CA1BDB0B0FB6F894DEBF0FBECDBF0994B7
S11316802A88398848885F846E847D848C849B840E
S1131690AA84B984C884DF80EE80FD800C811B811C
S11316A0AA81B981CE0FD11D0FB6F894DEBF0FBE4B
S11316B0CDBFED01089510E0C6E3D0E004C0FE0103
S11316C00E946B082196C833D107C9F7F894FFCF5D
S11316D00A20427574746F6E20697320707265738A
S11316E07365643A200050574D2074696D6572200B
S11316F06E6F77206F6666210A0050574D2074691B
S11317006D6572206E6F77206F6E210A00546865D4
S1131710206D6F746F72206973206E6F7720646917
S11317207361626C6564210A00546865206D6F748E
S11317306F72206973206E6F7720656E61626C65CD
S113174064210A000A2072756E5F50574D20656C43
S113175061707365643A20000A20696E69742041DF
S113176044433A20000A52657175697265642069C0
S11317706E74657272757470732028636F6E7374FF
S113178072756374293A2000256C7500256C642EEB
S1131790256C64000A2054696D6572203020696EDE
S11317A06974696174656420000A2054696D657206
S11317B0203120696E6974696174656420000A20AF
S11317C054696D6572203220696E6974696174654B
S11317D06420000A54696D657220646573747275BF
S11317E063746F722063616C6C6564210A000A2063
S11317F054696D65722032206F6E3A20000A2054BD
S1131800696D65722032206F66663A20000A207284
S1131810657175697265645F696E746572727570FD
S10F18207473203D20307830302000002C
S9030000FC
