S01200006B6F642062696C2076322E73726563B5
S11300000C9477000C949F000C949F000C94AC0308
S11300100C949F000C949F000C949F000C949F00E0
S11300200C949F000C949F000C949F000C947C03F0
S11300300C949F000C949F000C949F000C949F00C0
S11300400C944C030C949F000C949F000C949F0000
S11300500C949F000C949F000C949F000C949F00A0
S11300600C949F000C949F0007634236B79BD8A75B
S11300701A39685618AEBAAB558C1D3CB7CC5763C9
S1130080BD6DEDFD753EF6177231BF000000803F77
S113009008000000BE922449123EABAAAA2ABECD93
S11300A0CCCC4C3E00000080BEABAAAAAA3E000005
S11300B00000BF000000803F0000000000084178FD
S11300C0D3BB4387D1133D190E3CC3BD4282AD2B34
S11300D03E68EC8276BED98FE1A93E4C80EFFFBE2C
S11300E001C4FF7F3F00000000003E0345031124CC
S11300F01FBECFEFD8E0DEBFCDBF11E0A0E0B1E07E
S1130100ECEBFFE102C005900D92A630B107D9F7E0
S113011022E0A6E0B1E001C01D92AA3AB207E1F7DD
S113012010E0C6E7D0E004C02197FE010E94E10C74
S1130130C537D107C9F70E94D8030C94D10F0C948A
S11301400000FC011082128211821382683080F454
S113015083E090E09283818360832BB181E090E01F
S1130160062E02C0880F991F0A94E2F7822B8BB9DE
S113017081E090E0928381836850608325B102C05E
S1130180880F991F6A95E2F7822B85B90895FC01BF
S1130190218132812130310561F423B130E0A9019C
S11301A0008002C0559547950A94E2F7CA01817010
S11301B008952330310569F429B130E0A901FC0127
S11301C0008002C0559547950A94E2F7CA018170F0
S11301D0089580E00895FC017894818192818130B2
S11301E0910599F4A8E6B0E08C9181608C93ABE61C
S11301F0B0E02C9181E090E0008002C0880F991F4C
S11302000A94E2F7822B8C9314C0039791F4A8E626
S1130210B0E08C9184608C93ADE6B0E02C9181E0E9
S113022090E0008002C0880F991F0A94E2F7822BA5
S11302308C9381E083830895FC01108212821182E1
S113024013821482158216821782108611861286F2
S113025013861486158616861786108A118A128AC2
S1130260138A148A158A168A178A108E118E128E92
S1130270138E148E158E168E178E10A211A212A232
S113028013A214A215A216A217A210A611A612A6B2
S113029013A614A615A616A617A610AA11AA12AA82
S11302A014AA15AA16AA17AA10AE11AE12AE13AE4E
S11302B014AE15AE16AE17AEE05CFF4F108211827D
S11302C0128213820895FC01108212821182138219
S11302D0148215821682178210861186128613865E
S11302E01486158616861786108A118A128A138A2E
S11302F0148A158A168A178A108E118E128E138EFE
S1130300148E158E168E178E10A211A212A213A28D
S113031014A215A216A217A210A611A612A613A61D
S113032014A615A616A617A610AA11AA12AA83E047
S113033090E094AB83AB15AA16AA17AA10AE11AE1F
S113034012AE13AE14AE16AE15AEDF01DF961196E3
S11303501C921E9212961C92EE5BFF4F1082118229
S1130360128213820895019709F062C06F3F7F4F94
S113037009F05EC0E0EAF2E0108212821182138278
S11303801482158281E08187E4E9F2E0108212820E
S11303901182138214821582E0E9F2E01082128243
S11303A0118213828CE492E00E941C0188E092E0A6
S11303B00E941C0184EC91E00E941C018DE791E0F5
S11303C00E94630186E391E00E946301E6E0F1E0AC
S11303D0108211821282138214821582168217826D
S11303E0108611861286138614861586168617863D
S11303F0108A118A128A138A148A158A168A178A0D
S1130400108E118E128E138E148E158E168E178EDC
S113041010A211A212A213A214A215A216A217A22C
S113042010A611A612A613A614A615A616A617A6FC
S11304300895CF93DF9300D000D0CDB7DEB7682FF7
S1130440CE0101960E94A10069817A818B819C81F1
S11304500F900F900F900F90DF91CF910895CF934D
S1130460DF93EC010E94DB03CE01DF91CF9108956D
S1130470CF93DF93EC010E949805CE01DF91CF91D9
S11304800895CF93DF93EC010E941606CE01DF910D
S1130490CF910895CF93DF93EC010E941606CE010D
S11304A0DF91CF910895CF93DF93EC010E9416065C
S11304B0CE01DF91CF9108950F93CF93DF93CDB702
S11304C0DEB7CD55D1090FB6F894DEBF0FBECDBF50
S11304D0789481E085BD89E08093810080E091E09B
S11304E0909389008093880019821A821B821C824F
S11304F01D821E821F82188619861A861B861C86F8
S11305001D861E861F86188A198A1A8A1B8A1C8AC7
S11305101D8A1E8A1F8A188E198E1A8E1B8E1C8E97
S11305201D8E1E8E1F8E18A219A21AA21BA21CA217
S11305301DA21EA21FA218A619A61AA61BA61CA6B7
S11305401DA61EA61FA618AA80E3FE013196A6E0EA
S1130550B1E001900D928A95E1F789E00E941902B9
S1130560609390027093910280939202909393020D
S113057080E992E00E94EB0065E0CE01885B9F4F2A
S11305800E942F028AE0FE01E85BFF4FA0EAB2E07E
S113059001900D928A95E1F766E0CE018E5A9F4F45
S11305A00E9438028CE0FE01EE5AFF4FA4E9B2E04B
S11305B001900D928A95E1F705E020E030E040E2F9
S11305C051E461E070E0CE0101960E94B10787E436
S11305D0FE013196ADE7B1E001900D928A95E1F705
S11305E006E020E030E040EA51E460E070E0CE0153
S11305F001960E94B10787E4FE013196A6E3B1E0BB
S113060001900D928A95E1F761E0CE0101960E9476
S1130610410284E4FE013196ACE4B2E001900D9213
S11306208A95E1F760E0CE0101960E944A0284E4D3
S1130630FE013196A8E0B2E001900D928A95E1F7AF
S113064062E0CE0101960E94530284E4FE013196D9
S1130650A4ECB1E001900D928A95E1F78AB180682B
S11306608AB90E943407C35ADF4F0FB6F894DEBF2D
S11306700FBECDBFDF91CF910F9108956FEF7FEF44
S113068081E090E00E94B30108956FEF7FEF80E076
S113069090E00E94B30108951F920F920FB60F923B
S11306A011242F933F934F935F936F937F938F9373
S11306B09F93AF93BF93EF93FF9386E391E00E94E0
S11306C00B0986E391E00E94F508882321F086E374
S11306D091E00E947708FF91EF91BF91AF919F91B4
S11306E08F917F916F915F914F913F912F910F90D7
S11306F00FBE0F901F9018951F920F920FB60F9276
S113070011242F933F934F935F936F937F938F9312
S11307109F93AF93BF93EF93FF938DE791E00E9474
S11307200B098DE791E00E94DD08882321F08DE715
S113073091E00E942708FF91EF91BF91AF919F91A3
S11307408F917F916F915F914F913F912F910F9076
S11307500FBE0F901F9018951F920F920FB60F9215
S113076011242F933F934F935F936F937F938F93B2
S11307709F93AF93BF93EF93FF9380E992E00E941E
S1130780C700882321F080EA92E00E944A04FF9186
S1130790EF91BF91AF919F918F917F916F915F91F5
S11307A04F913F912F910F900FBE0F901F9018956E
S11307B00E945C02FFCFFC0110821282118213821C
S11307C01482158281E08187683080F483E090E0B0
S11307D09283818360832AB181E090E002C0880F14
S11307E0991F6A95E2F7822B8AB910C06850663067
S11307F068F481E090E092838183608324B102C035
S1130800880F991F6A95E2F7822B84B981E0868369
S113081082E090E0908787830895FC018181928132
S11308208130910581F495B121E030E0008002C06F
S1130830220F331F0A94E2F781E0232B09F080E0B2
S1130840892385B911C0039779F49BB121E030E085
S1130850008002C0220F331F0A94E2F781E0232BA9
S113086009F080E089238BB914820895FC0191E09A
S1130870938382E080936F009093C30194830895DF
S1130880FC01138210926F001092C30114820E9423
S11308900D040895FC012481222319F00E944004D0
S11308A008950E94360408958BB180688BB98BB18A
S11308B08BB908958BB18BB98BB18F778BB90895B0
S11308C0FC019185992321F0CF010E9454040895DD
S11308D0911103C0CF010E945A040895CF93DF936E
S11308E0EC0189819A818130910561F425B181E01F
S11308F090E0088002C0880F991F0A94E2F7822BC7
S113090085B90DC0039759F42BB181E090E00880BC
S113091002C0880F991F0A94E2F7822B8BB9CE018B
S11309200E94600481E08C83DF91CF9108954F92FF
S11309305F926F927F928F929F92AF92BF92CF926B
S1130940DF92EF92FF92CF93DF93EC0188A499A4F6
S1130950AAA4BBA4CCA4DDA4EEA4FFA4A701960181
S1130960C501B4010E9492098823E9F04C805D809E
S11309706E807F80A3019201C701B6010E94920993
S113098088232CF4CC82DD82EE82FF820CC0A3018A
S11309909201C501B4010E94EA0A181624F48C825B
S11309A09D82AE82BF82DF91CF91FF90EF90DF9066
S11309B0CF90BF90AF909F908F907F906F905F90FB
S11309C04F9008954F925F926F927F928F929F9271
S11309D0AF92BF92CF92DF92EF92FF92CF93DF93C9
S11309E000D000D000D0CDB7DEB79E838D83DC016C
S11309F050968D919D910D90BC91A02D89839A83E1
S1130A00AB83BC83ED81FE8120813181428153819E
S1130A10BC01CD010E9425096B017C01AD81BE8121
S1130A2018966D937D938D939C931B9790962D911F
S1130A303D914D915C9193970E9426092B013C01B5
S1130A40ED81FE8160A371A382A393A324853585E0
S1130A5046855785C701B6010E9425094B015C01F3
S1130A60AD81BE8194966D937D938D939C9397975E
S1130A7054962D913D914D915C915797C701B601C4
S1130A800E94EF0A9B01AC0169817A818B819C8170
S1130A900E9426096B017C01ED81FE81208D318D40
S1130AA0428D538DC301B2010E94EF0A9B01AC0138
S1130AB0C701B6010E9426096B017C01AD81BE818C
S1130AC05C962D913D914D915C915F97C501B40168
S1130AD00E94EF0A9B01AC01C701B6010E942609DE
S1130AE0ED81FE816483758386839783CF010E94A1
S1130AF09704ED81FE8180859185A285B3858487E5
S1130B009587A687B78726960FB6F894DEBF0FBEE3
S1130B10CDBFDF91CF91FF90EF90DF90CF90BF904A
S1130B20AF909F908F907F906F905F904F900895BB
S1130B30FC011082128211821382148215826830A1
S1130B4080F483E090E09283818360832AB181E022
S1130B5090E002C0880F991F6A95E2F7822B8AB948
S1130B6010C0693070F481E090E092838183685012
S1130B70608324B102C0880F991F6A95E2F7822B23
S1130B8084B9168282E0878382E090E0918780872F
S1130B90938782870895FC01818192818130910538
S1130BA061F425B181E090E0008002C0880F991FB4
S1130BB00A94E2F7822B85B90DC0039759F42BB13F
S1130BC081E090E0008002C0880F991F0A94E2F748
S1130BD0822B8BB981E084830895FC018181928109
S1130BE0019779F495B121E030E0008002C0220F32
S1130BF0331F0A94E2F781E0232B09F080E0892374
S1130C0085B981819281039779F49BB121E030E029
S1130C10008002C0220F331F0A94E2F781E0232BE5
S1130C2009F080E089238BB914820895FC011282B3
S1130C3011821382148215821682178210861186FD
S1130C40128613861486158616861786108A118ACC
S1130C50128A138A148A158A168A178A108E118E9C
S1130C60128E138E148E158E168E178E10A211A24C
S1130C7012A213A214A215A216A217A210A611A6BC
S1130C8012A613A614A615A616A617A610AA11AA8C
S1130C9012AA14AA15AA16AA17AA10AE11AE12AE59
S1130CA013AE14AE15AE16AE17AEDC01A05CBF4F8A
S1130CB01D921D921D921C92139760830895CF93E9
S1130CC0DF93EC016CA97DA98EA99FA920E030E0F7
S1130CD040EA52E40E94970920E030E044EB52E4F9
S1130CE00E94EF0A6CAF7DAF8EAF9FAF68AD79AD58
S1130CF08AAD9BAD20E030E040EA52E40E949709BF
S1130D0020E030E044EB52E40E94EF0AC05CDF4F85
S1130D10688379838A839B83DF91CF9108950F93AE
S1130D201F93CF93DF93EC016CA97DA98EA99FA992
S1130D300E94090A606460937C0087EC80937A00C7
S1130D4080917A0084FFFCCF0AE710E080E1F8018B
S1130D508083609178007091790080E090E00E9437
S1130D60380A6CAB7DAB8EAB9FAB68AD79AD8AAD09
S1130D709BAD0E94090A606460937C0087ECF801D3
S1130D80808380917A0084FFFCCF80E180937A0095
S1130D90609178007091790080E090E00E94380AB8
S1130DA068AF79AF8AAF9BAFCE010E945F066B89B3
S1130DB07C898D899E892CAD3DAD4EAD5FAD0E9481
S1130DC02609FE01E05CFF4F20813181428153817D
S1130DD00E9425096B837C838D839E83DF91CF9151
S1130DE01F910F910895FC018081806480937C00A1
S1130DF087EC80937A0080917A0084FFFCCF80E1B5
S1130E0080937A00609178007091790080E090E09E
S1130E100E94380A20E030E040EA5BE30E94EF0AD7
S1130E202DED34E246E95FEB0E945C0B2DE637EED4
S1130E304FEE51E40E94EF0A0E94090ACB0160328E
S1130E40F3E07F0720F46536710520F0089580E211
S1130E5093E0089584E690E008959091C00095FF92
S1130E60FCCF8093C600089588E08093C10086E09B
S1130E708093C20087E690E09093C5008093C400FD
S1130E808DE08093C6000895EF92FF920F931F9315
S1130E90CF93DF937C01C0E0D0E087010C0F1D1FCE
S1130EA0F8018081882359F00E942D07F801808180
S1130EB08A3019F48DE00E942D072196EECFDF9140
S1130EC0CF911F910F91FF90EF9008950F931F936F
S1130ED0CF93DF93CDB7DEB7E2970FB6F894DEBFBA
S1130EE00FBECDBF19829F938F937F936F9380E042
S1130EF091E09F938F938E010F5F1F4F1F930F936A
S1130F000E94E70CC8010E9444070FB6F894DEBFA4
S1130F100FBECDBFE2960FB6F894DEBF0FBECDBFB5
S1130F20DF91CF911F910F9108957894FC0183A9CB
S1130F3094A9009719F481E085BD08958130910545
S1130F4051F489E08093810080E091E090938900DE
S1130F50809388000895029719F481E08093B1008A
S1130F600895EF92FF920F93CF93DF93EC01DB018F
S1130F70CA01B90118821A8219821B821C821D823D
S1130F801E821F82188619861A861B861C861D8659
S1130F901E861F86188A198A1A8A1B8A1C8A1D8A29
S1130FA01E8A1F8A188E198E1A8E1B8E1C8E1D8EF9
S1130FB01E8E1F8E18A219A21AA21BA21CA21DA269
S1130FC01EA21FA218A619A61AA61BA61CA61DA619
S1130FD01EA61FA618AA19AA1AAA1DAA1EAA1FAAE3
S1130FE018AE19AE1AAE1BAE1CAE1EAE1DAEFE017F
S1130FF0FF9611821082AE014F5B5F4F7E0122E4A7
S1131000E20EF11CF7011082118212821382BCAB32
S1131010ABABFA0100832FE632E143E85CE30E94C4
S1131020970920E030E040E05FE30E9426090E9437
S1131030090AF7016083718382839383CE010E943E
S11310409507DF91CF910F91FF90EF900895CF9284
S1131050DF92EF92FF92CF93DF93FC01EA5BFF4FA5
S113106020812223E9F1EC018CE492E00E94F30652
S11310706C01E12CF12CC701B6010E946607C7017F
S1131080B6010E94380A20E030EC4FE754E40E9495
S113109097096B017C01FE01EE5BFF4F608171815A
S11310A0828193810E94380A9B01AC01C701B60179
S11310B00E94EF0A20E030E040E05FE30E9426094E
S11310C00E94090A69AF7AAF8BAF9CAF1EAE1DAE0A
S11310D01DAA1EAA1FAA18AE80EA92E00E946E04FE
S11310E0DF91CF91FF90EF90DF90CF900895CF9351
S11310F0DF93EC018CE492E00E948F06CE0103960C
S11311000E94E204FE01FF96118210821DAA1EAA0B
S11311101FAA18AE84E992E00E94CB05DF91CF911B
S113112008950F931F93FC0125AD36AD232B01F5D4
S113113021E030E036AF25AFEE5BFF4F40815181B7
S113114062817381FC0101AD12AD23AD34AD401B4E
S1131150510B620B730B41AF52AF63AF74AF15AA5F
S113116016AA17AA10AE80EA92E00E940D0402C0EB
S11311700E9427081F910F910895FC01FF9620817A
S11311803181232BB9F421E030E03183208333967D
S11311904081518162817381FC0141AF52AF63AFE1
S11311A074AF15AA16AA17AA10AE84E992E00E9499
S11311B0ED0508950E94770808950F931F93FC018D
S11311C005A916A927A930AD41AD52AD63AD74ADE3
S11311D0041715072607370720F00E94910881E0BD
S11311E001C080E01F910F9108950F931F93FC019C
S11311F005A916A927A930AD41AD52AD63AD74ADB3
S1131200041715072607370710F00E94BD0880E071
S11312101F910F910895FC01EA5BFF4F2081222367
S113122071F0FC0145A956A967A970AD4F5F5F4FE6
S11312306F4F7F4F45AB56AB67AB70AF0895FC0162
S113124015AA16AA17AA10AE08955058BB27AA27A4
S11312500E943D090C94B00A0E94A20A38F00E9430
S1131260A90A20F039F49F3F19F426F40C949F0A3C
S11312700EF4E095E7FB0C94990AE92F0E94C10A49
S113128058F3BA17620773078407950720F079F4B7
S1131290A6F50C94E30A0EF4E0950B2EBA2FA02DBC
S11312A00B01B90190010C01CA01A0011124FF270F
S11312B0591B99F0593F50F4503E68F11A16F0400A
S11312C0A22F232F342F4427585FF3CF4695379509
S11312D02795A795F0405395C9F77EF41F16BA0BCE
S11312E0620B730B840BBAF09150A1F0FF0FBB1F7C
S11312F0661F771F881FC2F70EC0BA0F621F731FC5
S1131300841F48F4879577956795B795F7959E3F21
S113131008F0B0CF9395880F08F09927EE0F9795B2
S1131320879508950E94750A08F481E008950E9443
S1131330AB090C94B00A0E94A90A58F00E94A20AB0
S113134040F029F45F3F29F00C94990A51110C9450
S1131350E40A0C949F0A0E94C10A68F39923B1F32A
S1131360552391F3951B550BBB27AA2762177307C7
S1131370840738F09F5F5F4F220F331F441FAA1F5B
S1131380A9F335D00E2E3AF0E0E832D09150504017
S1131390E695001CCAF72BD0FE2F29D0660F771FC5
S11313A0881FBB1F261737074807AB07B0E809F0AB
S11313B0BB0B802DBF01FF2793585F4F3AF09E3F30
S11313C0510578F00C94990A0C94E40A5F3FE4F315
S11313D0983ED4F3869577956795B795F7959F5F73
S11313E0C9F7880F911D9695879597F90895E1E0BF
S11313F0660F771F881FBB1F621773078407BA071E
S113140020F0621B730B840BBA0BEE1F88F7E09578
S113141008950E94C90A88F09F5798F0B92F992718
S1131420B751B0F0E1F0660F771F881F991F1AF0CB
S1131430BA95C9F714C0B13091F00E94E30AB1E043
S113144008950C94E30A672F782F8827B85F39F042
S1131450B93FCCF3869577956795B395D9F73EF464
S113146090958095709561957F4F8F4F9F4F08950C
S1131470E89409C097FB3EF490958095709561952A
S11314807F4F8F4F9F4F9923A9F0F92F96E9BB27E0
S11314909395F695879577956795B795F111F8CF5C
S11314A0FAF4BB0F11F460FF1BC06F5F7F4F8F4FC7
S11314B09F4F16C0882311F096E911C0772321F0BD
S11314C09EE8872F762F05C0662371F096E8862F55
S11314D070E060E02AF09A95660F771F881FDAF7AC
S11314E0880F9695879597F90895990F0008550FD9
S11314F0AA0BE0E8FEEF16161706E807F907C0F096
S113150012161306E407F50798F0621B730B840B9D
S1131510950B39F40A2661F0232B242B252B21F477
S113152008950A2609F4A140A6958FEF811D811D17
S1131530089597F99F6780E870E060E008959FEF51
S113154080EC089500240A94161617061806090656
S1131550089500240A941216130614060506089525
S1131560092E0394000C11F4882352F0BB0F40F4AD
S1131570BF2B11F460FF04C06F5F7F4F8F4F9F4FED
S1131580089557FD9058440F551F59F05F3F71F06F
S11315904795880F97FB991F61F09F3F79F08795D6
S11315A00895121613061406551FF2CF4695F1DF5F
S11315B008C0161617061806991FF1CF86957105EF
S11315C0610508940895E894BB2766277727CB0123
S11315D097F908950E94750A08F48FEF08950E9400
S11315E0020B0C94B00A0E94A20A38F00E94A90AC5
S11315F020F0952311F00C94990A0C949F0A11245D
S11316000C94E40A0E94C10A70F3959FC1F3950FEC
S113161050E0551F629FF001729FBB27F00DB11D72
S1131620639FAA27F00DB11DAA1F649F6627B00D02
S1131630A11D661F829F2227B00DA11D621F739FEB
S1131640B00DA11D621F839FA00D611D221F749FF9
S11316503327A00D611D231F849F600D211D822F40
S1131660762F6A2F11249F5750409AF0F1F0882367
S11316704AF0EE0FFF1FBB1F661F771F881F915094
S11316805040A9F79E3F510580F00C94990A0C94A0
S1131690E40A5F3FE4F3983ED4F386957795679523
S11316A0B795F795E7959F5FC1F7FE2B880F911DBE
S11316B09695879597F90895FA01EE0FFF1F3096D6
S11316C021053105A1F16115710561F48038BFE38D
S11316D09B0749F168949038810561F08038BFEF29
S11316E09B0741F099234AF5FF3FE10531052105A8
S11316F019F1E8940894E795D901AA2329F4AB2FAA
S1131700BE2FF85FD0F310C0FF5F70F4A695E0F72A
S1131710F73950F019F0FF3A38F49F779F930DD0C2
S11317200F9007FC9058089546F00C949F0A60E0CF
S113173070E080E89FE308954FE79F775F934F93AE
S11317403F932F930E94570C2F913F914F915F919C
S11317500E94EF0A0C94B40B29F416F00C94990A25
S11317600C94E30A0C949F0A0E94C90AA8F39638C1
S1131770A0F707F80F92E8942BE33AEA48EB5FE707
S11317800E94050B0F920F920F924DB75EB70F9206
S11317900E949F0CE8E6F0E00E94E60B4F915F91F7
S11317A0EF91FF91E595EE1FFF1F49F0FE57E068AA
S11317B04427EE0F441FFA95E1F74195550B0E941B
S11317C0190C0F9007FE0C940D0C0895DF93CF9322
S11317D01F930F93FF92EF92DF927B018C01689429
S11317E006C0DA2EEF010E94020BFE01E894A591D7
S11317F02591359145915591A6F3EF010E943D093C
S1131800FE019701A801DA9469F7DF90EF90FF9049
S11318100F911F91CF91DF9108959B01AC0160E07E
S113182070E080E89FE30C9497090C94990A0C9457
S1131830D30C0E94C90AD8F39923C9F3940F511DFC
S1131840A3F39150504094F059F0882332F0660F7E
S1131850771F881F91505040C1F79E3F51052CF7C8
S1131860880F911D9695879597F908955F3FACF081
S1131870983E9CF0BB27869577956795B79508F4B5
S1131880B1609395C1F7BB0F58F711F460FFE8CF2F
S11318906F5F7F4F8F4F9F4FE3CF0C94E40A16F096
S11318A00C94D30C0C949F0A68940C94990A0E948B
S11318B0C90AA8F39923C1F3AEF3DF93CF931F931F
S11318C00F93FF92C92FDD2788232AF02197660FF3
S11318D0771F881FDAF720E030E040E85FEB9FE3F2
S11318E0883920F0803E38F021968F770E942609AF
S11318F0E0E9F0E004C00E942609EDEBF0E00E946C
S1131900E60B8B01BE01EC01FB2E6F577109759537
S1131910771F880B990B0E943A0A28E132E741E3CA
S11319205FE30E94020BAF2D9801AE01FF900F916F
S11319301F91CF91DF910E943D090C94B00AFA01E6
S1131940DC01AA0FBB1F9B01AC01BF5728F422275F
S113195033274427507820C0B75190F4AB2F00248C
S1131960469537952795011CA395D2F3002071F075
S1131970220F331F441FB395DAF30ED00C942509BC
S113198061307105A0E88A07B94630F49B01AC01C7
S11319906627772788279078309621F02083318333
S11319A04283538308959F3F31F0915020F48795EB
S11319B077956795B795880F911D9695879597F9B3
S11319C00895EE0FFF1F0590F491E02D0994AEE009
S11319D0B0E0EDEEFCE00C94A80F0D891E8986E0C2
S11319E08C831A8309838FEF9FE79E838D83AE01D7
S11319F0475E5F4F6F89788DCE0101960E94090D75
S1131A00EF81F885E00FF11F10822E96E4E00C942C
S1131A10C40FABE0B0E0EFE0FDE00C949A0F6C0172
S1131A207B018A01FC0117821682838181FFCCC16C
S1131A30CE0101963C01F6019381F70193FD859156
S1131A4093FF81917F01882309F4BAC1853239F467
S1131A5093FD859193FF81917F01853229F4B6012D
S1131A6090E00E94000FE7CF912C212C312CFFE154
S1131A70F315D8F08B3279F038F4803279F0833270
S1131A80A1F4232D20611DC08D3261F0803369F4EF
S1131A90232D216016C0832D8260382EE32DE4604F
S1131AA03E2E2AC0F32DF8601DC037FC2DC020ED5A
S1131AB0280F2A3040F08E32B9F436FC81C1232D30
S1131AC02064322E19C036FE06C08AE0989E200D8E
S1131AD01124922E11C0EAE02E9E200D1124222EF4
S1131AE0F32DF0623F2E08C08C3621F4832D8068DC
S1131AF0382E02C0883641F4F70193FD859193FF97
S1131B0081917F018111B3CF982F9F7D955493309C
S1131B1028F40C5F1F4F9FE399830DC0833631F087
S1131B20833771F0833509F059C021C0F8018081F1
S1131B3089830E5F1F4F88248394912C530113C013
S1131B402801F2E04F0E511CF801A080B18036FE4E
S1131B5003C0692D70E002C06FEF7FEFC5010E94E2
S1131B60F50E4C018201F32DFF773F2E16C028019C
S1131B7022E0420E511CF801A080B18036FE03C061
S1131B80692D70E002C06FEF7FEFC5010E94EA0E7D
S1131B904C01F32DF0683F2E820133FC1BC0822DD3
S1131BA090E088169906B0F4B60180E290E00E94B5
S1131BB0000F2A94F4CFF50137FC859137FE81910B
S1131BC05F01B60190E00E94000F21102A9421E0E9
S1131BD0821A91088114910471F7E8C0843611F0D7
S1131BE0893641F5F80137FE07C060817181828131
S1131BF093810C5F1F4F08C060817181072E000C18
S1131C00880B990B0E5F1F4FF32DFF763F2E97FF26
S1131C1009C090958095709561957F4F8F4F9F4F28
S1131C20F0683F2E2AE030E0A3010E943C0F882E8A
S1131C30861845C0853731F4232D2F7EB22E2AE035
S1131C4030E025C0932D997FB92E8F36C1F018F45A
S1131C50883579F0B5C0803719F0883721F0B0C0E5
S1131C60E92FE061BE2EB4FE0DC0FB2DF460BF2E43
S1131C7009C034FE0AC0292F2660B22E06C028E00F
S1131C8030E005C020E130E002C020E132E0F8019C
S1131C90B7FE07C060817181828193810C5F1F4F01
S1131CA006C06081718180E090E00E5F1F4FA30148
S1131CB00E943C0F882E8618FB2DFF773F2E36FEA0
S1131CC00DC0232D2E7FA22E891458F434FE0BC090
S1131CD032FC09C0832D8E7EA82E05C0B82CA32CFF
S1131CE003C0B82C01C0B92CA4FE0FC0FE01E80D3E
S1131CF0F11D8081803321F49A2D997EA92E09C08B
S1131D00A2FE06C0B394B39404C08A2D867809F069
S1131D10B394A3FC11C0A0FE06C0B21488F4280C2E
S1131D20922C9B180EC0B21460F4B60180E290E0CD
S1131D300E94000FB394F7CFB21418F42B1802C00A
S1131D40982C212CA4FE10C0B60180E390E00E94E0
S1131D50000FA2FE17C0A1FC03C088E790E002C0F8
S1131D6088E590E0B6010CC08A2D867859F0A1FE72
S1131D7002C08BE201C080E2A7FC8DE2B60190E0D4
S1131D800E94000F891438F4B60180E390E00E94A9
S1131D90000F9A94F7CF8A94F301E80DF11D808126
S1131DA0B60190E00E94000F8110F5CF222009F4C3
S1131DB042CEB60180E290E00E94000F2A94F6CF52
S1131DC0F6018681978102C08FEF9FEF2B96E2E1A7
S1131DD00C94B60FFC010590615070400110D8F7C7
S1131DE0809590958E0F9F1F0895FC01615070405F
S1131DF001900110D8F7809590958E0F9F1F08953C
S1131E000F931F93CF93DF93FB01238121FD03C025
S1131E108FEF9FEF2CC022FF16C04681578124818B
S1131E2035814217530744F4A081B1819D012F5F8E
S1131E303F4F318320838C93268137812F5F3F4F1F
S1131E403783268314C08B01EC01FB010084F185E8
S1131E50E02D0995892BE1F6D80116968D919C9178
S1131E601797019617969C938E931697CE01DF9140
S1131E70CF911F910F910895FA01AA27283051F1AB
S1131E80203181F1E8946F936E7F6E5F7F4F8F4FA7
S1131E909F4FAF4FB1E03ED0B4E03CD0670F781F06
S1131EA0891F9A1FA11D680F791F8A1F911DA11DEB
S1131EB06A0F711D811D911DA11D20D009F4689424
S1131EC03F912AE0269F11243019305D3193DEF6CC
S1131ED0CF010895462F4770405D4193B3E00FD082
S1131EE0C9F7F6CF462F4F70405D4A3318F0495D6D
S1131EF031FD4052419302D0A9F7EACFB4E0A69550
S1131F009795879577956795BA95C9F70097610571
S1131F10710508959B01AC010A2E069457954795C7
S1131F2037952795BA95C9F7620F731F841F951FBC
S1131F30A01D08952F923F924F925F926F927F92CD
S1131F408F929F92AF92BF92CF92DF92EF92FF92C5
S1131F500F931F93CF93DF93CDB7DEB7CA1BDB0B71
S1131F600FB6F894DEBF0FBECDBF09942A88398816
S1131F7048885F846E847D848C849B84AA84B9841D
S1131F80C884DF80EE80FD800C811B81AA81B98129
S1131F90CE0FD11D0FB6F894DEBF0FBECDBFED013D
S1131FA0089510E0C6E7D0E004C0FE010E94E10CF1
S10F1FB02196C737D107C9F7F894FFCF7A
S1091FBC256C75200000F5
S9030000FC
