S01200006B6F642062696C2076322E73726563B5
S11300000C9477000C949F000C949F000C946C0348
S11300100C949F000C949F000C949F000C949F00E0
S11300200C949F000C949F000C949F000C943C0330
S11300300C949F000C949F000C949F000C949F00C0
S11300400C940C030C949F000C949F000C949F0040
S11300500C949F000C949F000C949F000C949F00A0
S11300600C949F000C949F0007634236B79BD8A75B
S11300701A39685618AEBAAB558C1D3CB7CC5763C9
S1130080BD6DEDFD753EF6177231BF000000803F77
S113009008000000BE922449123EABAAAA2ABECD93
S11300A0CCCC4C3E00000080BEABAAAAAA3E000005
S11300B00000BF000000803F0000000000084178FD
S11300C0D3BB4387D1133D190E3CC3BD4282AD2B34
S11300D03E68EC8276BED98FE1A93E4C80EFFFBE2C
S11300E001C4FF7F3F0000000000FE02050311244D
S11300F01FBECFEFD8E0DEBFCDBF11E0A0E0B1E07E
S1130100E6E0F1E202C005900D92AA3FB107D9F7EB
S113011023E0AAEFB1E001C01D92AE39B207E1F7C6
S113012010E0C6E7D0E004C02197FE010E94860DCE
S1130130C537D107C9F70E9498030C9476100C9424
S11301400000FC011082128211821382683080F454
S113015083E090E09283818360832BB181E090E01F
S1130160062E02C0880F991F0A94E2F7822B8BB9DE
S113017081E090E0928381836850608325B102C05E
S1130180880F991F6A95E2F7822B85B90895FC01BF
S1130190218132812130310561F423B130E0A9019C
S11301A0008002C0559547950A94E2F7CA01817010
S11301B008952330310569F429B130E0A901FC0127
S11301C0008002C0559547950A94E2F7CA018170F0
S11301D0089580E00895FC017894818192818130B2
S11301E0910599F4A8E6B0E08C9181608C93ABE61C
S11301F0B0E02C9181E090E0008002C0880F991F4C
S11302000A94E2F7822B8C9314C0039791F4A8E626
S1130210B0E08C9184608C93ADE6B0E02C9181E0E9
S113022090E0008002C0880F991F0A94E2F7822BA5
S11302308C9381E083830895FC01108212821182E1
S113024013821482158216821782108611861286F2
S113025013861486158616861786108A118A128AC2
S1130260138A148A158A168A178A108E118E128E92
S1130270138E148E158E168E178E10A211A212A232
S113028013A214A215A216A217A210A611A612A6B2
S113029013A614A615A616A617A610AA11AA12AA82
S11302A014AA15AA16AA17AA10AE11AE12AE13AE4E
S11302B014AE15AE16AE17AEE05CFF4F108211827D
S11302C0128213820895FC01108212821182138219
S11302D0148215821682178210861186128613865E
S11302E01486158616861786108A118A128A138A2E
S11302F0148A158A168A178A108E118E128E138EFE
S1130300148E158E168E178E10A211A212A213A28D
S113031014A215A216A217A210A611A612A613A61D
S113032014A615A616A617A610AA11AA12AA83E047
S113033090E094AB83AB15AA16AA17AA10AE11AE1F
S113034012AE13AE14AE16AE15AEDF01DF961196E3
S11303501C921E9212961C92EE5BFF4F1082118229
S1130360128213820895019709F062C06F3F7F4F94
S113037009F05EC0E4E9F3E0108212821182138274
S11303801482158281E08187E8E8F3E0108212820A
S11303901182138214821582E4E8F3E0108212823F
S11303A01182138280E493E00E941C018CEF92E09E
S11303B00E941C0188EB92E00E941C0181E792E0FC
S11303C00E9463018AE292E00E946301EAEFF1E095
S11303D0108211821282138214821582168217826D
S11303E0108611861286138614861586168617863D
S11303F0108A118A128A138A148A158A168A178A0D
S1130400108E118E128E138E148E158E168E178EDC
S113041010A211A212A213A214A215A216A217A22C
S113042010A611A612A613A614A615A616A617A6FC
S113043008958F929F92AF92BF92CF92DF92EF92E4
S1130440FF920F931F93CF93DF93CDB7DEB7C156BF
S1130450D1090FB6F894DEBF0FBECDBF789481E00A
S113046085BD89E08093810080E091E090938900CC
S1130470809388000F2EFDEC8F2EFCEC9F2EA92C70
S1130480FDE3BF2EF02D0F2EFAE0CF2EF7EDDF2E79
S1130490F3E2EF2EFCE3FF2EF02D00E010E020E865
S11304A03FE340E050E064EB72E4CE014B960E94DF
S11304B0A60480E3FE017B96AAEFB1E001900D92C1
S11304C08A95E1F769E0CE0147960E94A1008F89E1
S11304D0988DA98DBA8D8093840390938503A093FE
S11304E08603B093870384E893E00E94EB0065E001
S11304F0CE010D960E949B038AE0FE013D96A4E97D
S1130500B3E001900D928A95E1F766E0CE01019681
S11305100E949F058CE0FE013196A8E8B3E00190AB
S11305200D928A95E1F705E020E030E040E251E4E5
S113053061E070E0CE014B960E94320887E4FE0130
S11305407B96A1E7B2E001900D928A95E1F706E06F
S113055020E030E040EA51E460E070E0CE014B96E8
S11305600E94320887E4FE017B96AAE2B2E0019081
S11305700D928A95E1F761E0CE014B960E941D062B
S113058084E4FE017B96A0E4B3E001900D928A9589
S1130590E1F760E0CE014B960E941D0684E4FE0163
S11305A07B96ACEFB2E001900D928A95E1F762E0A0
S11305B0CE014B960E941D0684E4FE017B96A8EBB7
S11305C0B2E001900D928A95E1F78AB180688AB908
S11305D00E94B507CF59DF4F0FB6F894DEBF0FBEA8
S11305E0CDBFDF91CF911F910F91FF90EF90DF90DE
S11305F0CF90BF90AF909F908F9008956FEF7FEF53
S113060081E090E00E94B30108956FEF7FEF80E0F6
S113061090E00E94B30108951F920F920FB60F92BB
S113062011242F933F934F935F936F937F938F93F3
S11306309F93AF93BF93EF93FF938AE292E00E945C
S1130640B0098AE292E00E949809882321F08AE2A4
S113065092E00E94F208FF91EF91BF91AF919F91B8
S11306608F917F916F915F914F913F912F910F9057
S11306700FBE0F901F9018951F920F920FB60F92F6
S113068011242F933F934F935F936F937F938F9393
S11306909F93AF93BF93EF93FF9381E792E00E9400
S11306A0B00981E792E00E948009882321F081E764
S11306B092E00E94A808FF91EF91BF91AF919F91A2
S11306C08F917F916F915F914F913F912F910F90F7
S11306D00FBE0F901F9018951F920F920FB60F9296
S11306E011242F933F934F935F936F937F938F9333
S11306F09F93AF93BF93EF93FF9384E893E00E949B
S1130700C700882321F084E993E00E940E04FF913E
S1130710EF91BF91AF919F918F917F916F915F9175
S11307204F913F912F910F900FBE0F901F901895EE
S11307300E941902FFCFFC011082128211821382DF
S11307401482158281E08187683080F483E090E030
S11307509283818360832AB181E090E002C0880F94
S1130760991F6A95E2F7822B8AB910C068506630E7
S113077068F481E090E092838183608324B102C0B5
S1130780880F991F6A95E2F7822B84B981E08683EA
S113079082E090E0908787830895FC0181819281B3
S11307A08130910581F495B121E030E0008002C0F0
S11307B0220F331F0A94E2F781E0232B09F080E033
S11307C0892385B911C0039779F49BB121E030E006
S11307D0008002C0220F331F0A94E2F781E0232B2A
S11307E009F080E089238BB914820895FC0191E01B
S11307F0938390936E0082E080936F009093B7028E
S113080094830895FC01138210926F0010926E007D
S11308101092B70214820E94CD030895FC01248132
S1130820222319F00E94020408950E94F6030895F9
S11308308BB180688BB98BB18BB908958BB18BB9AF
S11308408BB18F778BB90895FC019185992321F0A1
S1130850CF010E9418040895911103C0CF010E9492
S11308601E040895CF93DF93EC0189819A8181302E
S1130870910561F425B181E090E0088002C0880F01
S1130880991F0A94E2F7822B85B90DC0039759F496
S11308902BB181E090E0088002C0880F991F0A9470
S11308A0E2F7822B8BB9CE010E94240481E08C8371
S11308B0DF91CF9108954F925F926F927F928F92C2
S11308C09F92AF92BF92CF92DF92EF92FF92CF931B
S11308D0DF93EC0188A499A4AAA4BBA4CCA4DDA4AE
S11308E0EEA4FFA4A7019601C501B4010E94370A32
S11308F08823E9F0488059806A807B80A3019201B3
S1130900C701B6010E94370A88232CF4C882D98211
S1130910EA82FB820CC0A3019201C501B4010E94CA
S11309208F0B181624F488829982AA82BB82DF91E5
S1130930CF91FF90EF90DF90CF90BF90AF909F90BA
S11309408F907F906F905F904F9008958F929F92B9
S1130950AF92BF92CF92DF92EF92FF920F931F93C9
S1130960CF93DF93CDB7DEB7FC01108211821282E0
S113097013821486158616861786108A118A128A9F
S1130980138A148A158A168A178A10A211A212A22F
S113099013A214A215A216A217A210A611A612A69B
S11309A013A614A615A616A617A644835583668314
S11309B077830087118722873387C08ED18EE28E9A
S11309C0F38E848E958EA68EB78EDF91CF911F9174
S11309D00F91FF90EF90DF90CF90BF90AF909F90DA
S11309E08F9008954F925F926F927F928F929F9211
S11309F0AF92BF92CF92DF92EF92FF92CF93DF93A9
S1130A00EC012C853D854E855F8560E070E084EBCC
S1130A1092E40E94CA096B017C01688B798B8A8BF2
S1130A209B8B68A379A38AA39BA32C893D894E89B8
S1130A305F890E94CA094B015C016CA37DA38EA34C
S1130A409FA3288539854A855B85C701B6010E9425
S1130A50940B20E030E044EB52E40E94CB092B01DC
S1130A603C01288D398D4A8D5B8DC701B6010E94EA
S1130A70940B9B01AC01C301B2010E94CB096B0131
S1130A807C012C8D3D8D4E8D5F8DC501B4010E947E
S1130A90940B9B01AC01C701B6010E94CB0968838A
S1130AA079838A839B8380E091E00E94C50782E377
S1130AB091E00E94C5076AE570E080E090E00E9442
S1130AC0E7076C857D858E859F850E94AE0A0E940E
S1130AD0E70768A179A18AA19BA10E94AE0A0E949E
S1130AE0E7076CA17DA18EA19FA10E94AE0A0E947E
S1130AF0E707688179818A819B810E94AE0A0E94FE
S1130B00E70784E491E00E94C507CE010E945B04DC
S1130B1088899989AA89BB898C8B9D8BAE8BBF8B65
S1130B20DF91CF91FF90EF90DF90CF90BF90AF9087
S1130B309F908F907F906F905F904F900895FC01ED
S1130B40108212821182138214821582683080F41A
S1130B5083E090E09283818360832AB181E090E016
S1130B6002C0880F991F6A95E2F7822B8AB910C0D8
S1130B70693070F481E090E09283818368506083EF
S1130B8024B102C0880F991F6A95E2F7822B84B9B9
S1130B90168282E0878382E090E091878087938742
S1130BA082870895FC01818192818130910561F4ED
S1130BB025B181E090E0008002C0880F991F0A945B
S1130BC0E2F7822B85B90DC0039759F42BB181E06C
S1130BD090E0008002C0880F991F0A94E2F7822BEC
S1130BE08BB981E084830895FC018181928101970E
S1130BF079F495B121E030E0008002C0220F331F68
S1130C000A94E2F781E0232B09F080E0892385B977
S1130C1081819281039779F49BB121E030E00080D7
S1130C2002C0220F331F0A94E2F781E0232B09F05C
S1130C3080E089238BB914820895FC011282118209
S1130C4013821482158216821782108611861286E8
S1130C5013861486158616861786108A118A128AB8
S1130C60138A148A158A168A178A108E118E128E88
S1130C70138E148E158E168E178E10A211A212A228
S1130C8013A214A215A216A217A210A611A612A6A8
S1130C9013A614A615A616A617A610AA11AA12AA78
S1130CA014AA15AA16AA17AA10AE11AE12AE13AE44
S1130CB014AE15AE16AE17AEDC01A05CBF4F1D928C
S1130CC01D921D921C92139760830895CF93DF9316
S1130CD0EC016CA97DA98EA99FA920E030E040EA2F
S1130CE052E40E943C0A20E030E044EB52E40E94CB
S1130CF0940B6CAF7DAF8EAF9FAF68AD79AD8AAD0D
S1130D009BAD20E030E040EA52E40E943C0A20E03F
S1130D1030E044EB52E40E94940BC05CDF4F6883E4
S1130D2079838A839B83DF91CF9108950F931F93D7
S1130D30CF93DF93EC01142F606460937C0087EC05
S1130D4080937A0080917A0084FFFCCF80E18093C5
S1130D507A00609178007091790080E090E00E94C0
S1130D60DD0A20E030E040EA5BE30E94940B2DEDC5
S1130D7034E246E95FEB0E94010C2DE637EE4FEEBC
S1130D8051E40E94940B0E94AE0A80E090E00E941D
S1130D90DD0A6CAB7DAB8EAB9FAB20E030E040EA6C
S1130DA052E40E948F0B181644F480E090E0A0EA0D
S1130DB0B2E48CAB9DABAEABBFAB106410937C00C4
S1130DC087EC80937A0080917A0084FFFCCF80E1E5
S1130DD080937A00609178007091790080E090E0CF
S1130DE00E94DD0A20E030E040EA5BE30E94940BBD
S1130DF02DED34E246E95FEB0E94010C2DE637EE5F
S1130E004FEE51E40E94940B0E94AE0A80E090E001
S1130E100E94DD0A68AF79AF8AAF9BAF20E030E073
S1130E2040EA52E40E948F0B181644F480E090E0EC
S1130E30A0EAB2E488AF99AFAAAFBBAFCE010E94DB
S1130E4066066F81788589859A852CAD3DAD4EAD5A
S1130E505FAD0E94CB098E01005C1F4FF801208119
S1130E603181428153810E94CA096F87788B898BB3
S1130E709A8B8DE091E00E94C50787E791E00E947C
S1130E80C507F80160817181828193810E94AE0A55
S1130E900E94E7076CAD7DAD8EAD9FAD0E94AE0A9A
S1130EA00E94E7076F81788589859A850E94AE0A3A
S1130EB00E94E7076F85788989899A890E94AE0A1A
S1130EC00E94E70787E891E00E94C507DF91CF9170
S1130ED01F910F910895FC018081806480937C00B0
S1130EE087EC80937A0080917A0084FFFCCF80E1C4
S1130EF080937A00609178007091790080E090E0AE
S1130F000E94DD0A20E030E040EA5BE30E94940B9B
S1130F102DED34E246E95FEB0E94010C2DE637EE3D
S1130F204FEE51E40E94940B0E94AE0A9B01220FE3
S1130F30331F620F731F660F771F660F771FCB0176
S1130F406032F3E07F0720F46536710520F00895E0
S1130F5080E293E0089584E690E008959091C000C3
S1130F6095FFFCCF8093C600089588E08093C1006C
S1130F7086E08093C20087E690E09093C50080935A
S1130F80C4008DE08093C6000895EF92FF920F9302
S1130F901F93CF93DF937C01C0E0D0E087010C0F57
S1130FA01D1FF8018081882359F00E94AE07F801C3
S1130FB080818A3019F48DE00E94AE072196EECF2D
S1130FC0DF91CF911F910F91FF90EF9008950F93B0
S1130FD01F93CF93DF93CDB7DEB7E2970FB6F894A4
S1130FE0DEBF0FBECDBF19829F938F937F936F9304
S1130FF08EEA91E09F938F938E010F5F1F4F1F9393
S11310000F930E948C0DC8010E94C5070FB6F89477
S1131010DEBF0FBECDBFE2960FB6F894DEBF0FBEA3
S1131020CDBFDF91CF911F910F9108957894FC016A
S113103083A994A9009719F481E085BD08958130AE
S1131040910551F489E08093810080E091E09093D0
S11310508900809388000895029719F481E08093B1
S1131060B1000895EF92FF920F93CF93DF93EC01B9
S1131070DB01CA01B90118821A8219821B821C82FF
S11310801D821E821F82188619861A861B861C865C
S11310901D861E861F86188A198A1A8A1B8A1C8A2C
S11310A01D8A1E8A1F8A188E198E1A8E1B8E1C8EFC
S11310B01D8E1E8E1F8E18A219A21AA21BA21CA27C
S11310C01DA21EA21FA218A619A61AA61BA61CA61C
S11310D01DA61EA61FA618AA19AA1AAA1DAA1EAAE8
S11310E01FAA18AE19AE1AAE1BAE1CAE1EAE1DAEB4
S11310F0FE01FF9611821082AE014F5B5F4F7E01AD
S113110022E4E20EF11CF701108211821282138292
S1131110BCABABABFA0100832FE632E143E85CE3FE
S11311200E943C0A20E030E040E05FE30E94CB09EB
S11311300E94AE0AF7016083718382839383CE0198
S11311400E941608DF91CF910F91FF90EF900895C0
S1131150CF92DF92EF92FF92CF93DF93FC01EA5B91
S1131160FF4F20812223B9F1EC0180E493E00E9437
S11311706B07BC0180E090E00E94DD0A20E030ECC7
S11311804FE754E40E943C0A6B017C01FE01EE5BD4
S1131190FF4F60817181828193810E94DD0A9B01EE
S11311A0AC01C701B6010E94940B20E030E040E09E
S11311B05FE30E94CB090E94AE0A69AF7AAF8BAF9E
S11311C09CAF1EAE1DAE1DAA1EAA1FAA18AE84E9AE
S11311D093E00E943204DF91CF91FF90EF90DF9073
S11311E0CF900895CF93DF93EC0142E060E080E478
S11311F093E00E9496068AEF91E00E94F2046091C7
S1131200FA017091FB018091FC019091FD0120E0B5
S113121030E040E05FE30E94940B0E94AE0A69AFA5
S11312207AAF8BAF9CAF83EB91E00E94C50785EE4C
S113123091E00E94C50769AD7AAD8BAD9CAD0E946B
S1131240E70780E091E00E94C507FE01FF96118246
S113125010821DAA1EAA1FAA18AE88E893E00E9455
S1131260D205DF91CF9108950F931F93FC0125AD13
S113127036AD232B01F521E030E036AF25AFEE5B30
S1131280FF4F4081518162817381FC0101AD12AD38
S113129023AD34AD401B510B620B730B41AF52AF06
S11312A063AF74AF15AA16AA17AA10AE84E993E027
S11312B00E94CD0302C00E94A8081F910F910895B7
S11312C0FC01FF9620813181232BB9F421E030E029
S11312D03183208333964081518162817381FC0183
S11312E041AF52AF63AF74AF15AA16AA17AA10AED6
S11312F088E893E00E94F40508950E94F208089596
S11313000F931F93FC0105A916A927A930AD41AD80
S113131052AD63AD74AD041715072607370720F0E7
S11313200E94340981E001C080E01F910F9108956B
S11313300F931F93FC0105A916A927A930AD41AD50
S113134052AD63AD74AD041715072607370720F0B7
S11313500E94600981E001C080E01F910F9108950F
S1131360FC01EA5BFF4F2081222371F0FC0145A9B7
S113137056A967A970AD4F5F5F4F6F4F7F4F45AB65
S113138056AB67AB70AF0895FC0115AA16AA17AA4D
S113139010AE08955058BB27AA270E94E2090C9466
S11313A0550B0E94470B38F00E944E0B20F039F485
S11313B09F3F19F426F40C94440B0EF4E095E7FBDC
S11313C00C943E0BE92F0E94660B58F3BA17620780
S11313D073078407950720F079F4A6F50C94880B1D
S11313E00EF4E0950B2EBA2FA02D0B01B90190013C
S11313F00C01CA01A0011124FF27591B99F0593F80
S113140050F4503E68F11A16F040A22F232F342FC7
S11314104427585FF3CF469537952795A795F04015
S11314205395C9F77EF41F16BA0B620B730B840B2A
S1131430BAF09150A1F0FF0FBB1F661F771F881FE2
S1131440C2F70EC0BA0F621F731F841F48F487953A
S113145077956795B795F7959E3F08F0B0CF93952C
S1131460880F08F09927EE0F9795879508950E94A5
S11314701A0B08F481E008950E94500A0C94550B4D
S11314800E944E0B58F00E94470B40F029F45F3F36
S113149029F00C943E0B51110C94890B0C94440BC1
S11314A00E94660B68F39923B1F3552391F3951BBE
S11314B0550BBB27AA2762177307840738F09F5F71
S11314C05F4F220F331F441FAA1FA9F335D00E2EDE
S11314D03AF0E0E832D091505040E695001CCAF74B
S11314E02BD0FE2F29D0660F771F881FBB1F26170E
S11314F037074807AB07B0E809F0BB0B802DBF01E5
S1131500FF2793585F4F3AF09E3F510578F00C94B3
S11315103E0B0C94890B5F3FE4F3983ED4F386951D
S113152077956795B795F7959F5FC9F7880F911DD4
S11315309695879597F90895E1E0660F771F881FC0
S1131540BB1F621773078407BA0720F0621B730B73
S1131550840BBA0BEE1F88F7E09508950E946E0B7A
S113156088F09F5798F0B92F9927B751B0F0E1F060
S1131570660F771F881F991F1AF0BA95C9F714C010
S1131580B13091F00E94880BB1E008950C94880B5F
S1131590672F782F8827B85F39F0B93FCCF3869549
S11315A077956795B395D9F73EF4909580957095A6
S11315B061957F4F8F4F9F4F0895E89409C097FB23
S11315C03EF490958095709561957F4F8F4F9F4F16
S11315D09923A9F0F92F96E9BB279395F69587955A
S11315E077956795B795F111F8CFFAF4BB0F11F41D
S11315F060FF1BC06F5F7F4F8F4F9F4F16C08823C4
S113160011F096E911C0772321F09EE8872F762FF9
S113161005C0662371F096E8862F70E060E02AF03A
S11316209A95660F771F881FDAF7880F9695879526
S113163097F90895990F0008550FAA0BE0E8FEEFFB
S113164016161706E807F907C0F012161306E40782
S1131650F50798F0621B730B840B950B39F40A267B
S113166061F0232B242B252B21F408950A2609F459
S1131670A140A6958FEF811D811D089597F99F675D
S113168080E870E060E008959FEF80EC0895002406
S11316900A941616170618060906089500240A94D3
S11316A012161306140605060895092E0394000C59
S11316B011F4882352F0BB0F40F4BF2B11F460FFE8
S11316C004C06F5F7F4F8F4F9F4F089557FD905811
S11316D0440F551F59F05F3F71F04795880F97FBF2
S11316E0991F61F09F3F79F08795089512161306AC
S11316F01406551FF2CF4695F1DF08C016161706DB
S11317001806991FF1CF869571056105089408950F
S1131710E894BB2766277727CB0197F908950E94A1
S11317201A0B08F48FEF08950E94A70B0C94550B25
S11317300E94470B38F00E944E0B20F0952311F0C5
S11317400C943E0B0C94440B11240C94890B0E94B2
S1131750660B70F3959FC1F3950F50E0551F629F80
S1131760F001729FBB27F00DB11D639FAA27F00DF6
S1131770B11DAA1F649F6627B00DA11D661F829F1D
S11317802227B00DA11D621F739FB00DA11D621F02
S1131790839FA00D611D221F749F3327A00D611D1F
S11317A0231F849F600D211D822F762F6A2F112401
S11317B09F5750409AF0F1F088234AF0EE0FFF1F34
S11317C0BB1F661F771F881F91505040A9F79E3F8B
S11317D0510580F00C943E0B0C94890B5F3FE4F3AD
S11317E0983ED4F3869577956795B795F795E795E1
S11317F09F5FC1F7FE2B880F911D9695879597F9EA
S11318000895FA01EE0FFF1F309621053105A1F16D
S11318106115710561F48038BFE39B0749F1689451
S11318209038810561F08038BFEF9B0741F0992320
S11318304AF5FF3FE1053105210519F1E8940894C3
S1131840E795D901AA2329F4AB2FBE2FF85FD0F373
S113185010C0FF5F70F4A695E0F7F73950F019F067
S1131860FF3A38F49F779F930DD00F9007FC905860
S1131870089546F00C94440B60E070E080E89FE328
S113188008954FE79F775F934F933F932F930E9461
S1131890FC0C2F913F914F915F910E94940B0C94FB
S11318A0590C29F416F00C943E0B0C94880B0C94F0
S11318B0440B0E946E0BA8F39638A0F707F80F921A
S11318C0E8942BE33AEA48EB5FE70E94AA0B0F92F5
S11318D00F920F924DB75EB70F920E94440DE8E647
S11318E0F0E00E948B0C4F915F91EF91FF91E59591
S11318F0EE1FFF1F49F0FE57E0684427EE0F441F18
S1131900FA95E1F74195550B0E94BE0C0F9007FE26
S11319100C94B20C0895DF93CF931F930F93FF920F
S1131920EF92DF927B018C01689406C0DA2EEF01FE
S11319300E94A70BFE01E894A5912591359145914C
S11319405591A6F3EF010E94E209FE019701A80157
S1131950DA9469F7DF90EF90FF900F911F91CF9188
S1131960DF9108959B01AC0160E070E080E89FE3A3
S11319700C943C0A0C943E0B0C94780D0E946E0B54
S1131980D8F39923C9F3940F511DA3F391505040F8
S113199094F059F0882332F0660F771F881F915016
S11319A05040C1F79E3F51052CF7880F911D969525
S11319B0879597F908955F3FACF0983E9CF0BB275C
S11319C0869577956795B79508F4B1609395C1F7B7
S11319D0BB0F58F711F460FFE8CF6F5F7F4F8F4F55
S11319E09F4FE3CF0C94890B16F00C94780D0C9454
S11319F0440B68940C943E0B0E946E0BA8F399233D
S1131A00C1F3AEF3DF93CF931F930F93FF92C92FCC
S1131A10DD2788232AF02197660F771F881FDAF7BE
S1131A2020E030E040E85FEB9FE3883920F0803E1F
S1131A3038F021968F770E94CB09E0E9F0E004C0EA
S1131A400E94CB09EDEBF0E00E948B0C8B01BE01F0
S1131A50EC01FB2E6F5771097595771F880B990B55
S1131A600E94DF0A28E132E741E35FE30E94A70B0B
S1131A70AF2D9801AE01FF900F911F91CF91DF918F
S1131A800E94E2090C94550BFA01DC01AA0FBB1F5A
S1131A909B01AC01BF5728F42227332744275078F1
S1131AA020C0B75190F4AB2F002446953795279565
S1131AB0011CA395D2F3002071F0220F331F441FA1
S1131AC0B395DAF30ED00C94CA0961307105A0E81D
S1131AD08A07B94630F49B01AC016627772788272B
S1131AE09078309621F02083318342835383089584
S1131AF09F3F31F0915020F4879577956795B7957E
S1131B00880F911D9695879597F90895EE0FFF1FFD
S1131B100590F491E02D0994AEE0B0E0E2E9FDE037
S1131B200C944D100D891E8986E08C831A830983D9
S1131B308FEF9FE79E838D83AE01475E5F4F6F8972
S1131B40788DCE0101960E94AE0DEF81F885E00FED
S1131B50F11F10822E96E4E00C946910ABE0B0E023
S1131B60E4EBFDE00C943F106C017B018A01FC0165
S1131B7017821682838181FFCCC1CE0101963C017C
S1131B80F6019381F70193FD859193FF81917F0184
S1131B90882309F4BAC1853239F493FD859193FF02
S1131BA081917F01853229F4B60190E00E94A50F4E
S1131BB0E7CF912C212C312CFFE1F315D8F08B3297
S1131BC079F038F4803279F08332A1F4232D206146
S1131BD01DC08D3261F0803369F4232D216016C05D
S1131BE0832D8260382EE32DE4603E2E2AC0F32D2F
S1131BF0F8601DC037FC2DC020ED280F2A3040F0BE
S1131C008E32B9F436FC81C1232D2064322E19C0E2
S1131C1036FE06C08AE0989E200D1124922E11C033
S1131C20EAE02E9E200D1124222EF32DF0623F2E89
S1131C3008C08C3621F4832D8068382E02C0883683
S1131C4041F4F70193FD859193FF81917F01811107
S1131C50B3CF982F9F7D9554933028F40C5F1F4F7A
S1131C609FE399830DC0833631F0833771F0833558
S1131C7009F059C021C0F801808189830E5F1F4F8C
S1131C8088248394912C530113C02801F2E04F0E51
S1131C90511CF801A080B18036FE03C0692D70E0AC
S1131CA002C06FEF7FEFC5010E949A0F4C018201C1
S1131CB0F32DFF773F2E16C0280122E0420E511C5F
S1131CC0F801A080B18036FE03C0692D70E002C027
S1131CD06FEF7FEFC5010E948F0F4C01F32DF06869
S1131CE03F2E820133FC1BC0822D90E0881699069A
S1131CF0B0F4B60180E290E00E94A50F2A94F4CFDC
S1131D00F50137FC859137FE81915F01B60190E0C2
S1131D100E94A50F21102A9421E0821A91088114AF
S1131D20910471F7E8C0843611F0893641F5F80161
S1131D3037FE07C060817181828193810C5F1F4FE0
S1131D4008C060817181072E000C880B990B0E5F0F
S1131D501F4FF32DFF763F2E97FF09C09095809576
S1131D60709561957F4F8F4F9F4FF0683F2E2AE00B
S1131D7030E0A3010E94E10F882E861845C0853704
S1131D8031F4232D2F7EB22E2AE030E025C0932D8E
S1131D90997FB92E8F36C1F018F4883579F0B5C023
S1131DA0803719F0883721F0B0C0E92FE061BE2EEA
S1131DB0B4FE0DC0FB2DF460BF2E09C034FE0AC072
S1131DC0292F2660B22E06C028E030E005C020E1AD
S1131DD030E002C020E132E0F801B7FE07C06081C4
S1131DE07181828193810C5F1F4F06C06081718174
S1131DF080E090E00E5F1F4FA3010E94E10F882E48
S1131E008618FB2DFF773F2E36FE0DC0232D2E7F27
S1131E10A22E891458F434FE0BC032FC09C0832D61
S1131E208E7EA82E05C0B82CA32C03C0B82C01C0EC
S1131E30B92CA4FE0FC0FE01E80DF11D8081803392
S1131E4021F49A2D997EA92E09C0A2FE06C0B3944E
S1131E50B39404C08A2D867809F0B394A3FC11C00E
S1131E60A0FE06C0B21488F4280C922C9B180EC055
S1131E70B21460F4B60180E290E00E94A50FB3941E
S1131E80F7CFB21418F42B1802C0982C212CA4FEFE
S1131E9010C0B60180E390E00E94A50FA2FE17C017
S1131EA0A1FC03C088E790E002C088E590E0B60199
S1131EB00CC08A2D867859F0A1FE02C08BE201C0C5
S1131EC080E2A7FC8DE2B60190E00E94A50F891480
S1131ED038F4B60180E390E00E94A50F9A94F7CFFE
S1131EE08A94F301E80DF11D8081B60190E00E940F
S1131EF0A50F8110F5CF222009F442CEB60180E26D
S1131F0090E00E94A50F2A94F6CFF601868197816E
S1131F1002C08FEF9FEF2B96E2E10C945B10FC0163
S1131F200590615070400110D8F7809590958E0F00
S1131F309F1F0895FC016150704001900110D8F773
S1131F40809590958E0F9F1F08950F931F93CF93A5
S1131F50DF93FB01238121FD03C08FEF9FEF2CC092
S1131F6022FF16C0468157812481358142175307C9
S1131F7044F4A081B1819D012F5F3F4F31832083C1
S1131F808C93268137812F5F3F4F3783268314C07C
S1131F908B01EC01FB010084F185E02D0995892B6F
S1131FA0E1F6D80116968D919C9117970196179694
S1131FB09C938E931697CE01DF91CF911F910F9131
S1131FC00895FA01AA27283051F1203181F1E894CB
S1131FD06F936E7F6E5F7F4F8F4F9F4FAF4FB1E018
S1131FE03ED0B4E03CD0670F781F891F9A1FA11D13
S1131FF0680F791F8A1F911DA11D6A0F711D811D14
S1132000911DA11D20D009F468943F912AE0269FD8
S113201011243019305D3193DEF6CF010895462F37
S11320204770405D4193B3E00FD0C9F7F6CF462F18
S11320304F70405D4A3318F0495D31FD4052419381
S113204002D0A9F7EACFB4E0A6959795879577953E
S11320506795BA95C9F700976105710508959B01C5
S1132060AC010A2E06945795479537952795BA954E
S1132070C9F7620F731F841F951FA01D08952F9227
S11320803F924F925F926F927F928F929F92AF9204
S1132090BF92CF92DF92EF92FF920F931F93CF9351
S11320A0DF93CDB7DEB7CA1BDB0B0FB6F894DEBFE8
S11320B00FBECDBF09942A88398848885F846E840E
S11320C07D848C849B84AA84B984C884DF80EE8058
S11320D0FD800C811B81AA81B981CE0FD11D0FB661
S11320E0F894DEBF0FBECDBFED01089510E0C6E742
S11320F0D0E004C0FE010E94860D2196C737D107A7
S1092100C9F7F894FFCFBB
S11321060A2D2D2D2D2D2D2D2D2D2D2D2D2D2D2D18
S11321162D2D2D2D2D2D2D2D2D2D2D2D2D2D2D2DE5
S11321262D2D2D2D2D2D2D2D2D2D2D2D2D2D2D2DD5
S11321360A007365636F756E642066756E637469F1
S11321466F6E0A000A2D2D2D2D2D2D2D2D2D2D2DA5
S11321562D2D2D2D2D2D2D2D2D2D2D2D2D2D2D2DA5
S11321662D2D2D2D2D2D2D2D2D2D2D2D2D2D2D2D95
S11321762D2D2D2D0A0A0066697273742066756EFC
S11321866374696F6E0A000A2D2D2D2D2D2D2D2DAC
S11321962D2D2D2D2D2D2D2D2D2D2D2D2D2D2D2D65
S11321A62D2D2D2D2D2D2D2D2D2D2D0A0A00256C91
S11321B67520002D2D2D2D2D2D2D2D2D2D2D2D2D37
S11321C62D2D2D2D2D2D2D2D2D2D2D2D2D2D2D2D35
S11321D62D2D2D2D2D2D2D2D2D2D2D2D2D2D2D2D25
S11321E62D2D2D0A0072657175697265645F696EBD
S10D21F674657272757074730A0048
S9030000FC
