:100000000C9434000C9446000C9446000C9446006A
:100010000C9446000C9446000C9446000C94460048
:100020000C9446000C9446000C9446000C94460038
:100030000C9446000C9446000C9446000C94460028
:100040000C9446000C9446000C9446000C94460018
:100050000C9446000C9446000C9446000C94460008
:100060000C9446000C94460011241FBECFEFD8E03C
:10007000DEBFCDBF21E0A0E0B1E001C01D92A03005
:10008000B207E1F70E9448000C947A020C94000039
:100090000E9496000E949B00FDCF81E480937C002B
:1000A00087EC80937A0080917A0084FFFCCF80E116
:1000B00080937A00609178007091790080E090E000
:1000C000089580E480937C0087EC80937A0080918F
:1000D0007A0084FFFCCF80E180937A000895AB0121
:1000E000BC01463451056105710530F047395105B1
:1000F0006105710530F409C046E450E060E070E04D
:1001000004C046E950E060E070E080E090E0DC018F
:1001100007C022E42A95F1F700C00196A11DB11D88
:1001200084179507A607B707A0F3089580E48AB956
:100130000E9461000895CF92DF92EF92FF9281E0DA
:1001400090E00E944D0080E090E00E947F0120E05E
:1001500030E040E85AE30E940D0220E030E046E93A
:1001600053E40E940D0220E030E048EC52E40E948B
:100170000D0220E030E048EC52E40E94DE000E94D4
:1001800050010F2EFCE2CF2EDD24D394E12CF12C74
:10019000F02DC61AD70AE80AF90A2BB120642BB948
:1001A0000E946F008BB18F7B8BB9C701B6010E9493
:1001B0006F00FF90EF90DF90CF9008950E94F200C3
:1001C0000C94D3010E94CC0158F00E94C50140F06C
:1001D00029F45F3F29F00C94BC0151110C940702E3
:1001E0000C94C2010E94E40168F39923B1F35523F2
:1001F00091F3951B550BBB27AA276217730784073A
:1002000038F09F5F5F4F220F331F441FAA1FA9F3CF
:1002100035D00E2E3AF0E0E832D091505040E695BD
:10022000001CCAF72BD0FE2F29D0660F771F881F1E
:10023000BB1F261737074807AB07B0E809F0BB0B11
:10024000802DBF01FF2793585F4F3AF09E3F510525
:1002500078F00C94BC010C9407025F3FE4F3983EE5
:10026000D4F3869577956795B795F7959F5FC9F70E
:10027000880F911D9695879597F90895E1E0660F8F
:10028000771F881FBB1F621773078407BA0720F008
:10029000621B730B840BBA0BEE1F88F7E095089571
:1002A0000E94EC0188F09F5798F0B92F9927B75119
:1002B000B0F0E1F0660F771F881F991F1AF0BA950A
:1002C000C9F714C0B13091F00E940602B1E0089560
:1002D0000C940602672F782F8827B85F39F0B93F52
:1002E000CCF3869577956795B395D9F73EF49095BD
:1002F0008095709561957F4F8F4F9F4F0895E8943B
:1003000009C097FB3EF490958095709561957F4F5D
:100310008F4F9F4F9923A9F0F92F96E9BB2793950B
:10032000F695879577956795B795F111F8CFFAF41B
:10033000BB0F11F460FF1BC06F5F7F4F8F4F9F4F4C
:1003400016C0882311F096E911C0772321F09EE8AA
:10035000872F762F05C0662371F096E8862F70E010
:1003600060E02AF09A95660F771F881FDAF7880FEA
:100370009695879597F9089597F99F6780E870E0BB
:1003800060E008959FEF80EC089500240A9416160B
:10039000170618060906089500240A941216130673
:1003A000140605060895092E0394000C11F4882301
:1003B00052F0BB0F40F4BF2B11F460FF04C06F5F1D
:1003C0007F4F8F4F9F4F089557FD9058440F551FF3
:1003D00059F05F3F71F04795880F97FB991F61F0C7
:1003E0009F3F79F087950895121613061406551F3E
:1003F000F2CF4695F1DF08C0161617061806991FAA
:10040000F1CF86957105610508940895E894BB279E
:1004100066277727CB0197F908950E9420020C9454
:10042000D3010E94C50138F00E94CC0120F0952331
:1004300011F00C94BC010C94C20111240C9407021D
:100440000E94E40170F3959FC1F3950F50E0551F92
:10045000629FF001729FBB27F00DB11D639FAA2719
:10046000F00DB11DAA1F649F6627B00DA11D661F68
:10047000829F2227B00DA11D621F739FB00DA11D89
:10048000621F839FA00D611D221F749F3327A00D43
:10049000611D231F849F600D211D822F762F6A2FDF
:1004A00011249F5750409AF0F1F088234AF0EE0F44
:1004B000FF1FBB1F661F771F881F91505040A9F771
:1004C0009E3F510580F00C94BC010C9407025F3FE5
:1004D000E4F3983ED4F3869577956795B795F795AD
:1004E000E7959F5FC1F7FE2B880F911D9695879525
:0804F00097F90895F894FFCF7D
:00000001FF
