S017000074657374206B6F642073656E736F722E7372656335
S11300000C9434000C9446000C9446000C94460066
S11300100C9446000C9446000C9446000C94460044
S11300200C9446000C9446000C9446000C94460034
S11300300C9446000C9446000C9446000C94460024
S11300400C9446000C9446000C9446000C94460014
S11300500C9446000C9446000C9446000C94460004
S11300600C9446000C94460011241FBECFEFD8E038
S1130070DEBFCDBF21E0A0E0B1E001C01D92A03001
S1130080B207E1F70E9448000C9464020C9400004B
S11300900E948A000E948F00FDCF81E480937C003F
S11300A087EC80937A0080917A0084FFFCCF80E112
S11300B080937A00609178007091790080E090E0FC
S11300C0089580E480937C0087EC80937A0080918B
S11300D07A0084FFFCCF80E180937A0008950F9327
S11300E01F938B019C0180E090E007C0E7E8F3E1F7
S11300F03197F1F700C000000196AC01092E000C05
S1130100660B770B401751076207730778F31F914B
S11301100F91089580E48AB90E9461000895CF93F5
S1130120DF9381E090E00E944D0080E090E00E9427
S1130130690120E030E040E85AE30E94F70120E042
S113014030E040E251E40E94F7010E943A01C62FD8
S113015070E080E090E00E946B019B01AC0160E0E4
S113016070E080E291E40E94CD000E943A01D62F13
S11301708BB180648BB96C2F70E080E090E00E94BA
S11301806F008BB18F7B8BB96D2F70E080E090E0B6
S11301900E946F00DF91CF9108955058BB27AA2782
S11301A00E94E5000C94BD010E94AF0138F00E944A
S11301B0B60120F039F49F3F19F426F40C94AC01F5
S11301C00EF4E095E7FB0C94A601E92F0E94CE0102
S11301D058F3BA17620773078407950720F079F478
S11301E0A6F50C94F0010EF4E0950B2EBA2FA02D79
S11301F00B01B90190010C01CA01A0011124FF27D0
S1130200591B99F0593F50F4503E68F11A16F040CA
S1130210A22F232F342F4427585FF3CF46953795C9
S11302202795A795F0405395C9F77EF41F16BA0B8E
S1130230620B730B840BBAF09150A1F0FF0FBB1F3C
S1130240661F771F881FC2F70EC0BA0F621F731F85
S1130250841F48F4879577956795B795F7959E3FE2
S113026008F0B0CF9395880F08F09927EE0F979573
S1130270879508950E94D60188F09F5798F0B92F6A
S11302809927B751B0F0E1F0660F771F881F991FC7
S11302901AF0BA95C9F714C0B13091F00E94F00178
S11302A0B1E008950C94F001672F782F8827B85F88
S11302B039F0B93FCCF3869577956795B395D9F71F
S11302C03EF490958095709561957F4F8F4F9F4F29
S11302D00895E89409C097FB3EF490958095709535
S11302E061957F4F8F4F9F4F9923A9F0F92F96E97E
S11302F0BB279395F695879577956795B795F111F3
S1130300F8CFFAF4BB0F11F460FF1BC06F5F7F4F8F
S11303108F4F9F4F16C0882311F096E911C07723A1
S113032021F09EE8872F762F05C0662371F096E8AA
S1130330862F70E060E02AF09A95660F771F881F79
S1130340DAF7880F9695879597F9089597F99F6737
S113035080E870E060E008959FEF80EC0895002449
S11303600A941616170618060906089500240A9416
S113037012161306140605060895092E0394000C9C
S113038011F4882352F0BB0F40F4BF2B11F460FF2B
S113039004C06F5F7F4F8F4F9F4F089557FD905854
S11303A0440F551F59F05F3F71F04795880F97FB35
S11303B0991F61F09F3F79F08795089512161306EF
S11303C01406551FF2CF4695F1DF08C0161617061E
S11303D01806991FF1CF8695710561050894089553
S11303E0E894BB2766277727CB0197F908950E94E5
S11303F00A020C94BD010E94AF0138F00E94B601BC
S113040020F0952311F00C94A6010C94AC01112456
S11304100C94F1010E94CE0170F3959FC1F3950FE6
S113042050E0551F629FF001729FBB27F00DB11D74
S1130430639FAA27F00DB11DAA1F649F6627B00D04
S1130440A11D661F829F2227B00DA11D621F739FED
S1130450B00DA11D621F839FA00D611D221F749FFB
S11304603327A00D611D231F849F600D211D822F42
S1130470762F6A2F11249F5750409AF0F1F0882369
S11304804AF0EE0FFF1FBB1F661F771F881F915096
S11304905040A9F79E3F510580F00C94A6010C949E
S11304A0F1015F3FE4F3983ED4F386957795679521
S11304B0B795F795E7959F5FC1F7FE2B880F911DC0
S10F04C09695879597F90895F894FFCF5E
S9030000FC
