:100000000C9435000C9452000C9452000C94520045
:100010000C9452000C9452000C9452000C94520018
:100020000C9452000C9452000C9452000C94520008
:100030000C9452000C9452000C9452000C945200F8
:100040000C9452000C9452000C9452000C945200E8
:100050000C9452000C9452000C9452000C945200D8
:100060000C9452000C945200600111241FBECFEF7B
:10007000D8E0DEBFCDBF21E0A0E0B1E001C01D921D
:10008000A830B207E1F710E0C5E3D0E004C0219743
:10009000FE010E946701C433D107C9F70E94240101
:1000A0000C946D010C940000FC01108212821182EC
:1000B0001382683080F483E090E0928381836083D0
:1000C0002AB181E090E002C0880F991F6A95E2F79B
:1000D000822B8AB908956850663068F481E090E018
:1000E00092838183608324B102C0880F991F6A952F
:1000F000E2F7822B84B90895FC01818192818130DD
:10010000910561F425B181E090E0008002C0880F84
:10011000991F0A94E2F7822B85B90DC0039759F411
:100120002BB181E090E0008002C0880F991F0A94F3
:10013000E2F7822B8BB981E083830895FC018181F2
:1001400092818130910581F495B121E030E0008009
:1001500002C0220F331F0A94E2F781E0232B09F03B
:1001600080E0892385B911C0039779F49BB121E020
:1001700030E0008002C0220F331F0A94E2F781E0D2
:10018000232B09F080E089238BB981E083830895D4
:10019000FC011082128211821382683080F483E0A5
:1001A00090E09283818360832BB181E090E0062E02
:1001B00002C0880F991F0A94E2F7822B8BB981E065
:1001C00090E0928381836850608325B102C0880FDC
:1001D000991F6A95E2F7822B85B90895FC01218168
:1001E00032812130310561F423B130E0A901008072
:1001F00002C0559547950A94E2F7CA0181700895A7
:100200002330310569F429B130E0A901FC010080F7
:1002100002C0559547950A94E2F7CA018170089586
:1002200080E00895019779F46F3F7F4F61F4E4E037
:10023000F1E01082128211821382E0E0F1E010827C
:100240001282118213820895CF93DF93CDB7DEB768
:1002500028970FB6F894DEBF0FBECDBF6DE0CE017C
:1002600005960E94C8008D819E81AF81B8858093DC
:10027000040190930501A0930601B093070165E086
:10028000CE0101960E94540089819A81AB81BC8184
:100290008093000190930101A0930201B0930301A8
:1002A00084E091E00E94EE00882329F080E091E054
:1002B0000E947C00F5CF80E091E00E949E00F0CF8C
:1002C0006FEF7FEF81E090E00E9412010895EE0F42
:0E02D000FF1F0590F491E02D0994F894FFCFE4
:00000001FF
