S01200006B6F642062696C2076322E73726563B5
S11300000C9435000C945D000C945D000C945D0020
S11300100C94A5010C945D000C945D000C945D009F
S11300200C945D000C945D000C945D000C947701BD
S11300300C945D000C945D000C945D000C945D00C8
S11300400C946D010C945D000C945D000C945D00A7
S11300500C945D000C945D000C945D000C945D00A8
S11300600C945D000C945D00660111241FBECFEF5B
S1130070D8E0DEBFCDBF11E0A0E0B1E0E8E2FAE0F5
S113008002C005900D92A030B107D9F721E0A0E09D
S1130090B1E001C01D92A532B207E1F710E0C5E35B
S11300A0D0E004C02197FE010E940C05C433D1079F
S11300B0C9F70E94D1010C9412050C940000FC01B4
S11300C01082128211821382683080F483E090E0FF
S11300D09283818360832BB181E090E0062E02C07D
S11300E0880F991F0A94E2F7822B8BB981E090E084
S11300F0928381836850608325B102C0880F991F61
S11301006A95E2F7822B85B90895FC012181328139
S11301102130310561F423B130E0A901008002C02F
S1130120559547950A94E2F7CA01817008952330E2
S1130130310569F429B130E0A901FC01008002C055
S1130140559547950A94E2F7CA018170089580E0B5
S113015008957894DC0111962D913C9112972130E9
S11301603105A9F4E8E6F0E0208121602083EBE684
S1130170F0E0408121E030E0B9010C9002C0660F4C
S1130180771F0A94E2F7CB01842B808308952330F0
S11301903105A9F4E8E6F0E0208124602083EDE64F
S11301A0F0E0408121E030E0B901DC010C9002C0B4
S11301B0660F771F0A94E2F7CB01842B808308959E
S11301C0019769F56F3F7F4F51F5EAE1F1E0108245
S11301D01282118213821482158281E08287E6E101
S11301E0F1E01082128211821382E2E1F1E01082C6
S11301F012821182E0E0F1E083E090E09183808359
S11302001282138214821582168217821086118636
S1130210138612861486158616861786108A089504
S1130220CF93DF9300D000D0CDB7DEB7682FCE01D7
S113023001960E945F0069817A818B819C810F9075
S11302400F900F900F90DF91CF910895CF93DF938C
S1130250EC010E94D401CE01DF91CF910895CF9398
S1130260DF93CDB7DEB72B970FB6F894DEBF0FBE82
S1130270CDBF89E00E9410016093160170931701AD
S1130280809318019093190186E191E00E94A900DE
S113029065E0CE0101960E9426018BE0FE013196B5
S11302A0AAE1B1E001900D928A95E1F78AE191E02B
S11302B00E9408028AB180688AB92B960FB6F89416
S11302C0DEBF0FBECDBFDF91CF9108956FEF7FEFFB
S11302D081E090E00E94E00008951F920F920FB613
S11302E00F9211240F900FBE0F901F9018951F921C
S11302F00F920FB60F9211242F933F934F935F9356
S11303006F937F938F939F93AF93BF93EF93FF93D9
S113031080E091E00E946A0280E091E00E94EE0297
S113032080E091E00E94D602FF91EF91BF91AF91DE
S11303309F918F917F916F915F914F913F912F91F9
S11303400F900FBE0F901F9018951F920F920FB62B
S11303500F9211242F933F934F935F936F937F9347
S11303608F939F93AF93BF93EF93FF9386E191E0B5
S11303700E948500882321F08AE191E00E945F02B7
S1130380FF91EF91BF91AF919F918F917F916F9169
S11303905F914F913F912F910F900FBE0F901F903F
S11303A018950E942F01FFCFFC0110821282118246
S11303B013821482158281E08287683080F483E09E
S11303C090E09283818360832AB181E090E002C04F
S11303D0880F991F6A95E2F7822B8AB910C068507A
S11303E0663068F481E090E092838183608324B175
S11303F002C0880F991F6A95E2F7822B84B981E0C5
S1130400868389E0878382E090E0918780870895DE
S1130410ECE6F0E0408121E030E0DC0117960C903E
S1130420179702C0220F331F0A94E2F7242B20836C
S113043021E015962C9308958BB180688BB98BB10C
S11304408BB908958BB180688BB98BB18BB9089542
S1130450FC019285992321F0CF010E941C0208958A
S1130460911103C0CF010E9422020895CF93DF931C
S1130470EC0189819A818130910561F425B181E093
S113048090E0088002C0880F991F0A94E2F7822B3B
S113049085B90DC0039759F42BB181E090E0088031
S11304A002C0880F991F0A94E2F7822B8BB9CE0100
S11304B00E94280281E08C83DF91CF91089521E08E
S11304C0FC01238332E030936F00209311010E94DA
S11304D036020895CF92DF92EF92FF92CF93DF938B
S11304E0EC018C85806480937C0087EC80937A0097
S11304F080917A0084FFFCCF80E180937A00609140
S113050078007091790080E090E00E94110420E06E
S113051030EC4FE754E40E9470036B017C016D855D
S11305207E858F8598890E9411049B01AC01C701C7
S1130530B6010E949F0420E030E040E05FE30E94A7
S113054004030E94E2036E837F83888799871B8656
S11305501A861A821B821C821D82DF91CF91FF9022
S1130560EF90DF90CF900895FC0182859385892BCD
S1130570C9F481E090E09387828785859685A78575
S1130580B0894681578160857185841B950BA60BC4
S1130590B70B86839783A087B18712821382148254
S11305A015820895CF010E946A0208950F931F9344
S11305B0FC01028113812481358146815781608544
S11305C07185041715072607370720F00E94B40227
S11305D081E001C080E01F910F910895FC018189A1
S11305E0882361F082819381A481B5810196A11D44
S11305F0B11D82839383A483B583089512821382E9
S11306001482158208955058BB27AA270E941B0301
S11306100C9465040E94570438F00E945E0420F094
S113062039F49F3F19F426F40C9454040EF4E09525
S1130630E7FB0C944E04E92F0E94760458F3BA1792
S1130640620773078407950720F079F4A6F50C94E4
S113065098040EF4E0950B2EBA2FA02D0B01B901CE
S113066090010C01CA01A0011124FF27591B99F024
S1130670593F50F4503E68F11A16F040A22F232F30
S1130680342F4427585FF3CF469537952795A79580
S1130690F0405395C9F77EF41F16BA0B620B730B27
S11306A0840BBAF09150A1F0FF0FBB1F661F771F98
S11306B0881FC2F70EC0BA0F621F731F841F48F44D
S11306C0879577956795B795F7959E3F08F0B0CFD6
S11306D09395880F08F09927EE0F979587950895BD
S11306E00E9484030C9465040E945E0458F00E94E6
S11306F0570440F029F45F3F29F00C944E04511143
S11307000C9499040C9454040E94760468F399237D
S1130710B1F3552391F3951B550BBB27AA276217F9
S11307207307840738F09F5F5F4F220F331F441F06
S1130730AA1FA9F335D00E2E3AF0E0E832D091503A
S11307405040E695001CCAF72BD0FE2F29D0660F27
S1130750771F881FBB1F261737074807AB07B0E86A
S113076009F0BB0B802DBF01FF2793585F4F3AF070
S11307709E3F510578F00C944E040C9499045F3F0D
S1130780E4F3983ED4F3869577956795B795F795F6
S11307909F5FC9F7880F911D9695879597F90895DE
S11307A0E1E0660F771F881FBB1F6217730784077A
S11307B0BA0720F0621B730B840BBA0BEE1F88F789
S11307C0E09508950E947E0488F09F5798F0B92F11
S11307D09927B751B0F0E1F0660F771F881F991F72
S11307E01AF0BA95C9F714C0B13091F00E94980478
S11307F0B1E008950C949804672F782F8827B85F88
S113080039F0B93FCCF3869577956795B395D9F7C9
S11308103EF490958095709561957F4F8F4F9F4FD3
S11308200895E89409C097FB3EF4909580957095DF
S113083061957F4F8F4F9F4F9923A9F0F92F96E928
S1130840BB279395F695879577956795B795F1119D
S1130850F8CFFAF4BB0F11F460FF1BC06F5F7F4F3A
S11308608F4F9F4F16C0882311F096E911C077234C
S113087021F09EE8872F762F05C0662371F096E855
S1130880862F70E060E02AF09A95660F771F881F24
S1130890DAF7880F9695879597F9089597F99F67E2
S11308A080E870E060E008959FEF80EC08950024F4
S11308B00A941616170618060906089500240A94C1
S11308C012161306140605060895092E0394000C47
S11308D011F4882352F0BB0F40F4BF2B11F460FFD6
S11308E004C06F5F7F4F8F4F9F4F089557FD9058FF
S11308F0440F551F59F05F3F71F04795880F97FBE0
S1130900991F61F09F3F79F0879508951216130699
S11309101406551FF2CF4695F1DF08C016161706C8
S11309201806991FF1CF86957105610508940895FD
S1130930E894BB2766277727CB0197F908950E948F
S1130940B2040C9465040E94570438F00E945E04BB
S113095020F0952311F00C944E040C9454041124AB
S11309600C9499040E94760470F3959FC1F3950F3B
S113097050E0551F629FF001729FBB27F00DB11D1F
S1130980639FAA27F00DB11DAA1F649F6627B00DAF
S1130990A11D661F829F2227B00DA11D621F739F98
S11309A0B00DA11D621F839FA00D611D221F749FA6
S11309B03327A00D611D231F849F600D211D822FED
S11309C0762F6A2F11249F5750409AF0F1F0882314
S11309D04AF0EE0FFF1FBB1F661F771F881F915041
S11309E05040A9F79E3F510580F00C944E040C949E
S11309F099045F3FE4F3983ED4F386957795679521
S1130A00B795F795E7959F5FC1F7FE2B880F911D6A
S1130A109695879597F90895EE0FFF1F0590F49129
S10B0A20E02D0994F894FFCFC6
S9030000FC
