S016000043617220636F6465206D6F746F722E73726563EC
S11300000C9477000C949F000C949F000C945A015C
S11300100C949F000C949F000C949F000C949F00E0
S11300200C949F000C94CC010C949F000C949001B0
S11300300C949F000C949F000C949F000C949F00C0
S11300400C9486010C949F000C949F000C949F00C8
S11300500C949F000C949F000C949F000C949F00A0
S11300600C949F000C949F0007634236B79BD8A75B
S11300701A39685618AEBAAB558C1D3CB7CC5763C9
S1130080BD6DEDFD753EF6177231BF000000803F77
S113009008000000BE922449123EABAAAA2ABECD93
S11300A0CCCC4C3E00000080BEABAAAAAA3E000005
S11300B00000BF000000803F0000000000084178FD
S11300C0D3BB4387D1133D190E3CC3BD4282AD2B34
S11300D03E68EC8276BED98FE1A93E4C80EFFFBE2C
S11300E001C4FF7F3F000000000037033E031124DA
S11300F01FBECFEFD8E0DEBFCDBF14E0A0E0B1E07B
S1130100E2EEF3E202C005900D92AC33B107D9F7E9
S113011024E0ACE3B4E001C01D92A73CB207E1F7D0
S113012010E0C6E7D0E004C02197FE010E94F40E5F
S1130130C537D107C9F70E9430030C94E4110C941D
S11301400000FC01108283E090E09283818313829B
S1130150683080F482E090E09283818360832BB1E5
S113016081E090E002C0880F991F6A95E2F7822B24
S11301708BB9089588EF860F863080F4128211823D
S1130180808345B121E030E0B90102C0660F771FDA
S11301908A95E2F7CB01842B85B908956E506630B9
S11301A068F481E090E092838183608328B102C087
S11301B0880F991F6A95E2F7822B88B90895FC018C
S11301C0218132812115310561F423B130E0A90187
S11301D0008002C0559547950A94E2F7CA018170E0
S11301E008952130310569F426B130E0A901FC01FC
S11301F0008002C0559547950A94E2F7CA018170C0
S113020008952230310569F429B130E0A901FC01D7
S1130210008002C0559547950A94E2F7CA0181709F
S1130220089580E00895FC01789481819281892B5E
S113023091F4A8E6B0E08C9181608C93ABE6B0E0D9
S11302402C9181E090E0008002C0880F991F0A94ED
S1130250E2F7822B8C93818192818130910599F40C
S1130260A8E6B0E08C9182608C93ACE6B0E02C916F
S113027081E090E0008002C0880F991F0A94E2F7A1
S1130280822B8C9314C0029791F4A8E6B0E08C9171
S113029084608C93ADE6B0E02C9181E090E0008026
S11302A002C0880F991F0A94E2F7822B8C9381E095
S11302B0838308951F920F920FB60F9211242F93E8
S11302C03F934F935F936F937F938F939F93AF93DA
S11302D0BF93EF93FF9382EC94E00E94DF008823A6
S11302E021F08AE994E00E943B04FF91EF91BF91D1
S11302F0AF919F918F917F916F915F914F913F91BA
S11303002F910F900FBE0F901F9018951F920F9270
S11303100FB60F9211240F900FBE0F901F901895D7
S11303201F920F920FB60F9211242F933F934F9366
S11303305F936F937F938F939F93AF93BF93EF9349
S1130340FF9380E494E00E94110B8823A1F08CE3D6
S113035094E00E94970A40915A0450915B04609182
S11303605C0470915D0480E494E00E943D078CE39A
S113037094E00E94780AFF91EF91BF91AF919F9111
S11303808F917F916F915F914F913F912F910F903A
S11303900FBE0F901F9018951F920F920FB60F92D9
S11303A011242F933F934F935F936F937F938F9376
S11303B09F93AF93BF93EF93FF9386EA94E00E94D9
S11303C0110B882341F086EA94E00E94ED068AE945
S11303D094E00E94FA03FF91EF91BF91AF919F9136
S11303E08F917F916F915F914F913F912F910F90DA
S11303F00FBE0F901F901895FC01108283E090E0CF
S1130400928381831382683080F482E090E0928347
S1130410818360832AB181E090E002C0880F991F34
S11304206A95E2F7822B8AB9089588EF860F8630A1
S113043080F412821182808344B121E030E0B9015A
S113044002C0660F771F8A95E2F7CB01842B84B92B
S113045008956E50663068F481E090E09283818361
S1130460608327B102C0880F991F6A95E2F7822B37
S113047087B90895FC0181819281009761F425B1C7
S113048081E090E0008002C0880F991F0A94E2F78F
S1130490822B85B91CC08130910561F428B181E0BB
S11304A090E0008002C0880F991F0A94E2F7822B23
S11304B088B90DC0029759F42BB181E090E0008017
S11304C002C0880F991F0A94E2F7822B8BB981E04E
S11304D083830895FC0181819281009769F425B199
S11304E081E090E0008002C0880F991F0A94E2F72F
S11304F08095822385B91EC08130910569F428B1A5
S113050081E090E0008002C0880F991F0A94E2F70E
S11305108095822388B90EC0029761F42BB181E0E3
S113052090E0008002C0880F991F0A94E2F780953A
S113053082238BB913820895CF93DF93EC010E9439
S11305406A0289819A81009769F424B181E090E07C
S1130550088002C0880F991F0A94E2F780958223CD
S113056084B91EC08130910569F427B181E090E01F
S1130570088002C0880F991F0A94E2F780958223AD
S113058087B90EC0029761F42AB181E090E0088037
S113059002C0880F991F0A94E2F7809582238AB9D2
S11305A0DF91CF9108958F929F92AF92CF92DF9275
S11305B0EF92FF920F931F93CF93DF93EC014B01C4
S11305C0019749F56F3F7F4F31F569E082EC94E084
S11305D00E94A100AA24A3940F2EC12CD12CF0E2D6
S11305E0EF2EF1E4FF2EF02D02E010E025E048E0CC
S11305F067E08AE994E00E944503C12CD12C76017E
S11306006894F6F801E010E020E042E066E08CE354
S113061094E00E946C09CD2BB9F489208094A1F454
S11306208CE394E00E94820A86EA94E00E94D00A55
S113063082EA94E00E949C028EE994E00E949C026B
S11306408AE994E00E949C02DF91CF911F910F915F
S1130650FF90EF90DF90CF90AF909F908F90089590
S11306600E94FD0882EC94E00E941301FFCF6FEF1B
S11306707FEF81E090E00E94D30208956FEF7FEF57
S113068080E090E00E94D30208955F926F927F927F
S11306908F929F92AF92BF92CF92DF92EF92FF928E
S11306A00F931F93CF93DF93CDB7DEB7A4970FB605
S11306B0F894DEBF0FBECDBF4C01542EB22E3801CC
S11306C00A2DFC01108283E090E0928381831382DF
S11306D01482968385831782108692878187138676
S11306E09587848716861786108A118A128A138A38
S11306F0148A158A168A178A108E118E128E138EFA
S1130700148E158E168E81E090E090A3878F92A3AD
S113071081A313A215A214A216A217A2CE01819638
S11307200E94FC0189A19AA1F401918380838BA189
S11307309CA193838283CE0181960E949C02652DA5
S1130740CE014D960E94FC018D8D9E8DF401958302
S113075084838F8D98A197838683CE014D960E94C2
S11307609C026B2DCE0149960E94FC01898D9A8DC5
S1130770F401918780878B8D9C8D93878287CE012E
S113078049960E949C02A7019601B301CE010196ED
S11307900E94E20588E1FE013196D4011C96019085
S11307A00D928A95E1F7CE0101960E94D00AA49693
S11307B00FB6F894DEBF0FBECDBFDF91CF911F916E
S11307C00F91FF90EF90DF90CF90BF90AF909F90EC
S11307D08F907F906F905F90089521E0FC0127A394
S11307E008960E943A020895FC0117A208960E94F6
S11307F06A020895FC0127A1222319F00E94F40340
S113080008950E94ED030895CF93DF93EC011EA297
S11308100C960E94F50ACE0108960E946A0280E0B6
S113082091E00E941B09DF91CF910895CF93DF934C
S1130830FC0126A1222349F0EC010E943A02CE01D8
S113084004960E946A021DA21CA2DF91CF91089512
S1130850CF93DF93EC0181E08EA3CE010C960E942E
S1130860D50ACE010E94160486E191E00E941B097C
S1130870DF91CF910895FC0126A1222339F00E9433
S113088004048BE291E00E941B0908950E9428044D
S113089087E491E00E941B0908954F925F926F9242
S11308A07F928F929F92AF92BF92CF92DF92EF92FC
S11308B0FF92CF93DF93EC0188A099A0AAA0BBA0DC
S11308C0CCA0DDA0EEA0FFA0A7019601C501B40154
S11308D00E94A50B8823E9F0488059806A807B80B8
S11308E0A3019201C701B6010E94A50B88232CF431
S11308F0C882D982EA82FB820CC0A3019201C5019D
S1130900B4010E94FD0C181624F488829982AA82EC
S1130910BB82DF91CF91FF90EF90DF90CF90BF909B
S1130920AF909F908F907F906F905F904F900895BD
S11309300F931F93FC0140A351A362A373A304A3C9
S113094015A326A337A31F910F910895CF92DF9289
S1130950EF92FF920F931F93FC014487558766879C
S11309607787008B118B228B338BC48AD58AE68AD6
S1130970F78A1F910F91FF90EF90DF90CF90089529
S11309804F925F926F927F928F929F92AF92BF929B
S1130990CF92DF92EF92FF92CF93DF9300D000D0FB
S11309A000D0CDB7DEB79E838D83FC014480558093
S11309B0668077802085318542855385C301B201E5
S11309C00E94380B6B017C01ED81FE81248D358DF5
S11309D0468D578D0E94390B4B015C01ED81FE81E0
S11309E0648F758F868F978F208D318D428D538DB7
S11309F0C701B6010E94380B69837A838B839C8379
S1130A00ED81FE812485358546855785C701B6016C
S1130A100E94020D9B01AC01C301B2010E94390B7B
S1130A202B013C01ED81FE81208931894289538962
S1130A30C501B4010E94020D9B01AC01C301B201C6
S1130A400E94390B4B015C01ED81FE8124893589BB
S1130A504689578969817A818B819C810E94020D24
S1130A609B01AC01C501B4010E94390BED81FE81EB
S1130A706083718382839383CF010E944D04ED814F
S1130A80FE81C08ED18EE28EF38E26960FB6F89438
S1130A90DEBF0FBECDBFDF91CF91FF90EF90DF900F
S1130AA0CF90BF90AF909F908F907F906F905F900A
S1130AB04F90089580E480937C0083EC80937A00C7
S1130AC080917A0084FFFCCF80E180937A0082E6F3
S1130AD091E00E941B090895FC011082663010F415
S1130AE0608303C02FEFFC0120830E945A05089500
S1130AF0FC018081806480937C0083EC80937A0085
S1130B0080917A0084FFFCCF80E180937A00809109
S1130B107800909179000895CF92DF92EF92FF923E
S1130B200E947805BC0180E090E00E944B0C20E01C
S1130B3030E040EA5BE30E94020D2DED34E246E929
S1130B405FEB0E946F0D2DE637EE4FEE51E40E94ED
S1130B50020D6B017C0120E030E040EA52E40E9487
S1130B60FD0C18165CF020E030E040E251E4C701CF
S1130B70B6010E94A50B882354F011C00F2EC12C7E
S1130B80D12CF0EAEF2EF2E4FF2EF02D08C00F2E48
S1130B90C12CD12CF0E2EF2EF1E4FF2EF02D20E059
S1130BA030E040E551E4C701B6010E94020D20E0A7
S1130BB030EC4FE754E40E94AA0BFF90EF90DF90D3
S1130BC0CF9008954F925F926F927F928F929F92EF
S1130BD0AF92BF92EF92FF920F93CF93DF931F9246
S1130BE0CDB7DEB77C015B0129013A0183E090E0D7
S1130BF0F7019183808312821382148215821682F4
S1130C001782108611861286138614861586168618
S1130C101786108A118A128A81E090E0948B838B64
S1130C20968B858B178A0E94FD08F701B182A082FA
S1130C302FE632E143E85CE3C301B2010E94AA0B50
S1130C4020E030E040E05FE30E94390B0E941C0C7E
S1130C50F7016387748785879687602FCE01019695
S1130C600E946C058981F701878B808191810E94A4
S1130C70A40AF70112861282138214821582438415
S1130C80548465847684C70147960E948C054B0181
S1130C905C01C301B2010E944B0CA50194010E94A6
S1130CA0020D20E030E040E05FE30E94390B0E9437
S1130CB01C0CF70166837783808791878FE691E028
S1130CC00E941B09F70166817781808591850E94C6
S1130CD03D090F90DF91CF910F91FF90EF90BF905E
S1130CE0AF909F908F907F906F905F904F900895FA
S1130CF0CF92DF92EF92FF920F931F93CF93DF93E4
S1130D00EC018B0169017A0183E090E09983888387
S1130D101A821B821C821D821E821F8218861986DB
S1130D201A861B861C861D861E861F86188A198AAB
S1130D301A8A81E090E09C8B8B8B9E8B8D8B1F8A13
S1130D400E94FD08198308832FE632E143E85CE33F
S1130D50C701B6010E94AA0B20E030E040E05FE347
S1130D600E94390B0E941C0C6B877C878D879E87A1
S1130D7082E991E00E941B096B857C858D859E85A7
S1130D800E943D0989E193E00E941B0988819981B1
S1130D900E94A40A1A821B821C821D828AE590E0AA
S1130DA0A0E0B0E08E839F83A887B9878FEA91E0A3
S1130DB00E941B096E817F81888599850E943D0967
S1130DC089E193E00E941B09DF91CF911F910F915C
S1130DD0FF90EF90DF90CF9008958F929F92AF9203
S1130DE0BF92CF92DF92EF92FF92CF93DF93FC01F9
S1130DF083899489892BA9F483859485A585B685EF
S1130E004281538164817581841B950BA60BB70BBA
S1130E1086839783A087B18781E090E0948B838B4E
S1130E2021C0EF0183849484A584B684CF014796BE
S1130E300E948C056B017C01C501B4010E944B0C1E
S1130E40A70196010E94020D20E030E040E05FE33C
S1130E500E94390B0E941C0C6E837F8388879987BC
S1130E601C8A1B8ADF91CF91FF90EF90DF90CF9087
S1130E70BF90AF909F908F900895CF93DF93FC0124
S1130E8085899689892B69F483859485A585B6859A
S1130E9086839783A087B18781E090E0968B858BCA
S1130EA00BC0CB01BA01EF010E941C0C6E837F833F
S1130EB0888799871E8A1D8ADF91CF9108950F93A1
S1130EC01F93CF93DF93042F152FD62FC72F20E026
S1130ED030EC4FE754E4602F712F8D2F9C2F0E942C
S1130EE0FD0C181684F020E030E0A901602F712F6A
S1130EF08D2F9C2F0E94A50B88234CF400E010E05A
S1130F00D0E0C0E004C000E010ECDFE7C4E4602FF0
S1130F10712F8D2F9C2FDF91CF911F910F910895E9
S1130F208F929F92AF92BF92CF92DF92EF92FF92F5
S1130F30CF93DF93EC018CA49DA4AEA4BFA46CADAD
S1130F407DAD8EAD9FAD20E030EC4FE754E40E94C0
S1130F50AA0B6B017C019B01AC01C501B4010E9489
S1130F60020D6CAB7DAB8EAB9FAB28A939A94AA906
S1130F705BA9C701B6010E94020D68AF79AF8AAFC1
S1130F809BAFDF91CF91FF90EF90DF90CF90BF9018
S1130F90AF909F908F9008952F923F924F925F92BF
S1130FA06F927F928F929F92AF92BF92CF92DF9275
S1130FB0EF92FF920F931F93CF93DF93CDB7DEB7DA
S1130FC027970FB6F894DEBF0FBECDBF3C014B830D
S1130FD018012901CC82DD82EE82FF82FC0110829D
S1130FE0118212821382148215821682178210864D
S1130FF01186128613861486158616861786108A1D
S1131000118A128A138A148A158A168A178A108EEC
S1131010118E128E138E148E158E168E178E10A2AC
S113102011A212A213A214A215A216A217A210A60C
S113103081E081A712A613A614A615A616A617A6C4
S113104010AA11AA12AA13AA14AA15AA16AA17AAB0
S113105010AE11AE12AE13AE14AE15AE16AE17AE80
S1131060CE0102960E946C058A81F30182A76B81EE
S1131070CE0101960E946C058981F30183A7248225
S1131080358246825782CC8CDD8CEE8CFF8C9501A8
S113109084014C815D816E817F81C3010E94A6041D
S11310A00CA11DA12EA13FA148A159A16AA17BA118
S11310B0C3010E94980428A139A14AA15BA16CA193
S11310C07DA18EA19FA10E94380B20E030E040E07A
S11310D05FE30E94020DF30164AF75AF86AF97AF73
S11310E027960FB6F894DEBF0FBECDBFDF91CF9128
S11310F01F910F91FF90EF90DF90CF90BF90AF9032
S11311009F908F907F906F905F904F903F902F9023
S11311100895CF92DF92EF92FF920F931F93CF9394
S1131120DF93EC01680179010E945F076CA77DA73A
S11311308EA79FA7B701A601CE010E945F0768ABE7
S113114079AB8AAB9BABCE010E9490076C817D8109
S11311508E819F812CA93DA94EA95FA90E94390BBC
S113116028AD39AD4AAD5BAD0E94380B68877987ED
S11311708A879B87DF91CF911F910F91FF90EF900A
S1131180DF90CF900895CF92DF92EF92FF920F936A
S11311901F93CF93DF93FC0190A59F5F90A781A538
S11311A09817E8F0EF0110A6CF018B960E947805FE
S11311B0BC0180E090E00E944B0C6B017C01CE01ED
S11311C08A960E947805BC0180E090E00E944B0C56
S11311D0AB01BC0197018601CE010E948908DF9111
S11311E0CF911F910F91FF90EF90DF90CF900895D2
S11311F08BE193E00E941B0908958091C60481113C
S113120012C088E08093C10086E08093C20087E624
S113121090E09093C5008093C4008DE08093C60055
S113122081E08093C60408959091C00095FFFCCF9F
S11312308093C6000895EF92FF920F931F93CF936C
S1131240DF937C01C0E0D0E087010C0F1D1FF80183
S11312508081882359F00E941409F80180818A3022
S113126019F48DE00E9414092196EECFDF91CF91FD
S11312701F910F91FF90EF9008950F931F93CF93B9
S1131280DF93CDB7DEB7E2970FB6F894DEBF0FBE9B
S1131290CDBF19829F938F937F936F9388E393E0DD
S11312A09F938F938E010F5F1F4F1F930F930E9485
S11312B0FA0EC8010E941B090FB6F894DEBF0FBED8
S11312C0CDBFE2960FB6F894DEBF0FBECDBFDF915F
S11312D0CF911F910F9108954F925F926F927F92D9
S11312E08F929F92AF92BF92CF92DF92EF92FF9232
S11312F00F931F93CF93DF93CDB7DEB7CC55D109AE
S11313000FB6F894DEBF0FBECDBF5C01542E422E43
S1131310FC01108283E090E09283818313829583A1
S11313208483168217821086118612861386148689
S1131330158616861786108A118A128A138A148AC9
S1131340158A168A81E090E0908F878B928F818F27
S1131350138E148E158E3501FEE16F0E711CF5018E
S1131360168E178E10A211A2F30114821582168212
S113137017821086118612861386148615861686A1
S11313801786108A118A128A138A148A158A168A71
S1131390178A108E118E128E138E148E158E168E41
S11313A0178E10A211A212A213A214A215A216A2A1
S11313B017A210A681A712A613A614A615A616A6F0
S11313C017A610AA11AA12AA13AA14AA15AA16AA31
S11313D017AA10AE11AE12AE13AE14AE15AE16AE01
S11313E017AECE0149960E94FC01898D9A8DF501B4
S11313F0918380838B8D9C8D93838283CE014996C8
S11314000E949C02A7019601B801CE0101960E9498
S1131410780688E1FE013196D501149601900D926B
S11314208A95E1F7CE0101960E94D00A82E48F9357
S11314309CED9F931F921F928F9388E48F931F922A
S11314401F928EE38F9389E98F938F938AE98F9309
S11314500F2EFAE08F2EF7ED9F2EF3E2AF2EFCE372
S1131460BF2EF02D0F2EC12CD12CF0E6EF2EF0E480
S1131470FF2EF02D00E010E024EB32E4442D652D26
S1131480CE014D960E94CC0780E4FE017D96D301E7
S113149001900D928A95E1F7CE014D960E94F808CD
S11314A00FB6F894DEBF0FBECDBFC45ADF4F0FB6E0
S11314B0F894DEBF0FBECDBFDF91CF911F910F9186
S11314C0FF90EF90DF90CF90BF90AF909F908F9060
S11314D07F906F905F904F90089521E0FC01258FDD
S11314E00E943A020895FC01158E0E946A02089532
S11314F0FC01258D222319F00E94730A08950E948D
S11315006D0A0895CF93DF93EC0186EA93E00E947D
S11315101B09CE014E960E94F808CE0104960E9443
S1131520D00ACE010E949C02DF91CF910895CF93FF
S1131530DF93EC016E96CE010E94C308CE010E9497
S1131540C004DF91CF910895CF93DF93EC01789499
S11315500E94FD08209739F481E085BD82EC93E078
S11315600E941B091AC0C130D10571F489E080932F
S113157081008FEF90E0909389008093880087ED3D
S113158093E00E941B0909C0229739F481E08093FB
S1131590B1008CEE93E00E941B09DF91CF91089576
S11315A081E094E00E941B090895CF93DF93EC013E
S11315B088819981009721F481E080936E0010C0A6
S11315C08130910521F482E080936F0009C0029775
S11315D039F481E0809370008CE194E00E941B094F
S11315E081E08A87DF91CF910895CF93DF93EC0157
S11315F088819981009719F410926E000EC0813091
S1131600910519F410926F0008C0029731F41092FA
S113161070008BE294E00E941B091A86DF91CF913F
S11316200895FC0186819781A085B185892B8A2B39
S11316308B2BD1F082819381A481B5810196A11D68
S1131640B11D82839383A483B583468157816085CA
S1131650718584179507A607B70740F01282138295
S11316601482158281E0089580E0089580E0089551
S11316705058BB27AA270E94500B0C94C30C0E94FD
S1131680B50C38F00E94BC0C20F039F49F3F19F4DB
S113169026F40C94B20C0EF4E095E7FB0C94AC0C1D
S11316A0E92F0E94D40C58F3BA1762077307840712
S11316B0950720F079F4A6F50C94F60C0EF4E09559
S11316C00B2EBA2FA02D0B01B90190010C01CA01F8
S11316D0A0011124FF27591B99F0593F50F4503EA3
S11316E068F11A16F040A22F232F342F4427585F95
S11316F0F3CF469537952795A795F0405395C9F7AD
S11317007EF41F16BA0B620B730B840BBAF0915064
S1131710A1F0FF0FBB1F661F771F881FC2F70EC003
S1131720BA0F621F731F841F48F4879577956795D6
S1131730B795F7959E3F08F0B0CF9395880F08F0C2
S11317409927EE0F9795879508950E94880C08F4C1
S113175081E008950E94BE0B0C94C30C0E94BC0C43
S113176058F00E94B50C40F029F45F3F29F00C9426
S1131770AC0C51110C94F70C0C94B20C0E94D40CC8
S113178068F39923B1F3552391F3951B550BBB27AC
S1131790AA2762177307840738F09F5F5F4F220FF1
S11317A0331F441FAA1FA9F335D00E2E3AF0E0E8E8
S11317B032D091505040E695001CCAF72BD0FE2F32
S11317C029D0660F771F881FBB1F261737074807C6
S11317D0AB07B0E809F0BB0B802DBF01FF2793587E
S11317E05F4F3AF09E3F510578F00C94AC0C0C948A
S11317F0F70C5F3FE4F3983ED4F3869577956795AD
S1131800B795F7959F5FC9F7880F911D96958795B2
S113181097F90895E1E0660F771F881FBB1F6217D1
S113182073078407BA0720F0621B730B840BBA0B8F
S1131830EE1F88F7E09508950E94DC0C88F09F570E
S113184098F0B92F9927B751B0F0E1F0660F771FE0
S1131850881F991F1AF0BA95C9F714C0B13091F0D6
S11318600E94F60CB1E008950C94F60C672F782FC3
S11318708827B85F39F0B93FCCF38695779567959B
S1131880B395D9F73EF490958095709561957F4F07
S11318908F4F9F4F0895E89409C097FB3EF49095AD
S11318A08095709561957F4F8F4F9F4F9923A9F035
S11318B0F92F96E9BB279395F695879577956795C4
S11318C0B795F111F8CFFAF4BB0F11F460FF1BC008
S11318D06F5F7F4F8F4F9F4F16C0882311F096E99B
S11318E011C0772321F09EE8872F762F05C0662349
S11318F071F096E8862F70E060E02AF09A95660F02
S1131900771F881FDAF7880F9695879597F90895BA
S1131910990F0008550FAA0BE0E8FEEF16161706FC
S1131920E807F907C0F012161306E407F50798F064
S1131930621B730B840B950B39F40A2661F0232B7D
S1131940242B252B21F408950A2609F4A140A695F9
S11319508FEF811D811D089597F99F6780E870E0DE
S113196060E008959FEF80EC089500240A94161611
S1131970170618060906089500240A941216130679
S1131980140605060895092E0394000C11F4882307
S113199052F0BB0F40F4BF2B11F460FF04C06F5F23
S11319A07F4F8F4F9F4F089557FD9058440F551FF9
S11319B059F05F3F71F04795880F97FB991F61F0CD
S11319C09F3F79F087950895121613061406551F44
S11319D0F2CF4695F1DF08C0161617061806991FB0
S11319E0F1CF86957105610508940895E894BB27A5
S11319F066277727CB0197F908950E94880C08F48D
S1131A008FEF08950E94150D0C94C30C0E94B50C21
S1131A1038F00E94BC0C20F0952311F00C94AC0C0F
S1131A200C94B20C11240C94F70C0E94D40C70F397
S1131A30959FC1F3950F50E0551F629FF001729F6F
S1131A40BB27F00DB11D639FAA27F00DB11DAA1F7E
S1131A50649F6627B00DA11D661F829F2227B00DCB
S1131A60A11D621F739FB00DA11D621F839FA00D56
S1131A70611D221F749F3327A00D611D231F849FA6
S1131A80600D211D822F762F6A2F11249F575040FD
S1131A909AF0F1F088234AF0EE0FFF1FBB1F661F78
S1131AA0771F881F91505040A9F79E3F510580F041
S1131AB00C94AC0C0C94F70C5F3FE4F3983ED4F315
S1131AC0869577956795B795F795E7959F5FC1F7E5
S1131AD0FE2B880F911D9695879597F90895FA0125
S1131AE0EE0FFF1F309621053105A1F16115710537
S1131AF061F48038BFE39B0749F16894903881050D
S1131B0061F08038BFEF9B0741F099234AF5FF3F0E
S1131B10E1053105210519F1E8940894E795D90107
S1131B20AA2329F4AB2FBE2FF85FD0F310C0FF5FB8
S1131B3070F4A695E0F7F73950F019F0FF3A38F44D
S1131B409F779F930DD00F9007FC9058089546F00F
S1131B500C94B20C60E070E080E89FE308954FE7D6
S1131B609F775F934F933F932F930E946A0E2F9119
S1131B703F914F915F910E94020D0C94C70D29F47F
S1131B8016F00C94AC0C0C94F60C0C94B20C0E9451
S1131B90DC0CA8F39638A0F707F80F92E8942BE32F
S1131BA03AEA48EB5FE70E94180D0F920F920F92EA
S1131BB04DB75EB70F920E94B20EE8E6F0E00E94C5
S1131BC0F90D4F915F91EF91FF91E595EE1FFF1F86
S1131BD049F0FE57E0684427EE0F441FFA95E1F7F9
S1131BE04195550B0E942C0E0F9007FE0C94200E6D
S1131BF00895DF93CF931F930F93FF92EF92DF9299
S1131C007B018C01689406C0DA2EEF010E94150D49
S1131C10FE01E894A5912591359145915591A6F33E
S1131C20EF010E94500BFE019701A801DA9469F7B5
S1131C30DF90EF90FF900F911F91CF91DF91089566
S1131C409B01AC0160E070E080E89FE30C94AA0B78
S1131C500C94AC0C0C94E60E0E94DC0CD8F3992383
S1131C60C9F3940F511DA3F39150504094F059F0CF
S1131C70882332F0660F771F881F91505040C1F7B8
S1131C809E3F51052CF7880F911D9695879597F9DE
S1131C9008955F3FACF0983E9CF0BB2786957795FE
S1131CA06795B79508F4B1609395C1F7BB0F58F7E2
S1131CB011F460FFE8CF6F5F7F4F8F4F9F4FE3CFEB
S1131CC00C94F70C16F00C94E60E0C94B20C689479
S1131CD00C94AC0C0E94DC0CA8F39923C1F3AEF372
S1131CE0DF93CF931F930F93FF92C92FDD27882390
S1131CF02AF02197660F771F881FDAF720E030E07B
S1131D0040E85FEB9FE3883920F0803E38F021966D
S1131D108F770E94390BE0E9F0E004C00E94390B90
S1131D20EDEBF0E00E94F90D8B01BE01EC01FB2EFE
S1131D306F5771097595771F880B990B0E944D0C8D
S1131D4028E132E741E35FE30E94150DAF2D9801CE
S1131D50AE01FF900F911F91CF91DF910E94500B24
S1131D600C94C30CFA01DC01AA0FBB1F9B01AC014C
S1131D70BF5728F4222733274427507820C0B7516F
S1131D8090F4AB2F0024469537952795011CA39515
S1131D90D2F3002071F0220F331F441FB395DAF3FE
S1131DA00ED00C94380B61307105A0E88A07B9464F
S1131DB030F49B01AC01662777278827907830960A
S1131DC021F0208331834283538308959F3F31F070
S1131DD0915020F4879577956795B795880F911D55
S1131DE09695879597F90895EE0FFF1F0590F49146
S1131DF0E02D0994AEE0B0E0E0E0FFE00C94BB110C
S1131E000D891E8986E08C831A8309838FEF9FE7EF
S1131E109E838D83AE01475E5F4F6F89788DCE01BF
S1131E2001960E941C0FEF81F885E00FF11F1082CC
S1131E302E96E4E00C94D711ABE0B0E0E2E2FFE0D0
S1131E400C94AD116C017B018A01FC01178216828E
S1131E50838181FFCCC1CE0101963C01F6019381BF
S1131E60F70193FD859193FF81917F01882309F404
S1131E70BAC1853239F493FD859193FF81917F0135
S1131E80853229F4B60190E00E941311E7CF912C1A
S1131E90212C312CFFE1F315D8F08B3279F038F492
S1131EA0803279F08332A1F4232D20611DC08D325C
S1131EB061F0803369F4232D216016C0832D826084
S1131EC0382EE32DE4603E2E2AC0F32DF8601DC0A9
S1131ED037FC2DC020ED280F2A3040F08E32B9F4A3
S1131EE036FC81C1232D2064322E19C036FE06C073
S1131EF08AE0989E200D1124922E11C0EAE02E9EB5
S1131F00200D1124222EF32DF0623F2E08C08C36B2
S1131F1021F4832D8068382E02C0883641F4F701FD
S1131F2093FD859193FF81917F018111B3CF982F08
S1131F309F7D9554933028F40C5F1F4F9FE3998342
S1131F400DC0833631F0833771F0833509F059C001
S1131F5021C0F801808189830E5F1F4F88248394F8
S1131F60912C530113C02801F2E04F0E511CF801CB
S1131F70A080B18036FE03C0692D70E002C06FEF0F
S1131F807FEFC5010E9408114C018201F32DFF77F8
S1131F903F2E16C0280122E0420E511CF801A080F9
S1131FA0B18036FE03C0692D70E002C06FEF7FEF91
S1131FB0C5010E94FD104C01F32DF0683F2E8201F3
S1131FC033FC1BC0822D90E088169906B0F4B6014C
S1131FD080E290E00E9413112A94F4CFF50137FCBB
S1131FE0859137FE81915F01B60190E00E94131143
S1131FF021102A9421E0821A91088114910471F726
S1132000E8C0843611F0893641F5F80137FE07C07F
S113201060817181828193810C5F1F4F08C0608150
S11320207181072E000C880B990B0E5F1F4FF32D47
S1132030FF763F2E97FF09C0909580957095619526
S11320407F4F8F4F9F4FF0683F2E2AE030E0A3016F
S11320500E944F11882E861845C0853731F4232DF0
S11320602F7EB22E2AE030E025C0932D997FB92E21
S11320708F36C1F018F4883579F0B5C0803719F07F
S1132080883721F0B0C0E92FE061BE2EB4FE0DC048
S1132090FB2DF460BF2E09C034FE0AC0292F266030
S11320A0B22E06C028E030E005C020E130E002C0D6
S11320B020E132E0F801B7FE07C0608171818281BE
S11320C093810C5F1F4F06C06081718180E090E0B6
S11320D00E5F1F4FA3010E944F11882E8618FB2DFF
S11320E0FF773F2E36FE0DC0232D2E7FA22E89149E
S11320F058F434FE0BC032FC09C0832D8E7EA82E0A
S113210005C0B82CA32C03C0B82C01C0B92CA4FE64
S11321100FC0FE01E80DF11D8081803321F49A2D5A
S1132120997EA92E09C0A2FE06C0B394B39404C03C
S11321308A2D867809F0B394A3FC11C0A0FE06C0D2
S1132140B21488F4280C922C9B180EC0B21460F4BC
S1132150B60180E290E00E941311B394F7CFB21459
S113216018F42B1802C0982C212CA4FE10C0B60120
S113217080E390E00E941311A2FE17C0A1FC03C0EB
S113218088E790E002C088E590E0B6010CC08A2D93
S1132190867859F0A1FE02C08BE201C080E2A7FC60
S11321A08DE2B60190E00E941311891438F4B6014F
S11321B080E390E00E9413119A94F7CF8A94F3017C
S11321C0E80DF11D8081B60190E00E941311811089
S11321D0F5CF222009F442CEB60180E290E00E94BD
S11321E013112A94F6CFF6018681978102C08FEFEE
S11321F09FEF2B96E2E10C94C911FC01059061500C
S113220070400110D8F7809590958E0F9F1F089508
S1132210FC016150704001900110D8F780959095B1
S11322208E0F9F1F08950F931F93CF93DF93FB018E
S1132230238121FD03C08FEF9FEF2CC022FF16C026
S113224046815781248135814217530744F4A08184
S1132250B1819D012F5F3F4F318320838C93268171
S113226037812F5F3F4F3783268314C08B01EC01E6
S1132270FB010084F185E02D0995892BE1F6D80155
S113228016968D919C911797019617969C938E9311
S11322901697CE01DF91CF911F910F910895FA0106
S11322A0AA27283051F1203181F1E8946F936E7F91
S11322B06E5F7F4F8F4F9F4FAF4FB1E03ED0B4E082
S11322C03CD0670F781F891F9A1FA11D680F791FC3
S11322D08A1F911DA11D6A0F711D811D911DA11DD4
S11322E020D009F468943F912AE0269F11243019E4
S11322F0305D3193DEF6CF010895462F4770405D7F
S11323004193B3E00FD0C9F7F6CF462F4F70405D2D
S11323104A3318F0495D31FD4052419302D0A9F788
S1132320EACFB4E0A6959795879577956795BA9582
S1132330C9F700976105710508959B01AC010A2E48
S113234006945795479537952795BA95C9F7620F1F
S1132350731F841F951FA01D08952F923F924F92C3
S11323605F926F927F928F929F92AF92BF92CF9221
S1132370DF92EF92FF920F931F93CF93DF93CDB72A
S1132380DEB7CA1BDB0B0FB6F894DEBF0FBECDBFA2
S113239009942A88398848885F846E847D848C8473
S11323A09B84AA84B984C884DF80EE80FD800C817C
S11323B01B81AA81B981CE0FD11D0FB6F894DEBF5F
S11323C00FBECDBFED01089510E0C6E7D0E004C014
S11323D0FE010E94F40E2196C737D107C9F7F8947D
S10523E0FFCF29
S11323E24D6F746F722074696D6572206E6F772001
S11323F26F6666210A004D6F746F722074696D6591
S113240272206E6F77206F6E210A00546865206D0A
S11324126F746F72206973206E6F772064697361C1
S1132422626C6564210A00546865206D6F746F7272
S1132432206973206E6F7720656E61626C6564211A
S11324420A000A20696E6974204144433A20000A52
S1132452526571756972656420696E74657272750C
S11324627470732028636F6E737472756374293A7F
S11324722000546F74616C20616D6F756E74206FEF
S11324826620696E74657272757074733A200052B4
S11324926571756972656420696E746572727570AE
S11324A2747320696E2050574D5F54696D657220B4
S11324B2636F6E7374727563746F723A20002D2D9C
S11324C22D2D2D2D2D2D2D2D2D2D2D2D2D2D2D2D36
S11324D22D2D2D2D2D2D2D2D2D2D2D2D2D2D2D2D26
S11324E22D2D2D2D2D2D2D2D2D2D2D2D2D2D2D2D16
S11324F22D2D2D2D2D2D2D2D2D2D2D2D2D2D2D2D06
S11325022D2D2D2D2D2D2D2D2D2D2D2D2D2D2D2DF5
S11325122D2D2D2D0A005461726765743A20000A2C
S113252241637475616C2076616C75653A20000AAA
S11325324F75747075743A20000A4572726F723A5C
S113254220000A2D2D2D2D2D2D2D2D2D2D2D2D2D12
S11325522D2D2D2D2D2D2D2D2D2D2D2D2D2D2D2DA5
S11325622D2D2D2D2D2D2D2D2D2D2D2D2D2D2D2D95
S11325722D2D2D2D2D2D2D2D2D2D2D2D2D2D2D2D85
S11325822D2D2D2D2D2D2D2D2D2D2D2D2D2D2D2D75
S11325922D2D2D2D2D2D2D2D2D0A0A00556E6974EC
S11325A22064726976696E672000206465677265CB
S11325B2657320746F20746865207269676874217A
S11325C20A0A00206465677265657320746F20745B
S11325D26865206C656674210A0A0043617220648E
S11325E2726976696E6720737472616967687420B0
S11325F2666F7277617264210A0A000A2053656E5B
S1132602736F722064657374727563746F7220637E
S1132612616C6C6564210A00256C7500256C642E5E
S1132622256C6400536572766F2074696D6572203F
S11326326E6F77206F6E210A00536572766F207475
S1132642696D6572206E6F77206F6666210A005489
S1132652686520536572766F206973206E6F7720E8
S113266264697361626C6564210A0054686520536D
S11326726572766F206973206E6F7720656E616272
S11326826C6564210A000A2054696D6572206465D0
S11326927374727563746F722063616C6C65642108
S11326A20A000A2054696D6572203020696E6974CB
S11326B2696174656420000A2054696D6572203171
S11326C220696E6974696174656420000A20546922
S11326D26D6572203220696E697469617465642063
S11326E2000A54696D65722064657374727563744B
S11326F26F722063616C6C6564210A000A2054695C
S11327026D65722032206F6E3A20000A2054696D82
S10F271265722032206F66663A200000D9
S9030000FC
